:100000000C94DD020C9415030C9415030C94150349
:100010000C9415030C9415030C9415030C94150300
:100020000C9415030C9415030C94E1240C94B52541
:100030000C94D21F0C9415030C9415030C94150307
:100040000C9415030C9415030C9415030C941503D0
:100050000C9415030C9459200C9415030C9415035F
:100060000C9415030C9415030C9415030C941503B0
:100070000C9415030C9415030C9415030C941503A0
:100080000C9415030C9415030C9415030C94150390
:100090000C9415030C9415030C9415030C94150380
:1000A0000C9415030C9415030C94150329001E00E1
:1000B0001F0020002100220023002400250026002C
:1000C00027002D002E002A002B002F0014001A00FC
:1000D0000800150017001C0018000C001200130087
:1000E0003000310039004B00040016000700090001
:1000F0000A000B000D000E000F0033003400280032
:10010000E1004E001D001B00060019000500110053
:1001100010003600370052003800E50000000151A1
:10012000E000E200E3002C0000002C000000E700EB
:10013000500051004F00000035000000000000009A
:1001400000000000000000000000000000000000AF
:1001500000004C0000000000000000000000000053
:100160000000000000000000000000002F00300030
:10017000000000000000000000000000000000007F
:10018000000000000000000000000000000000006F
:10019000000000000000000000000000000000005F
:1001A0000000000000000000005C010000000000F2
:1001B000000000000000000000000000000000003F
:1001C0000000005C00000000000000002A2B280056
:1001D00000000000000000000000000000000029F6
:1001E000000000002C1E3420212224342627252E36
:1001F000362D3738271E1F2021222324252633336E
:10020000362E37381F0405060708090A0B0C0D0E99
:100210000F101112131415161718191A1B1C1D2F65
:100220003130232D350405060708090A0B0C0D0E85
:100230000F101112131415161718191A1B1C1D2F45
:100240003130354C000000000000000000000000CC
:10025000000000000000000000000000000000009E
:1002600000000000000000007E0F00D4FFFFFFC769
:100270000000007800047F3F1F6432146432147859
:100280003C1E1E140A052223252628292A2C2D2F40
:100290003032333536383A3B3D3E4042434547499C
:1002A0004A4C4E5051535557595A5C5E60626466D1
:1002B00068696B6D6F71737577797B7D7F818385DD
:1002C00087898A8C8E90929496989A9C9E9FA1A3DF
:1002D000A5A7A8AAACAEAFB1B3B4B6B8B9BBBCBE03
:1002E000BFC1C2C3C5C6C7C9CACBCCCDCED0D1D27F
:1002F000D2D3D4D5D6D7D7D8D9D9DADADBDBDBDC81
:10030000DCDCDCDCDDDDDDDDDCDCDCDCDCDBDBDB2C
:10031000DADAD9D9D8D7D7D6D5D4D3D2D2D1D0CE8C
:10032000CDCCCBCAC9C7C6C5C3C2C1BFBEBCBBB991
:10033000B8B6B4B3B1AFAEACAAA8A7A5A3A19F9E0F
:100340009C9A98969492908E8C8A89878583817FD7
:100350007D7B79777573716F6D6B696866646260B8
:100360005E5C5A5957555351504E4C4A4947454384
:1003700042403E3D3B3A3836353332302F2D2C2A21
:10038000292826252322FFAA7F55400001010101CB
:100390000101010101020202020202020202030340
:1003A0000303030303030404040404040405050510
:1003B00005050606060606070707070708080808D2
:1003C000090909090A0A0A0B0B0B0C0C0C0D0D0D7F
:1003D0000E0E0E0F0F0F1010111111121213131415
:1003E00014151516161717181819191A1A1B1B1C8D
:1003F0001D1D1E1E1F2020212222232424252626E7
:10040000272829292A2B2C2D2D2E2F30313232331B
:100410003435363738393A3B3C3D3E3F4041424324
:100420004445464748494A4C4D4E4F505153545508
:100430005658595A5B5D5E5F616264656668696BB8
:100440006C6D6F7072737577787A7B7D7E80828336
:100450008587888A8C8E8F91939596989A9C9EA07A
:10046000A2A3A5A7A9ABADAFB1B3B5B7BABCBEC087
:10047000C2C4C6C9CBCDCFD1D4D6D8DBDDDFE2E450
:10048000E7E9EBEEF0F3F5F8FAFDFF140342006F35
:1004900000610072006400770061006C006B000076
:1004A0000018037300680065006E0073006D006F34
:1004B00000620069006C0065000000040309040983
:1004C000023B00020100A0FA09040000010301013F
:1004D00000092111010001224000070581030800E5
:1004E00001090401000103000000092111010001BC
:1004F000226D0007058203200001120100020000A6
:100500000008CDCD3753010001020001050109802B
:10051000A101850319012AB700150126B70095012D
:1005200075108100C0050C0901A101850419012A7B
:10053000A002150126A002950175108100C00501D9
:100540000906A1018506050719E029E7150025011F
:100550009508750181020507190029EF150025018D
:1005600095F07501810205081901290595057501A8
:100570009102950175039101C005010906A10105CC
:100580000719E029E71500250195087501810295F5
:1005900001750881010507190029FF150026FF00D4
:1005A000950675088100050819012905950575014D
:1005B0009102950175039101C00011241FBECFEF78
:1005C000DAE0DEBFCDBF04B603FE18C0809122037F
:1005D00090912303A0912403B09125038730904B81
:1005E000A740B04B59F410922203109223031092AB
:1005F000240310922503E0E0F8E3099511E0A0E060
:10060000B1E0EEECF1E502C005900D92AC3BB10714
:10061000D9F723E0ACEBB1E001C01D92A232B207E2
:10062000E1F70E9498130C9490280C9400009C0110
:100630003A9521153F4150F5FC01EE27F170BC01C0
:1006400066277270AC01442754709C0122273870D1
:1006500094FF0EC080E1EF2B09F480E0672B09F0D6
:100660008062452B09F08064232B89F0806808950F
:1006700081E0EF2B09F480E0672B09F08260452BC5
:1006800009F08460232B19F08860089580E00895B4
:10069000CF93DF93EB010E941703FE010995DF91D1
:1006A000CF910895CF93DF93EC01805E9109089775
:1006B00020F06FE878E0209711F467E376E0CE0150
:1006C0000E9448038C2F0E943705DF91CF91089537
:1006D000CF93DF93EC010E94C505CE01805E9109A6
:1006E000089720F066E978E0209711F46EE376E051
:1006F000CE010E944803DF91CF910895CF93DF93FD
:10070000EC010E945203C933D10549F42FEF87EE63
:1007100093E0215080409040E1F700C00000CE01FE
:100720000E946803DF91CF91089581E0089581E0F0
:1007300008950E949703089508950E949C030895C8
:10074000A5E0B0E0E6EAF3E00C94FA2749835A8387
:100750003091BF0189819A81311119C0662399F0C6
:10076000222389F00E94840A182F682F89819A8198
:100770000E94600A69817A81812F0E940311259667
:10078000E3E00C9416280E94720A182FF3CF0E94FF
:10079000840A69817A81F1CFFC01262F4081518141
:1007A0006281738184810E94A003089581E008958D
:1007B000CF93DF93EC0160E00E94CC03BE010E9466
:1007C0009D03DF91CF9108950E943F1208950E94EA
:1007D0004312089508950E94AF080E94EA032FEF84
:1007E00084E39CE0215080409040E1F700C000008D
:1007F00008950E94EB030E947D2008950E94EB0360
:100800000E94A12008950F931F93CF93DF938C0133
:1008100061E00E94CC03EC01B8010E9499038111B0
:1008200006C080E0DF91CF911F910F910895B8012C
:10083000CE010E94791B8823A1F3B801CE010E944A
:10084000181E882371F3B801CE010E94981B8823DB
:1008500041F3B801CE010E948A1D882311F3B8012B
:10086000CE010E94AF198823E1F2F801828188232A
:1008700061F0CB35FDE5DF0701F158F4C115ECE57A
:10088000DE0791F0CF3DDC4591F0C8010E94950351
:10089000C9CFCD358DE5D80769F090F0C83ADD4570
:1008A000A1F70E94FE03BDCF0E94F903BACF0E94B8
:1008B0004D0FF7CF0E94870EE8CF0E94910EE5CF33
:1008C0000E94950EE2CF0E94AE1F0E94E804089598
:1008D0000E94EC040E94B31F0895B0E0A0E0E3E79B
:1008E000F4E00C94F627E82FF0E0EC53FE4FD490A0
:1008F000282F26952695269530E0F901EC59FD4FD5
:100900000491877010E0082E02C0159507950A948F
:10091000E2F701701127F901EC5AFD4FE490F12C38
:10092000082E02C0F594E7940A94E2F791E0E922D8
:10093000FF24F901EC5BFD4FC491D0E002C0D595D6
:10094000C7958A95E2F7C170DD270115110519F0E9
:1009500081EE0E943705E114F10419F086EE0E9441
:1009600037058D2D0E942E06E114F10419F086EE54
:100970000E94C5050115110519F081EE0E94C505FB
:10098000CD2B19F08CE20E942E06CDB7DEB7E7E042
:100990000C941228982F9F709A50963020F0805D0A
:1009A0000E946D040895895AFBCF08950E94D504D2
:1009B000089581E008950E94D90408950895CF9381
:1009C000C82F0E94D6048C2F0E94DB04CF9108957B
:1009D00080E00E94DF0408950E94741E0E94DF04DC
:1009E00008950E94741E9091BE01981721F0809383
:1009F000BE010E94DF040895ABE0B0E0E2E0F5E064
:100A00000C94FB274F83588769877A878B876111FE
:100A10000E94D20D1E821D8285E0FE013796DE0106
:100A2000119601900D928A95E1F78C819D81892B19
:100A300061F449815A816B817C818D819E810E9404
:100A4000F80C2B96E2E00C94172889819A8189236F
:100A50008F3F79F3CE0101960E94D6038111E9CF31
:100A6000F0CFFC01808191810E94BE0A0895CF934E
:100A7000C82F8823C9F08238C9F40E94741E81FDF2
:100A800013C089E30E94870D0E94F30D2FEF81EEC2
:100A900094E0215080409040E1F700C0000089E3DD
:100AA0000E948F0D0E94F30DCF9108958338A1F419
:100AB0000E94741E80FDF8CF83E50E94870D0E947E
:100AC000F30D2FEF81EE94E0215080409040E1F74C
:100AD00000C0000083E5E4CF8438A1F40E94741EB6
:100AE00082FDE2CF87E40E94870D0E94F30D2FEF75
:100AF00081EE94E0215080409040E1F700C000007A
:100B000087E4CECF8CEF8C0F813AB8F48C2F0E9403
:100B1000531D8111C9CF6C2F80910001909101016B
:100B20000E94DE1E882329F08C2F0E948F0D0E94C8
:100B3000F30D8C2F0E94870DB5CF80E28C0F88308B
:100B400048F4C77081E001C0880FCA95EAF70E9497
:100B5000B20DA8CFEBE5EC0FE33040F4F0E0E05B42
:100B6000FE4F808190E00E949E1E9ECFC85AC731E2
:100B700008F09ACFEC2FF0E0EE0FFF1FEE5DFE4F76
:100B8000808191810E94B41E8FCF882309F44DC0CB
:100B9000823879F40E94741E81FF47C089E30E9465
:100BA000870D0E94F30D89E30E948F0D0E94F30DC3
:100BB0000895833859F40E94741E80FF36C083E57F
:100BC0000E94870D0E94F30D83E5EECF843859F41F
:100BD0000E94741E82FF29C087E40E94870D0E9434
:100BE000F30D87E4E1CF9CEF980F913AE8F290E2A1
:100BF000980F983050F4877091E001C0990F8A9552
:100C0000EAF7892F0E94B80DD1CF9BE5980F93305A
:100C100028F490E080E00E949E1E0895885A873153
:100C200020F490E080E00E94B41E08951F93CF93BB
:100C3000DF93182FEB010E943705209739F4812F9D
:100C40000E94C505DF91CF911F9108958FE99FE024
:100C50000197F1F700C000002197EFCF70E060E04E
:100C6000893311F460E570E00E9416060895882328
:100C700021F00E94B20D0E94F30D0895882321F007
:100C80000E94B80D0E94F30D0895B0E0A0E0EBE4DF
:100C9000F6E00C94F4276C01D62FC72FFC011281CB
:100CA000F580F2949FE0F9220E94A80DE82E882397
:100CB000B9F0E12E1123A1F08C2F807F803421F038
:100CC00080E28D0F8830D0F08091C60282FF16C07E
:100CD00082E00E94560E0E94A80D91E0E82EE926BF
:100CE000BC2EB2948FE0B822FBE0FB1508F468C07C
:100CF000EB2DF0E0EE56F74D0C94B427E12CF0CF3D
:100D00000C2F0F70C07F11F00295007F112399F016
:100D1000002359F080E28D0F883010F0D11107C008
:100D2000802F0E94B20D0E94F30D8D2F41C0802FA5
:100D30000E94C50DF8CF8D2F0E94C505002309F430
:100D40003FC080E28D0F883010F0D11104C0802F99
:100D50000E94B80D03C0802F0E94CB0D0E94F30D9E
:100D60002FC00C2F0F70C07FC03211F00295007F92
:100D7000DD2381F0D13009F463C0112309F46DC083
:100D8000FF2009F463C0F601858180FFCECF8F700C
:100D900085835CC08091C60282FD33C0112359F067
:100DA000002329F0802F0E94B20D0E94F30D80E0F5
:100DB0000E94370505C080E00E94C5050111C7CF1C
:100DC000EB2DE850FF0B349720F40E94741E0E9414
:100DD000DF04EE2089F00E94A40D80FD0DC0F60115
:100DE00012820E949E0D0E946809C6010E94650839
:100DF0000E949E0D0E948A09CDB7DEB7E9E00C94EF
:100E00001028112389F0F11006C00E94D50D802B07
:100E10000E943706D5CF21E0F212F7CF0E94D50D00
:100E2000802B0E94DC0DCCCFF11006C00E94E90D92
:100E3000802F0E943E06C4CF31E0F31609F2F6CFB0
:100E4000112331F085E08F1508F4BACF802FE0CF61
:100E500094E09F1508F4B4CFEBCFFF2049F3D933CA
:100E600049F4FFEF27EE33E0F15020403040E1F746
:100E700000C000008D2F0E94C505A2CF8C2F869543
:100E80008695837069F0813009F09ACF8D2F9C2F61
:100E90009370111102C090E080E00E94B41E90CFC8
:100EA0008D2F9C2F9370111102C090E080E00E9462
:100EB0009E1E86CF8C2F837009F041C0111180CF08
:100EC0004D2F429546954770440F440F0D2F0F70DC
:100ED00010E030E020E0042E04C0000F111F221F9C
:100EE000331F0A94D2F760E070E0CB01D4FF0FC04B
:100EF0006FE070E080E090E004C0660F771F881F0D
:100F0000991F4A95D2F76095709580959095C695F2
:100F1000C695C370602B712B822B932BC23049F086
:100F200058F4C13019F00E9413094ACF0E940009F9
:100F300047CF0E94260944CF0E94FD0841CF8695E5
:100F4000112311F08C2F8170882309F439CF4D2F94
:100F5000429546954770440F440F0D2F0F7010E0D7
:100F600030E020E0042E04C0000F111F221F331FA9
:100F70000A94D2F760E070E0CB01D4FF0FC06FE0BD
:100F800070E080E090E004C0660F771F881F991F13
:100F90004A95D2F76095709580959095C695C695BF
:100FA000C370602B712B822B932BC23049F058F405
:100FB000C13019F00E94E30903CF0E94D00900CF8D
:100FC0000E94F609FDCE0E943F09FACECF70112390
:100FD00029F08C2F0E9468098D2F1ACF8D2F0E9427
:100FE0003E068C2F0E948A09EBCED23F51F160F46D
:100FF000D03FB9F0D13F81F0112309F449C0F1107D
:1010000094CE8C2F8F7121C0D33F11F1D43FA1F723
:101010008091C60282FD26C08C2F8F71112311F39F
:1010200014C0112349F084E08F1508F4C9CE8C2F29
:101030008F710E94AE09C4CE95E09F1508F4C0CE12
:10104000F6CF8C2F8F711111CDCF0E946809B8CEC9
:10105000112329F08C2F8F710E945209B1CE0E946A
:101060004C09AECE112349F0CF718C2F0E94680934
:1010700063E08C2F0E94380EA3CE81E00E94560EB2
:10108000E1E0EF1508F09CCE82E00E94560E98CE6B
:10109000F110E5CE8C2F8F71A5CF0F931F93CF93B7
:1010A000DF93EC01688179818A810E94C90A8C01F1
:1010B0000E94090A0E94FC08B801CE010E94450660
:1010C000DF91CF911F910F910895CF93DF93EC01A2
:1010D0008B819C81892B29F08881998189238F3F7D
:1010E00051F4DF91CF910895CE010E944D08CE01B9
:1010F0000E94D803F6CFCE010E9403048111F4CFE1
:101100000E94A80D882369F38A81882351F3809176
:10111000C60282FFE6CF82E00E94560EE2CF88230D
:1011200021F00E94C50D0E94F30D0895882321F03F
:101130000E94CB0D0E94F30D089590E080E00E9484
:101140009E1E90E080E00E94B41E0E94D20D0E947C
:10115000F30D08950E94970D0E949D0808950E9426
:10116000C20D0E94AA08089592959F70963091F042
:1011700058F4925F9F70923058F4803F19F030F429
:10118000883E30F481E008959A5FF4CF843FD1F334
:1011900080E00895883EB0F3813FD1F7F3CFFC01A2
:1011A000808191810E94BE0A0E94B4080895A5E042
:1011B000B0E0EDEDF8E00C94FB272596E2E00C940E
:1011C0001728A6E0B0E0E7EEF8E00C94FB2726969F
:1011D000E2E00C94172808950E94EB0808950E94FD
:1011E000EC086093F1017093F2018093F301909306
:1011F000F4010E949D08089508950E94EF08089543
:101200000F931F930091F1011091F2012091F301CE
:101210003091F401602B712B822B932B0E94EF08ED
:101220001F910F9108950F931F930091F101109159
:10123000F2012091F3013091F401602371238223A4
:1012400093230E94EF081F910F9108950F931F930E
:101250000091F1011091F2012091F3013091F4011C
:1012600060277127822793270E94EF081F910F9113
:1012700008950E94EB0808950E94390908950E947C
:101280003C096093ED017093EE018093EF01909320
:10129000F0010E949D08089560E070E0CB010E947B
:1012A0003F0908950F931F9341E050E060E070E024
:1012B0008A019B0104C0000F111F221F331F8A9552
:1012C000D2F7C901B8010E943F091F910F910895FB
:1012D0000F931F9341E050E060E070E004C0440FC2
:1012E000551F661F771F8A95D2F78091ED01909167
:1012F000EE01A091EF01B091F0018A019B01082B52
:10130000192B2A2B3B2BC901B8010E943F091F91C1
:101310000F9108950F931F9341E050E060E070E05B
:1013200004C0440F551F661F771F8A95D2F7CB0163
:10133000BA0160957095809590950091ED0110919E
:10134000EE012091EF013091F0016023712382239F
:1013500093230E943F091F910F9108950F931F93AC
:1013600041E050E060E070E004C0440F551F661F8C
:10137000771F8A95D2F78091ED019091EE01A091AF
:10138000EF01B091F0018A019B01082719272A2754
:101390003B27C901B8010E943F091F910F91089591
:1013A0000F931F930091ED011091EE012091EF0139
:1013B0003091F001602B712B822B932B0E943F09FF
:1013C0001F910F9108950F931F930091ED011091BC
:1013D000EE012091EF013091F0016023712382230F
:1013E00093230E943F091F910F9108950F931F931C
:1013F0000091ED011091EE012091EF013091F0018B
:1014000060277127822793270E943F091F910F9120
:1014100008950895262F277091E001C0990F2A950D
:10142000EAF723E0769567952A95E1F725E0269F70
:10143000F001279FF00D1124E40FF51F50E040E06C
:10144000682F70E08191DF0111979B01042E02C08B
:10145000369527950A94E2F72170219528272923AC
:1014600028272C934F5F5F4F4530510559F708955A
:10147000A82FA77023E0969587952A95E1F725E098
:10148000289FF001299FF00D1124E60FF71F50E06F
:1014900040E080E0219130E00A2E02C03695279589
:1014A0000A94E2F721703327042E01C0220F0A9418
:1014B000EAF7822B4F5F5F4F4530510559F708958A
:1014C000262F953070F48E3060F4682F70E08EE037
:1014D000989F600D711D112440EC51E0822F0E94F5
:1014E0000A0A0895292F953068F48E3058F490E058
:1014F00060EC71E03EE0239F800D911D11240E945D
:10150000380A089580E00895B0E0A0E0EAE8FAE043
:101510000C94F4278C01C090ED01D090EE01E09086
:10152000EF01F090F0018091F1019091F201A09112
:10153000F301B091F401C82AD92AEA2AFB2ACFE1A3
:10154000D0E0BC2ED701C6010C2E04C0B695A795DD
:10155000979587950A94D2F780FD09C0219788F75F
:10156000B12C8B2DCDB7DEB7E9E00C941028B80173
:101570008C2F0E941E11019789F3F3CFCF93DF9335
:10158000EC010E94840ABE010E941E11DF91CF91DE
:1015900008951F93CF93DF93EB019091BF0199239F
:1015A00039F0CB010E94BE0ADF91CF911F910895BF
:1015B000882369F0CB010E94840A182F682FCE017E
:1015C0000E94600ABE01812F0E941E11EDCFCB0147
:1015D0000E94720A182FF6CF1F93CF93DF93C0910A
:1015E000F50116E08091F6018C1304C0DF91CF91D4
:1015F0001F910895D0E01C9FF0011D9FF00D112454
:10160000E950FE4F408151816281738184819581CF
:101610000E94E1082196C770E5CF409127025091C2
:1016200028026091290270912A0280912B029091E8
:101630002C020E94E10808951F93CF93DF938091BD
:101640002C02807F09F049C080912902882309F487
:1016500044C08091F501C091F6016091270270911C
:101660002802A0912A02B0912B02D62FD72316E090
:10167000C81799F190E0109711F0DF3F19F4019627
:101680008770F6CF189F9001199F300D1124F90132
:10169000E950FE4F41814713F2CF40814613EFCF0F
:1016A00042814111ECCF438154814A1B5B0B483C82
:1016B000510528F780912C028F70806180932C0255
:1016C000F901E450FE4F80818F708061808387E252
:1016D00092E00E9465080E94EC0ADF91CF911F9171
:1016E0000895A1E1B0E0E7E7FBE00C94F3278C015B
:1016F00085E0F801DE011D9601900D928A95E1F7D3
:10170000F801E28087E2C82E82E0D82E60912A029A
:1017100070912B026115710509F44EC19091270259
:1017200020912802892F82238F3F09F445C14081EF
:101730005181A380B480F0902902F501E61BF70BDC
:10174000FF2009F4EAC080912C02382F307FE83C5A
:10175000F10508F0A3C031116DC0FE2C251316C091
:10176000941314C0E11012C08F70806180932C021A
:101770000E940D0BC6010E94650880912C02F801A1
:1017800085838F2D6196EAE00C940F28A114B10493
:1017900029F0842F85238F3F09F027C180E0F82F9F
:1017A000F170DF2E80FF3CC08091F5012091F601A1
:1017B00036E0821315C04D875E878D859E850E9419
:1017C000BE0A292F22952F702230F0F0243018F510
:1017D0009F70F1F0F8019581907FD1F4D12C1EC05B
:1017E00090E0389FF001399FF00D1124E950FE4F31
:1017F0006181651306C06081641303C06281E612D3
:101800000FC001968770D5CF9F7011F0882331F3F8
:10181000805E883018F3C8010E946508FD2CB1CFA6
:10182000EE2009F4AECF80912C02816080932C02CF
:10183000F12CA7CF251306C0941304C0F801EE20A5
:1018400009F487C0C8010E94CF08882319F1EE204F
:1018500009F180912C02803270F0209127023091A2
:10186000280238872F831986BB86AA868C87CE01EB
:1018700007960E94650886E0F801A7E2B2E00190B1
:101880000D928A95E1F70E941C0B0E940D0BFF241C
:10189000F39477CFC8010E946508F9CF311113C0C6
:1018A0007A2DB98AA88A6E2D89890E94D70887E285
:1018B00092E00E94650886E0F60111928A95E9F7A8
:1018C0000E940D0BB5CF25130FC094130DC0E1106E
:1018D0000BC0F8018583C8010E94650886E0F60107
:1018E00011928A95E9F74DCFC8010E94CF0888234D
:1018F00089F2EE2079F280912C02803208F4BBCF7D
:1019000020912702309128023A8329831B82BD82CD
:10191000AC828E83CE010196ACCFE83CF10508F095
:101920003EC0FE2CEE2009F4B5CF25132AC0941337
:1019300028C080912C0280FD1BC0982F907FC1F0A1
:10194000F8018583903F31F0982F907F905F8F70E2
:10195000892B8583C8010E94650886E0F801A7E20B
:10196000B2E001900D928A95E1F70E940D0B09CF2C
:1019700086E0F801A7E2B2E001900D928A95E1F7C6
:1019800000CFC8010E94CF08811175CF80912C0231
:10199000816080932C02C8010E946508F2CE7A2DE6
:1019A000B98AA88A6E2D89890E94D70886E0F60137
:1019B00011928A95E9F7D9CFEE2009F46BCFC801CF
:1019C0000E94CF08F82E882309F464CF86E0F8013E
:1019D000A7E2B2E001900D928A95E1F787E292E0EA
:1019E0000E9431050E941C0BC0CF81E08E25D7CE0E
:1019F000ACE0B0E0EEEFFCE00C94FA274F835887A0
:101A000069877A878B879C87CE0107960E94710B26
:101A1000882369F08A859B85892B39F04F81588509
:101A2000842F85238F3F09F06BC016E05FC086E0EE
:101A3000FE013796DE01119601900D928A95E1F72D
:101A40008A859B85892B89F388859F8189238F3F90
:101A500061F32091F60130E0C90101968770992762
:101A60004091F5014817190671F40E94AF081092D1
:101A7000F6011092F50186E0E7E2F2E0DF011D9247
:101A80008A95E9F7D2CF96E0929FD001939FB00D4F
:101A90001124A950BE4FFE01319601900D929A95E6
:101AA000E1F78093F6010E94EC0ABFCF819FC0014D
:101AB000112489509E4F0E94710B8823E9F0E09118
:101AC000F5011E9FF0011124E950FE4F4081518124
:101AD00062817381848195810E94E1088091F50182
:101AE00090E00196877099278093F5018091F50128
:101AF0009091F6018913DACF2C96E3E00C94162826
:101B000069857A858B859C850E94E1088ECF682F38
:101B100080910001909101010E945E1F0895682F3D
:101B200080910001909101010E946C1F08958091A5
:101B30000001909101010E947A1F089580914D0249
:101B4000859585958595089580914D0287700895B6
:101B500090914D02977081E009F480E008958091A2
:101B60007002089590917002892B809370020895FD
:101B700080959091700298239093700208958093BD
:101B80007002089510927002089590916F02892B4F
:101B900080936F020895809590916F02982390939F
:101BA0006F02089510926F02089580914E02089579
:101BB00008950E94D80D08959091C60292FF08C022
:101BC00090914E02981721F080934E020E94D90DF9
:101BD000089580914E02882329F010924E0280E0F1
:101BE0000E94D90D0895CF93DF93E0910001F09109
:101BF0000101809170028083E0910001F091010168
:101C0000808190916F02892B808390914E0299235D
:101C100081F0E0910001F09101018081892B8083A6
:101C200080910001909101010E94CA1E81110E94C1
:101C3000E90DC0910001D091010140E250E06DE258
:101C400072E0CE010E943B28892B59F080E2FE0110
:101C5000ADE2B2E001900D928A95E1F7CE010E94CB
:101C6000841EDF91CF91089508950E94340E089547
:101C70009091C60292FF11C098E0899F90011124B3
:101C8000622B60934D020E94680980914D028595F8
:101C9000859585950E94350E08950E9468090895DE
:101CA00010924D0280E00E94350E089590914D02F1
:101CB0008095892380934D02282F277091F4282F37
:101CC000082E000C330B9217130659F09091C602A0
:101CD00092FF07C08595859585950E948A090E9487
:101CE000500E08959091C60292FB222720F92817E2
:101CF00069F080FB92F99093C6028091C5029091A1
:101D0000C6020E94C30E82E00E94560E0895809182
:101D1000C60282FB882780F991E089270E94720E13
:101D2000089581E00E94720E089580E00E94720E74
:101D300008956FEF7FEF90E080E00E947A28089589
:101D400090E080E00E94562821E0883E9E4F09F0F6
:101D500020E0822F089582E090E00E9448280895B4
:101D600083E090E00E9448280895CF9384E090E0BB
:101D70000E944828C82F82E290E00E944828982FAD
:101D80008C2FCF910895CF93C92F682F84E090E0D6
:101D90000E945C286C2F82E290E00E945C28CF9128
:101DA0000895AB01BC018FE090E00E946E28089579
:101DB000AB01BC0183E190E00E946E28089560E0D1
:101DC00070E0CB010E94D80E089560E070E0CB0176
:101DD0000E94D10E0E94DF0E089568EE7EEF90E023
:101DE00080E00E947A2860E082E090E00E945C2817
:101DF00060E083E090E00E945C281092F101109274
:101E0000F2011092F3011092F40160E084E090E09E
:101E10000E945C2864E082E290E00E945C2860E01E
:101E200085E090E00E945C2860E086E090E00E94FF
:101E30005C286FEF87E090E00E945C2840E050E073
:101E4000BA0188E090E00E946E2860E08DE090E0AA
:101E50000E945C2840E050E0BA0188E190E00E94D6
:101E60006E2860E087E190E00E945C2840E050E04E
:101E7000BA018CE190E00E946E2870E060E080E2A0
:101E800090E00E947A2840E050E0BA0188E190E0BA
:101E90000E946E280E94E50E08950E94ED0E08959E
:101EA000682F8EE090E00E945C2808950E943E20FA
:101EB00060937F02709380028093810290938202EC
:101EC00060937B0270937C0280937D0290937E02EC
:101ED0000895089508950E946A0F089508950E9434
:101EE0006E0F08958DEF91E10E946A1E0E94690FA6
:101EF0000E946B0F089581E008950E947B0F089562
:101F0000089508950E94800F0E94810F08950E94F5
:101F100019120E94DE040E94CD1A08950E94292001
:101F20000E94FF120E94870F0E94D3180E946F0F19
:101F30000895AAE0B0E0EFE9FFE00C94EE270E94DC
:101F40001513A82E81110E94560F31E7832E32E01F
:101F5000932E10E000E0502E802F0E9446126C015C
:101F6000F401619071904F016816790609F443C03D
:101F70008091830281FD0E944F12B12CEE24E394E4
:101F8000F12C6C247D24C3018E219F21892B69F1C2
:101F90000E947D0F8823B1F0BE825F82CE20DF20B9
:101FA00081E0C114D10409F480E088870E943220C6
:101FB0008160782F9A8789874E815F8168858A85BD
:101FC0000E94FC04000F111FF801EF58FD4F8081A3
:101FD0009181E826F926F182E08281E0A11001C01A
:101FE00080E02A96EFE00C940A28B394EE0CFF1CD4
:101FF000FEE0BF12C8CF0F5F1F4F0530110509F07B
:10200000AACF8FEF89838A831B820E94322081604E
:10201000782F9D838C8349815A816B818D810E94A9
:10202000FC04DBCF0E94990F0E9406190E94F10464
:102030000895CF93DF930E942311EC01811522E5CF
:102040009207E8F5811531E5930708F0ACC0883EAA
:10205000910510F5803E910570F5883A910570F470
:10206000853A910508F078C08130910521F10097FB
:1020700011F1049700F5D0E0C0E01DC08F3B910541
:10208000D0F7C85AD0E0CC0FDD1FCD5ADE4F0990F3
:10209000D881C02DD4640FC0811540E5940708F0A5
:1020A00066C0C11580E4D80708F05EC0CE019A95DD
:1020B00081159F4100F7CE01DF91CF9108958115E1
:1020C00036E5930718F5811545E5940708F083C0B8
:1020D000C11584E5D80708F079C09C2F9695969590
:1020E0009E0123703327C115D34508F461C0C1E0B8
:1020F000D0E002C0CC0FDD1F2A95E2F730E2939FBB
:10210000C0011124C82BD92BDA68D5CFC1158AE5B7
:10211000D80778F4C11599E5D90708F066C0C1154C
:1021200028E5D20708F4A7CFDC2FCC27C06FD06AF0
:10213000C2CFCE0190568115904208F09CCF8D2FD2
:102140008F710E94BA1190E0982F882788279F717D
:102150009C012C2BE90147C0C55AD0E0CF57DE4F78
:10216000C881D0E0D064A7CFDF70D06AA4CFE4E00C
:1021700096958795EA95E1F783702C2F26952695FD
:10218000237040E2249F90011124382B8C2F837000
:10219000C1E0D0E002C0CC0FDD1F8A95E2F7C22B70
:1021A000D32BDC6888CFD82FCC27C16FD06A83CFE0
:1021B000C1E0D0E002C0CC0FDD1F2A95E2F720E29B
:1021C000929FC0011124C82BD92BEBCFDC2FCC2739
:1021D000C46FD06A70CF0E94BA11C82FD0E0DC2F34
:1021E000CC27CC27DF71D06266CF8C2F8F700E94F6
:1021F000BA1134E0D695C7953A95E1F7CF709C2F88
:10220000EC01D06958CF972F7530A8F46E3098F450
:1022100070E02EE0929F600D711D1124FB0196E489
:10222000899FE00DF11D1124EE0FFF1FE455FF4FB4
:1022300085919491089580E090E008950E940311A3
:102240000E941910089582389105B1F1B0F48133DC
:10225000910509F475C048F48932910509F469C003
:102260008A32910509F473C008958533910509F404
:1022700059C08933910501F10895833E9105A9F173
:1022800038F4803E9105F9F0823E910549F10895B8
:10229000863E9105A9F1873E9105C9F1843E9105DD
:1022A00019F52091C60221FF1FC08091C50284FD4F
:1022B00014C087EE90E008952091C5022370A1F02C
:1022C00080EE90E008952091C50220FD47C0309136
:1022D000C60230FF09C024FF44C090E080E004C083
:1022E0002091C50222FDF7CF08952091C50222FD5D
:1022F0003BC03091C60230FDE3CF24FFF5CFEDCFD8
:102300002091C50223FFF0CF24FDE7CFD2CF20914B
:10231000C50223FD2CC03091C60231FFEECF84EE02
:1023200090E008952091C50225FFDECF89E290E07C
:1023300008952091C50225FFD7CF85E390E0089549
:102340002091C50226FFD0CF8AE290E00895209127
:10235000C50226FFC9CF81E390E0089589E390E0AC
:10236000089583EE90E0089582EE90E0089586EE61
:1023700090E008959091C50292FF06C0282F287121
:102380002830F9F4877F846093FF06C0282F2871D6
:102390002831F1F4877E84612091C60220FF06C0B7
:1023A000382F38713830D9F4877F816021FF06C01B
:1023B000282F28712831D1F4877E816194FD877E92
:1023C0000895282F24712430F9F68B7F8860DCCFA4
:1023D000282F2471243101F78B7E8861DDCF382FBF
:1023E0003171313019F78E7F8860E0CF282F21714D
:1023F000213121F78E7E8861E1CF80E008950E942F
:10240000990E08950E9415138FE39CE90197F1F747
:1024100000C000000E94151380E00E94461280FF59
:1024200004C00E94FF110E947D2008950E940212A4
:1024300008950E94A00E811102C00E944D0F0E94BB
:10244000AB0E809383020E94B50E9093C6028093D8
:10245000C5020E9416120E94B00E682F70E090E034
:1024600080E00E94FD086091ED017091EE01809185
:10247000EF019091F0010E943C09089508950E9497
:102480003E12089508950E9442120895E82FF0E048
:10249000EE0FFF1FEF52FD4F808191810895089547
:1024A00080EA8A95F1F7089500C008950E945012BD
:1024B0000895F894E82FE295EF70F0E031A1282F0D
:1024C0002F7081E090E001C0880F2A95EAF7982FDD
:1024D0009095932391A392A1892B82A37894089538
:1024E0000F931F93CF93DF93C2E9D1E089918F3F80
:1024F00011F00E94591281E0C739D807B9F7C4E832
:10250000D1E002E911E089918F3F11F00E94591248
:102510000C171D07C1F7DF91CF911F910F910895FF
:10252000AF92BF92DF92EF92FF920F931F93CF93E0
:10253000DF938C01D62EC62FD0E0CE018E569E4F53
:102540007C01FC0120812F3F09F44CC0F894E22F5C
:10255000E295EF70F0E031A12F7081E090E001C0D2
:10256000880F2A95EAF7932F982B91A392A1809533
:10257000892382A378940E945412E4E8F1E041E0B8
:1025800050E0B12CA12C21912F3FB1F1A22FA295A7
:10259000AF70B0E090968C9190E02F7002C095954E
:1025A00087952A95E2F780FD27C0CA01A82AB92A93
:1025B000440F551F81E0E239F80729F7F7018081C0
:1025C0008F3F11F00E94591261E0A114B10409F487
:1025D00060E08D2D0E945612CC0FDD1FC00FD11F61
:1025E000B982A882DF91CF911F910F91FF90EF9058
:1025F000DF90BF90AF90089590E080E0D7CF0E9429
:1026000070128AE0E1EDF2E0DF01982F1D929A95B9
:10261000E9F7E7ECF2E0DF011D928A95E9F785E042
:102620000E9451130E94E4030895AAE0B0E0EBE198
:10263000F3E10C94F8278E010F5F1F4F8AE0F80139
:1026400011928A95E9F7F12C6F2DC8010E94901222
:10265000F394F5E0FF12F8CF4AE050E0B80187ECC0
:1026600092E00E943B28FF24F394009709F4F12C98
:10267000892B41F08AE0F801A7ECB2E001900D92BD
:102680008A95E1F72F2D45E061ED72E087EC92E04D
:102690000E9452130E94E7038F2D2A96E5E00C94C6
:1026A00014280895FF920F931F93CF93DF93F82E72
:1026B000092F162FD72FC42F222349F081E08093B2
:1026C00086020E943220909385028093840280913A
:1026D00086028823A1F080918402909185020E9455
:1026E0004A20059760F0EF2DF02FA12FBD2F90E02D
:1026F00080E0D0E08C179D073CF010928602CDB7A9
:10270000DEB7E5E00C941428219131912D933D938F
:102710000196F0CF0E9437220E948E0F0E94442221
:1027200008950E9449220E9412100E946322089577
:102730000E94CB1F0E941D220E94720F0E948A13CA
:102740000E9491130E94820FFBCFEF92FF920F9392
:102750001F93CF93DF93EB01E82FD1110EC04423D9
:1027600021F0F0E0E557FC4FE4916E2F7E2F8E2F85
:10277000CDB7DEB7E6E00C9413280D2F10E0282F1C
:1027800030E0442329F025573C4FF901249130E0F3
:10279000F6E0CF9FC0011124EFEFF0E0BF010E94EF
:1027A0006A27AB018C2F90E0880F991FA5E5A49FA5
:1027B000B001A59F700D1124861B970B982F990FC0
:1027C000980FBF01601B710B629FD001639FB00D1A
:1027D000729FB00D11248B2F9D9FB0011124672F84
:1027E0007727EF01C61BD70BBE01629FE001639FF5
:1027F000D00D729FD00D11247F01E91AF108E09EDF
:10280000B001E19E700DF09E700D1124672F7727A7
:10281000E61BF70BE29F8001E39F100DF29F100D66
:102820001124E12F722F4230510599F048F44115DF
:10283000510569F04130510581F0EB2F8D2F07C014
:102840004430510569F080F046305105B1F76E2FE4
:102850008FCFE22F7B2F812FFACFE22F7D2FF7CF63
:10286000EB2F822F712FF3CF7B2F822FED2FEFCF06
:1028700041E00E94A513089508950E943814089518
:10288000CF93DF93762FE901682F842F0E943D14A8
:10289000798368838A83DF91CF9108958091DB02E9
:1028A000982F9E7F29F4817082608093DB020895C7
:1028B0008A34E8F381708864F8CF88E090E00E9461
:1028C00050280895CF92DF92EF92FF926B017C0126
:1028D0000E944E14B701A60188E090E00E946E2885
:1028E000FF90EF90DF90CF900895EBEDF2E083E062
:1028F000808311828FEF8283838314826081718150
:10290000828193810E94621408958091DB0280FF8E
:1029100002C08695089580E008959091DF0293307B
:1029200018F49F5F9093DF02882351F06091DB02DF
:102930007091DC028091DD029091DE020E946214AF
:10294000089581E00E948D1408959091DF029923EB
:1029500019F091509093DF02882351F06091DB02CF
:102960007091DC028091DD029091DE020E9462147F
:10297000089581E00E94A514089570E00E94771ADE
:102980000895609106018091DB0280FF0BC0809169
:10299000050123E0829FC001112480529D4F0E94B7
:1029A000BD140895809107019091080123E0829F52
:1029B000F0011124E052FD4F891748F7118210826F
:1029C00012828F5F3396F8CF9091DB0290FF0EC09A
:1029D000909107012091080133E0939FF0011124A9
:1029E000E052FD4F921718F00E94C11408958183A0
:1029F000608342839F5F3396F5CFA3E0B0E0E3E0CE
:102A0000F5E10C94FB279091DB0290FF0AC09E0138
:102A10002F5F3F4F0E9440144B8169818A810E9441
:102A2000E4142396E2E00C941728CF93DF93EC0193
:102A3000EC81F0E0EA57FD4F4491EBEDF2E062816A
:102A400081810E94FD148C818F5F8C83DF91CF91F7
:102A50000895CF93DF93EC01EBEDF2E043816281C7
:102A60008C810E94FD148C818F5F8C83DF91CF91CC
:102A70000895A3E0B0E0EFE3F5E10C94F9278C01B1
:102A80008091870281110AC09E012F5F3F4F4FEF57
:102A90006FEF0E9440148A8180938702F80164815D
:102AA000613069F08091870240E0662361F040E088
:102AB000623011F44091870280E060E004C06091D0
:102AC000870240E080E00E94E414F801848190E0F5
:102AD000019663E070E00E947E2784832396E4E001
:102AE0000C941528A3E0B0E0E8E7F5E10C94F42796
:102AF000082FD62EE42EC22E9091DB0290FF29C023
:102B0000E92FE695AE2FB0E0A956BE4F8C91809389
:102B100091029E7F923009F59E012F5F3F4F802FDB
:102B20000E9440144B8169818A810E94E4140093C1
:102B3000DC02D092DD02E092DE02CC2051F0609106
:102B4000DB027091DC028091DD029091DE020E9436
:102B500062142396E9E00C941028823019F4E09076
:102B6000DE02E5CF863019F40091DC02E0CF893037
:102B7000D9F38931E1F6E9516E2F6170B62EE695F1
:102B8000F0E0EA57FC4F1491F12C60910901F61620
:102B900018F00E94C114CBCFF19EC001112470E047
:102BA0000E946A27802FB11014C0860F2091070160
:102BB000622F6F0D7727771F9B01220F331F260F80
:102BC000371F20523D4F4E2D6D2D0E944014F3941F
:102BD000DCCF861BEBCFEBEDF2E09181282F438118
:102BE00062818CE0890F0E947215089581E00E9435
:102BF000EB150895EBEDF2E09181282F438162817E
:102C000084EF890F0E947215089581E00E94FA15E1
:102C10000895EBEDF2E0628129E1620F08F46FEFB5
:102C2000282F438181810E947215089581E00E94BE
:102C300009160895EBEDF2E0628129E1621B08F4C8
:102C400060E0282F438181810E947215089581E000
:102C50000E941A160895EBEDF2E043812CE0420F3A
:102C600008F44FEF282F628181810E947215089528
:102C700081E00E942B160895EBEDF2E043812CE0F9
:102C8000421B08F440E0282F628181810E94721566
:102C9000089581E00E943C16089520E00E9472157C
:102CA0000895EF92FF921F93CF93DF93EC0110E012
:102CB000EE24EA94F12C60910901161770F00E943D
:102CC000C1149A818C8190FF27C08F5F8C83DF9124
:102CD000CF911F91FF90EF90089520910701422F0F
:102CE000410F5527551FCA019A01220F331F280F84
:102CF000391F20523D4F70E0C7010E947E27962F5A
:102D00008C814091DE026091DD02199F800D1124BB
:102D10000E9440141F5FCFCF8150D8CFB0E0A0E019
:102D2000E4E9F6E10C94F327FC0182810FEF80FFC8
:102D300001E010E04EE0A42E80910901181798F0F0
:102D40000E94C11480918902013009F04FC08111A5
:102D500002C080910901815080938902CDB7DEB70E
:102D6000EAE00C940F28C0910701C12ED12CCC0DA4
:102D7000DD2DD11DCE01880F991FC80FD91FC0525C
:102D8000DD4F198218821A8234E0E32EF12CB12C27
:102D9000809189028B0D8F301CF16A2D0E945C2777
:102DA000892F082E000C990BC816D90691F4809132
:102DB000DE028E9DA0018F9D500D112455954795E3
:102DC000559547959E016091DD028091DC020E943D
:102DD0004014B00EF1E0EF1AF108D1F61F5FACCF4E
:102DE00087FFDFCF90910901890FDBCF90E001963B
:102DF0006091090170E00E947E27AECF0F931F9370
:102E0000CF93DF93809107019091080123E0829F87
:102E1000F0011124E052FD4F891740F1C0E0D3E0EA
:102E200060910901C61740F10E94C114209103016D
:102E300080918802820F8093880290910401920F02
:102E400090930401191654F4082E000C990B40912C
:102E500009014150550B841795071CF021952093CB
:102E60000301DF91CF911F910F910895118210827C
:102E700012828F5F3396D0CF0C2F10E070E0C80124
:102E80000E947E2720910701820F482F50E0209159
:102E90008802022E000C330B02171307BCF020919E
:102EA0000401022E000C330B201731077CF08D9F9C
:102EB0009001112420523D4F4091DE026091DD02CD
:102EC0008091DC020E944014CF5FAACFFA01EE0F7E
:102ED000FF1FE40FF51FE052FD4F11821082128296
:102EE000F3CFB0E0A0E0E7E7F7E10C94F127EC01C5
:102EF0004C81042F10E09801D8010E94C2279B0149
:102F0000AC010E94D8274B015C01E0E2F0E0E01B3D
:102F1000F10BA5E5B0E0AC019B010E94D8276B0145
:102F20007C019F01DF010E94BA279B01AC010E9436
:102F3000E3279B01AC01280D391D4A1D5B1DC7010C
:102F4000B6010E949227F22E822F90E039E23F15BF
:102F500020F143E0249F9001112435952795122FED
:102F6000109500E085E5E82EEF188091090108171B
:102F700018F10E94C1149C8181E0992319F09032CC
:102F800019F48FEF8093020180910201890F8C83E5
:102F9000CDB7DEB7ECE00C940D2825E530E0B901A3
:102FA000681B790B9B01220F331F260F371F37FF3A
:102FB000D4CF2F5F3F4FD1CF8E2D01FD8F2D20918C
:102FC0000701622F600F7727771F9B01220F331FA6
:102FD000260F371F20523D4F412F6091DD020E9486
:102FE00040140F5FC2CF0F931F93CF93DF93EC0179
:102FF00010E000E0909109019017110609F06CF4BF
:103000000E94C1148C8190E00196817099278C8375
:10301000DF91CF911F910F91089520910701A80191
:10302000420F511D9A01220F331F240F351F2052CA
:103030003D4F4C816091DD028091DC0296959017A6
:10304000110651F04CF0442349F04091DE020E94F9
:1030500040140F5F1F4FCECF4423B9F340E0F7CFAA
:10306000EBEDF2E080818E7F8083608171818281CF
:1030700093810E946214109292022FEF80E792E0F7
:10308000215080409040E1F700C000000E94C11430
:1030900008956091DB02669570E04BE050E08AE0B5
:1030A00091E00E942E28892B19F481E080939202EE
:1030B0000E94322090938B0280938A02089590910F
:1030C000DB0290FF2BC09170811129C09260909318
:1030D000DB02662351F06091DB027091DC0280918B
:1030E000DD029091DE020E9462146091DB0266951F
:1030F00070E04BE050E08AE091E00E942E28892B9E
:10310000A9F01092920281E080938D024091DE023C
:103110006091DD028091DC020E944D160895853297
:1031200010F09864D4CF880F982BD1CF0E94491803
:10313000EACF682F9091DB02969581E0890F853266
:1031400008F081E00E945F18089581E00E949918BC
:103150000895682F9091DB0296958FEF890F09F4FF
:1031600084E20E945F18089581E00E94A9180895E2
:1031700061E00E945F180895EBEDF2E080818160CC
:10318000808386950E94B81808958091DB0280FFA5
:1031900003C00E94301808950E94BC18089560E092
:1031A0000E945F1808958091900281112EC00E94A4
:1031B000A00E811104C00E944D0F0E9475140E9440
:1031C0005D146093DB027093DC028093DD029093C8
:1031D000DE026E7F61F40E9475140E945D1460939C
:1031E000DB027093DC028093DD029093DE020E948A
:1031F0004E14109292028091DB0280FF03C08695EC
:103200000E94CF1881E08093900208950F931F933E
:10321000CF93DF93809192028823B9F1809191023C
:10322000E091DB02E695E81BE0938C02823091F599
:10323000F0E0EE57FD4FE491CE2FD0E005E115E12F
:1032400080918D02882361F010928D020E943220BD
:1032500090938B0280938A0210928F0210928E02BA
:103260000E943220E0918A02F0918B028E1B9F0B0C
:103270008F3F9F4750F4EC0FFD1FF0938B02E093BC
:103280008A028AE892E0F8010995DF91CF911F91B7
:103290000F910895863049F4F0E0E158FD4FE49134
:1032A000CE2FD0E009E215E1CBCF893051F4E6957D
:1032B000F0E0E458FD4FE491CE2FD0E001E516E1B7
:1032C000BFCF8F3051F4E695F0E0E758FD4FE49121
:1032D000CE2FD0E00EE816E1B3CF853149F4F0E00F
:1032E000EA58FD4FE491CE2FD0E00EEF16E1A8CFC3
:1032F000C8E2D0E001E717E1883109F4A1CF8332B9
:1033000039F4E4E7F2E0C591D49109E315E198CFEF
:10331000C4EFD1E003EF17E1843209F491CFC0ED9F
:10332000D7E00CE314E18CCFFA01811101C0FB015D
:1033300009950895CF93DF93C82FD62F0E94851447
:103340008C1748F00E9485148D1728F40E94A51848
:10335000DF91CF9108958C2F0E94B818F9CF1F9359
:10336000CF93DF93EC01FB01128111117EC00E940B
:10337000AF0D8272CD3CFCE5DF0709F49CC008F07C
:1033800041C0C73CECE5DE0709F481C0D8F4C43C79
:103390009CE5D90709F471C030F4C33CDC4509F45D
:1033A00069C011E062C0C53C9CE5D90709F46AC058
:1033B00045E056E166EF75E1C63CDC4591F70E94B9
:1033C000941953C0CA3CFCE5DF0709F46AC068F4ED
:1033D000C83CECE5DE0709F45FC046E156E167E270
:1033E00076E1C93CDC4559F3DCCFCB3C9CE5D90701
:1033F00009F45CC049EB54E161EA74E1CC3CDC4582
:10340000F1F2CFCFC23DFCE5DF0709F465C098F4C7
:10341000CF3C9CE5D90709F457C008F451C0C03D22
:10342000FCE5DF0709F455C0C13DDC4509F0B9CF23
:103430006EE089E04BC0C53D9CE5D90709F452C058
:1034400058F4C33DFCE5DF0709F449C0C43DDC4541
:1034500009F0A7CF88E135C0C63D9CE5D90709F43E
:1034600044C0CE35DD4509F09CCF812FDF91CF914F
:103470001F9108950E94C518F8CF44EB58E165EA02
:1034800078E19DCF45EA58E164EB78E198CF46EFCB
:1034900055E165E076E193CF47E256E166E176E1FA
:1034A0008ECF49E456E168E376E189CF48E356E1FF
:1034B00069E476E184CF41EA54E169EB74E17FCFBE
:1034C00081E00E94B818D1CF65E082E00E949A198D
:1034D000CCCF68E086E0FACF64E18FE0F7CF67E118
:1034E00085E1F4CF62E289E1F1CF83E2EACF279A66
:1034F00045B14F7755B15068EFB7F8949B01220F53
:10350000331F260F371F280F391F2817390741F49B
:10351000EFBF8FE594E00197F1F700C00000089538
:10352000DC016D91CD0178E055B9000000C067FF66
:1035300045B9660F000000C000C000C045B900C01A
:103540007A9591F7E2CFCF93DF93EC0197FF0CC010
:10355000FB018281882341F00E94E41ACE019F770B
:103560000E945E1B0E94351B81E0DF91CF91089580
:1035700090910B03923071F48A3050F490E00996E8
:103580006AE070E00E947E27875A0E942E06089506
:103590008650FBCF0E94CA0408958CE090E00E9400
:1035A000482890E0B0E0A0E080930B0390930C03D8
:1035B000A0930D03B0930E03089560910B038CE06C
:1035C00090E00E945C2808950E94811E869581707B
:1035D000809310030E94811E817080930A03809162
:1035E0000B03813039F480911003882319F089E3AB
:1035F0000E942E060E94AF0D80930F030E94C20D01
:103600000E94D20D80910B03813089F0882359F0FC
:10361000823091F0843021F18FE39CE90197F1F73A
:1036200000C00000089582EE0E943705F5CF88E1C2
:1036300093E00E947E03F0CF80910A03811103C0C2
:1036400083E50E942E0682EE0E9437058FE39CE9F7
:103650000197F1F700C0000087E50E942E06DCCF3D
:1036600086EE0E942E0688E1F8CF80910B03813010
:1036700079F0882349F08230B1F08430E9F080910C
:103680000F030E94BF0D089582EE0E94C505F7CF7B
:103690008CE20E942E0680911003882381F389E337
:1036A0000E942E06ECCF82EE0E94C50580910A038F
:1036B0008111E5CF83E5F4CF88E2F2CF0F931F931A
:1036C000CF93DF938C01CCE0D0E0C8010C2E02C078
:1036D000969587950A94E2F78F700E94B81A2497FE
:1036E000CC3F8FEFD80789F7DF91CF911F910F91D2
:1036F00008950F931F93CF93DF93EC018B01FB0190
:103700008281882361F00E94AF0DCE01825E9C45CC
:103710008530910520F480930B030E94DD1AB801D7
:10372000CE010E94A31ADF91CF911F910F910895AE
:10373000CF93DF93EC01FB018281882309F433C12D
:10374000C430FDE5DF07C0F5CB3F9CE5D90730F479
:103750009E0122503C4524313105B0F50E94B50E42
:103760009093C6028093C502C1318CE5D80709F455
:10377000EEC008F069C0C930ECE5DE0709F4D5C039
:10378000C8F5C5308CE5D80709F4C7C000F5C330CB
:10379000ECE5DE0709F4B9C008F0BBC0C230DC4577
:1037A00009F4ADC08091C5029091C6020E94C30E7B
:1037B0000E94AF0880E008C0C236EDE5DE0771F276
:1037C000C63AFDE5DF0751F2DF91CF910895809170
:1037D000C5028062C7309CE5D90709F493C0809187
:1037E000C5028061C830DC4508F48CC08091C502F8
:1037F000806488C08091C5028B7FCD30FCE5DF07F7
:1038000009F480C098F48091C5028E7FCB309CE58E
:10381000D90709F477C08091C5028C60CC30DC45B3
:1038200008F470C08091C5028D7F6CC08091C50284
:103830008F7ECF30FCE5DF0709F464C008F47BC05D
:103840008091C5028F7D5EC0CE3F9CE5D90709F40B
:103850007AC050F5C531FCE5DF0709F486C098F45D
:103860008091C502837FC3319CE5D90709F44AC022
:1038700008F471C00E94AF089091C502892F97FB90
:1038800087F980583FC0CC3FFCE5DF0709F449C009
:1038900008F055C08091C6028160CB3FDC4509F03D
:1038A00081CF8093C6027ECFC230EDE5DE0709F4FA
:1038B00068C0A8F4C1158DE5D80709F452C08091FD
:1038C000C6028360C130DD4560F38091C602982F47
:1038D000909591708E7F892B90FB81F9E2CFC23653
:1038E000EDE5DE0709F451C0C63AFDE5DF0709F44E
:1038F00053C0C330DD4509F055CF80E043C080910F
:10390000C50281608093C5024DCF8091C50282605F
:10391000F9CF8091C5028460F5CF8091C50288609F
:10392000F1CF8091C6028260BCCF0E94AF08809127
:10393000C5028068E7CF8091C502877FE3CF809181
:10394000C6028E7FAECF8091C6028D7FAACF8091B6
:10395000C5028F7BD7CF0E94AF088091C5028F77B9
:10396000D1CF8091C6028C7F9CCF8091C50282FB13
:10397000992790F921E0922790FB82F990FB83F937
:10398000C1CF81E00E94500F0DCF9091C502892FC9
:103990008F7E94FF8061B6CF9091C502892F8E7F74
:1039A00090FF8160AFCF81E00FCF0F931F9341E075
:1039B00050E060E070E08A019B0104C0000F111F1D
:1039C000221F331F8A95D2F7C901B8010E94FD0852
:1039D0000E94AF081F910F910895EBEFE80FEF33AE
:1039E00008F05AC0F0E0E256F74D0C94B4270E945C
:1039F0004D0F81E0089580918302807F8093830240
:103A000081E08093930208950E94F903F2CF909190
:103A10008302892F8E7F90FF81608093830280FDD7
:103A2000E8CF817F80938302E4CF90918302892F36
:103A30008D7F91FF82608093830281FFDACF809136
:103A400083028160EFCF90918302892F8B7F92FF59
:103A500084608093830282FDF2CFCBCF909183026A
:103A6000892F877F93FF88608093830283FDE7CF50
:103A7000C0CF0E94AF089091C502892F97FB87F9AC
:103A800080588093C502B5CF80E00E94D51CB1CF8D
:103A90008953FBCF8D51F9CF80E0089580E00895E0
:103AA0000E944E1D0895CF93C82F809193028823C2
:103AB00031F0813099F01092930280E00DC00E94A5
:103AC000AF0D8232D1F78C2F0E944E1D811116C08E
:103AD0008C2F0E94ED1C8170CF9108950E94AF0D34
:103AE000823289F38C2F0E94501D811105C0C43190
:103AF00071F038F4CB3079F781E0EDCF81E090E0E0
:103B0000EACFC93221F0C833B9F380E0E4CF109294
:103B10009302FBCFCF93DF93EB0186319C4511F5E8
:103B20000E94AF0D9A81992399F08A7A91E009F465
:103B300090E090939402811109C089E20E94870D60
:103B40000E94F30D80E0DF91CF91089585E3F6CFD9
:103B500080919402811104C089E20E948F0DF0CF00
:103B600085E3FBCF81E0EFCF0F931F93CF93DF93DC
:103B7000C42FD22FFC0182818823C9F04093970281
:103B80000E943220909396028093950280E28C0FDF
:103B9000883040F4C77081E001C0880FCA95EAF709
:103BA0000E943706DF91CF911F910F9108951091D8
:103BB0009702141332C080919502909196020E9450
:103BC0004A20883C910548F5C0E2CD0F1D17B9F099
:103BD00080E2810F883040F4177081E001C0880FC7
:103BE0001A95EAF70E943E06C83048F481E09D2FFE
:103BF000977001C0880F9A95EAF70E943706802FC8
:103C00000E942E06C83070F6D77081E001C0880F80
:103C1000DA95EAF70E943E06C5CF80E28C0F883025
:103C200008F6C77081E001C0880FCA95EAF7F2CFA5
:103C30000F939C01CB01243F4CE5340759F1A8F4C4
:103C4000293DFCE53F0701F12A3D4CE53407D1F160
:103C5000283D3C4591F406E221EE41EE68ED7CE51D
:103C60000E94B41D80E00F910895263FFCE53F07B8
:103C7000E9F0B0F0273F3C45F9F0FC018281882350
:103C800039F110929702EFCF07E225EE45EE69ED8C
:103C90007CE5E6CF06E221EE40EE64EF7CE5E0CF86
:103CA00007E225EE44EE65EF7CE5DACF06E221EE91
:103CB00042EE66EF7CE5D4CF07E225EE46EE67EFF5
:103CC0007CE5CECF08E221E045EE6AED7CE5C8CF89
:103CD00081E0C9CF9093BD018093BC01089590937A
:103CE0009D0280939C020895E0919C02F0919D02B8
:103CF000309729F00190F081E02D0995089580E03A
:103D000008950E94741E0895E0919C02F0919D0216
:103D1000309799F020912101222359F02091C5027A
:103D200027FF07C0DC012C9111962C93119726E0F8
:103D30002C930280F381E02D0995089520919A0239
:103D400030919B022817390771F090939B02809362
:103D50009A02E0919C02F0919D02309721F006803A
:103D6000F781E02D099508952091980230919902EC
:103D70002817390771F09093990280939802E09187
:103D80009C02F0919D02309721F00084F185E02D96
:103D900009950895FC01329680912101882321F034
:103DA0008091C5029EE187FF96E080E0915008F483
:103DB000089521912223D1F38F5FF8CF662301F17B
:103DC000209121012223F1F02091C50227FF1AC082
:103DD000462F4695469546954E3190F4677021E002
:103DE00030E002C0220F331F6A95E2F7840F911D65
:103DF000FC01828190E02823392381E0232B69F4A0
:103E000080E00895FC01329608962191261721F052
:103E1000E817F907D1F7F4CF81E008959C01FC0180
:103E200032969FEF80E04191461751F09F3F19F481
:103E3000411101C0982F8F5F8630A9F79F3F09F489
:103E40000895290F311D97FD3A95F9016283089570
:103E5000FC01329608962191261303C0DF011197C9
:103E60001C92E817F907B9F70895E62FE695E6954D
:103E7000E695EE3168F4E80FF92FF11D677021E047
:103E800030E001C0220F6A95EAF78281822B82839B
:103E90000895E62FE695E695E695EE3170F4E80F85
:103EA000F92FF11D677021E030E001C0220F6A9503
:103EB000EAF7209582812823228308952091210109
:103EC000222339F02091C50227FF03C00E94351F2D
:103ED00008950E940E1F089520912101222339F098
:103EE0002091C50227FF03C00E94491F08950E9428
:103EF000281F0895FC01329680912101882351F0FA
:103F00008091C50287FF06C08EE1DF011D928A9570
:103F1000E9F7089586E0F9CF08950E948C1F08956F
:103F2000811106C081E080939E020E948D1F08953A
:103F300082E0F9CF83E080939E020E948D1F089556
:103F40000E94901F089581E080939E020E948D1F21
:103F500008950E94A31F0895089508950E94AD1F1B
:103F60000895089508950E94AC1F0895CF930E946C
:103F7000B11F0E9415130E94B21FC0E08C2F0E9437
:103F80004612892B31F4CF5FC530C1F780E0CF9165
:103F9000089581E0FCCF85B7806885BF85B78068CC
:103FA00085BF08951F921FB61F9211248F939F9370
:103FB000AF93BF9380919F02811113C08091110331
:103FC00090911203A0911303B09114034196A11D87
:103FD000B11D8093110390931203A0931303B09328
:103FE0001403BF91AF919F918F911F901FBE1F909F
:103FF000189580911903843031F10E946304109266
:104000009F0288E190E020E40FB6F894A895809391
:1040100060000FBE2093600083B7817F846083BF00
:1040200083B7816083BF7894889583B78E7F83BF81
:104030000FB6F894A8958091600088618093600025
:10404000109260000FBE08950E94AF080E9468049D
:10405000089582E084BD93E095BD9AEF97BD80936B
:104060006E0008952FB7F894809111039091120378
:10407000A0911303B09114032FBF08952FB7F894A4
:1040800060911103709112038091130390911403B6
:104090002FBF08959C014FB7F89480911103909120
:1040A0001203A0911303B09114034FBF821B930B13
:1040B000089578941F921FB61F9211248F939F9397
:1040C000AF93BF938091110390911203A0911303BA
:1040D000B09114030196A11DB11D8093110390931B
:1040E0001203A0931303B0931403BF91AF919F9158
:1040F0008F911F901FBE1F90189581E08093E00064
:1041000080E28093D8001092C9008FE19EE401976D
:10411000F1F700C0000087E090EBDC018093220300
:1041200090932303A0932403B093250388E19CE09C
:104130000FB6F894A895809360000FBE909360002E
:10414000FFCF88E19CE00FB6F894A89580936000BB
:104150000FBE90936000FFCF8091C3020895089531
:10416000CF93DF93EC01809121018823B1F18091FD
:10417000C50287FF32C060E282E08093E9008FEFE2
:104180009091E800815095FD06C095ED9A95F1F764
:1041900000008111F5CF8091E80085FF1BC0809160
:1041A000210170E050E040E0811104C050E040E0A7
:1041B00068E070E0CE010E94D5228091E8008E7701
:1041C0008093E80080E2FE01A3EAB2E001900D9244
:1041D0008A95E1F7DF91CF91089568E081E0CDCF36
:1041E0008093A0027093A2026093A10280911903B0
:1041F000843001F582E08093E9008FEF9091E80030
:10420000815095FD06C095ED9A95F1F7000081115A
:10421000F5CF8091E80085FF0DC050E040E063E0FD
:1042200070E080EA92E00E94D5228091E8008E77CB
:104230008093E8000895BC0184E00E94F020089576
:10424000BC0183E00E94F020089508958091180336
:10425000811109C00E9465240E94C2248091E2005D
:1042600084608093E20008951092180308950E94DC
:10427000A31F08956091150381E0611101C080E0E2
:104280000E949A1F08959091190381E0943009F0DB
:1042900080E0609115030E94A01F089542E061EC48
:1042A00081E00E94E12342E261EC82E00E94E1238E
:1042B0009091190381E0943009F080E0609115033A
:1042C0000E94901F089580911B03833009F461C000
:1042D00030F48130D1F1823009F49EC008958A30E3
:1042E00009F48AC08B3009F46FC0893009F050C0DE
:1042F00080911A03813209F04BC080911E03909186
:104300001F03029708F044C08091E800877F8093E4
:10431000E8008091E80082FF37C09091F30080911F
:10432000F200029731F48091F100813011F0863073
:1043300021F48091F1008093C3028091E8008B7793
:104340008093E8000E94152423C080911A03813ACB
:10435000F9F48091E800877F8093E80080911E0344
:1043600090911F03892B61F460E283EA92E070E090
:104370000E9424238091E8008B778093E8000895C1
:1043800060E090E080E0F3CF809119038111C1CF0C
:10439000089580911A03813AD9F780911E03909174
:1043A0001F03892BA9F78091E800877F8093E8009D
:1043B0008091E80080FFFCCF809121018093F10083
:1043C0008091E8008E77BCCF80911A03813201F78B
:1043D00080911E0390911F03892BD1F68091E800F4
:1043E000877F8093E8000E94152480911C038093AE
:1043F00021010E94AF08089580911A03813241F68D
:104400008091E800877F8093E8000E9415248091C6
:104410001D038093C402089580911A03813A09F024
:10442000B7CF8091E800877F8093E8008091E80013
:1044300080FFFCCF8091C402C1CF84B7877F84BF47
:104440000FB6F894A8958091600088618093600011
:10445000109260000FBE80E890E00FB6F894809351
:104460006100909361000FBE0E94A91F08950E94F1
:1044700065240E94C224E2EEF0E0808184608083A3
:1044800078940E944127089585E191E00E946F1E73
:10449000089580911903853031F480911903853096
:1044A00019F00E94242008950E94F91F809117039B
:1044B000882399F30E94B61F882379F30E94BF22B4
:1044C0000E94AF08EACF08950E9467220895292F1D
:1044D00033272330310519F168F42130310509F40F
:1044E00044C02230310509F445C090E080E030E05E
:1044F00020E025C02132310549F122323105A9F7EA
:1045000080E490E029E735E061157105C1F08DE6A2
:1045100090E02CE035E06130710589F0E6CF992715
:104520008130910581F0009729F00297F1F6EBE8D0
:10453000F4E002C0EBEBF4E0849190E09F01FA011B
:10454000318320830895E1EAF4E0F6CF89E090E03A
:1045500021ED34E06115710591F389E090E02AEED8
:1045600034E06130710559F3C0CF82E190E02AEF69
:1045700034E0E5CF8BE390E02FEB34E0E0CF80E157
:1045800089BD82E189BD09B400FEFDCF8091D800CC
:104590008F7D8093D8008091E00082608093E0005E
:1045A0008091E00081FDFCCF0895AF92BF92CF9241
:1045B000DF92FF920F931F93CF93DF936C01EB0178
:1045C0008A010E943424F82E811123C0011511059F
:1045D00039F0F80180819181C81BD90BC80ED91E12
:1045E000B12CA12C2097A9F08091E80085FD22C074
:1045F0008091E8008E778093E80001151105A1F005
:10460000F80180819181A80EB91EB182A08285E057
:10461000F82E8F2DDF91CF911F910F91FF90DF909A
:10462000CF90BF90AF9008950E9434248823D1F298
:10463000F82EEFCFF60181916F018093F100219761
:10464000FFEFAF1ABF0ACECFFC01809120039091FB
:10465000210386179707A0F06115710529F4909141
:10466000E8009E779093E80090E06115710551F4A1
:10467000911108C08091E80082FF34C080E0089565
:10468000BC01F2CF809119038823C1F18530C1F1BB
:104690008091E80083FD30C08091E80082FDEACF80
:1046A0008091E80080FFE1CF8091F3002091F2003B
:1046B000382F6115710519F02830310558F091E057
:1046C0002830310509F090E02091E8002E77209302
:1046D000E800CBCF81918093F100615071092F5F89
:1046E0003F4FE7CF80911903882341F0853041F097
:1046F0008091E80083FFBECF81E0089582E00895B5
:1047000083E00895FC018091200390912103861796
:104710009707A0F06115710529F48091E8008E7764
:104720008093E80090E06115710551F4911108C083
:104730008091E80082FF35C080E00895BC01F2CF8F
:10474000809119038823C9F18530C9F18091E8006F
:1047500083FD31C08091E80082FDEACF8091E800BE
:1047600080FFE1CF8091F3002091F200382F611596
:10477000710519F02830310558F091E028303105E5
:1047800009F090E08091E8008E778093E800CBCF2D
:1047900084918093F1003196615071092F5F3F4FF2
:1047A000E6CF80911903882341F0853041F0809154
:1047B000E80083FFBDCF81E0089582E0089583E0A3
:1047C0000895982F973028F08F708093E90081E04A
:1047D00008959093E900242F762F50E0981731F038
:1047E0007091EC002091ED005091F00021FD02C08D
:1047F0009F5FE8CF3091EB003E7F3093EB0030912C
:10480000ED003D7F3093ED003091EB00316030934F
:10481000EB007093EC002093ED005093F00020919A
:10482000EE0027FDE5CF80E0089580911A0387FF11
:1048300013C08091E80082FF06C08091E8008B776A
:104840008093E80004C0809119038111F2CF08958C
:10485000809119038823D9F38091E80080FFF8CF75
:104860008091E8008E77ECCF2091E4003091E50054
:1048700095E6A9012091EC00822F817020FF06C0EF
:104880008091E80080FF06C080E008952091E80054
:1048900022FD1AC080911903882389F0853089F0A0
:1048A0008091EB0085FD0FC02091E4003091E50080
:1048B00042175307F9F29150E1F684E0089582E03F
:1048C000089583E0089581E008950E94D4240E9411
:1048D000DC24E0EEF0E0808181608083E8EDF0E0B0
:1048E00080818F77808319BCA7EDB0E08C918E7F9B
:1048F0008C9380818F7E80831092180308950F938C
:104900001F93CF93DF930E94D4240E94DC24C8ED30
:10491000D0E088818F7788838881806888838881C8
:104920008F7D888319BC1092190310921503109281
:1049300017031092160300EE10E0F80180818B7FC0
:10494000808388818160888342E060E080E00E940B
:10495000E123E1EEF0E080818E7F8083E2EEF0E003
:10496000808181608083808188608083F80180817C
:104970008E7F8083888180618883DF91CF911F91B2
:104980000F910895E8EDF0E080818F7E8083E7ED60
:10499000F0E080818160808384E082BF81E0809349
:1049A00018030E947F240895E8EDF0E080818E7F57
:1049B00080831092E20008951092DA001092E100D4
:1049C00008951F920F920FB60F9211242F933F93C9
:1049D0004F935F936F937F938F939F93AF93BF9307
:1049E000EF93FF938091E10082FF0BC08091E20082
:1049F00082FF07C08091E1008B7F8093E1000E94DD
:104A000040278091DA0080FF19C08091D80080FF94
:104A100015C08091DA008E7F8093DA008091D900F2
:104A200080FF96C080E189BD82E189BD09B400FEA6
:104A3000FDCF81E0809319030E9426218091E1003F
:104A400080FF19C08091E20080FF15C08091E200D4
:104A50008E7F8093E2008091E20080618093E2008B
:104A60008091D80080628093D80019BC85E0809343
:104A700019030E943A218091E10084FF2BC08091AC
:104A8000E20084FF27C080E189BD82E189BD89B54C
:104A9000982F917080FFFBCF8091D8008F7D8093FD
:104AA000D8008091E1008F7E8093E1008091E20048
:104AB0008F7E8093E2008091E20081608093E2002B
:104AC00080911503882309F449C084E08093190379
:104AD0000E9443218091E10083FF29C08091E20080
:104AE00083FF25C08091E100877F8093E10082E011
:104AF00080931903109215038091E1008E7F8093BB
:104B0000E1008091E2008E7F8093E2008091E200DC
:104B100080618093E20042E060E080E00E94E12357
:104B20008091F00088608093F0000E943721FF910F
:104B3000EF91BF91AF919F918F917F916F915F9115
:104B40004F913F912F910F900FBE0F901F9018958E
:104B500019BC109219030E94342170CF8091E30098
:104B600087FD93E090931903B3CF1F920F920FB676
:104B70000F9211242F933F934F935F936F937F93E3
:104B80008F939F93AF93BF93CF93DF93EF93FF9355
:104B9000D091E900DF708091EC00C82FC17080FDDA
:104BA000C0E81092E9008091F000877F8093F000C8
:104BB00078940E94F9251092E9008091F0008860B5
:104BC0008093F000CD2BCF70C093E900FF91EF915F
:104BD000DF91CF91BF91AF919F918F917F916F9115
:104BE0005F914F913F912F910F900FBE0F901F90AB
:104BF0001895AAE2B0E0EFEFF5E20C94FA278AE10B
:104C000093E02091F100FC012193CF01F3E0823287
:104C10009F07B9F70E9463218091E80083FF1EC1BE
:104C200080911A0390911B039A3008F017C1E92F65
:104C3000F0E0E352F74D0C94B427803899F08238B5
:104C400009F00CC180911E038F70873008F006C1F7
:104C50008093E9008091EB0085FB882780F9109212
:104C6000E90006C0809116039091170391118260AC
:104C70009091E800977F9093E8008093F100109264
:104C8000F1008091E8008E77E5C0882309F4D3C055
:104C9000823009F0E3C080911C038111D6C080915D
:104CA0001E038F702FEF280F263008F0D7C0809397
:104CB000E9002091EB0020FFC8C0933031F48091CF
:104CC000EB0080628093EB00C0C09091EB0090619C
:104CD0009093EB0021E030E001C0220F8A95EAF7C3
:104CE0002093EA001092EA008091EB008860EACFFE
:104CF0008111B4C010911C031F778091E30080786C
:104D0000812B8093E3008091E800877F8093E80007
:104D10000E9415248091E80080FFFCCF8091E30081
:104D200080688093E30082E0111183E0809319038F
:104D300095C08058823008F091C080911C039091FA
:104D40001D038C3D23E09207A1F583E08A838AE26C
:104D500089834FB7F894DE01139620E03EE051E2DC
:104D6000E32FF0E050935700E49120FF03C0E29559
:104D7000EF703F5FEF708E2F90E0EA30C0F0C79683
:104D80008D939D932F5F243159F74FBF8091E80099
:104D9000877F8093E8006AE270E0CE0101960E946E
:104DA00024238091E8008B778093E80057C0C09659
:104DB000E7CF60911E0370911F03AE014F5F5F4FFD
:104DC0000E946422BC01892B09F448C09091E8003C
:104DD000977F9093E80089819A810E948223E1CF96
:104DE0008038E1F58091E800877F8093E80080912A
:104DF00015038093F10045CF811130C090911C03C1
:104E0000923060F58091E800877F8093E80090936E
:104E100015030E94152480911503882311F084E066
:104E200005C08091E30087FDFACF81E080931903EC
:104E30000E944E2113C080911C03813079F481E0DF
:104E4000933009F080E0809317031092E90080917D
:104E5000E800877F8093E8000E9415248091E80095
:104E600083FF0AC08091E800877F8093E8008091EB
:104E7000EB0080628093EB00AA96E3E00C94162886
:104E80000895CF93809119038823A1F0C091E90080
:104E9000CF709091EC00892F817090FD80E8C82B35
:104EA0001092E9008091E80083FD0E94F925CF70FF
:104EB000C093E900CF91089587FB082E062687FD51
:104EC000819567FD61950E9422280EF4919507FC5B
:104ED00081950895AA1BBB1B51E107C0AA1FBB1FE8
:104EE000A617B70710F0A61BB70B881F991F5A9576
:104EF000A9F780959095BC01CD01089597FB072EE9
:104F000016F4009407D077FD09D00E946A2707FCA9
:104F100005D03EF4909581959F4F089570956195C9
:104F20007F4F0895A1E21A2EAA1BBB1BFD010DC0E5
:104F3000AA1FBB1FEE1FFF1FA217B307E407F50749
:104F400020F0A21BB30BE40BF50B661F771F881F25
:104F5000991F1A9469F760957095809590959B01BB
:104F6000AC01BD01CF010895EE0FFF1F0590F49134
:104F7000E02D09940E94C227332312F48A1B9B0B55
:104F80000C94D327A29FB001B39FC001A39F700DC3
:104F9000811D1124911DB29F700D811D1124911D41
:104FA00008950E94C227B7FF0895821B930B0895AE
:104FB0000E94C227A59F900DB49F900DA49F800DC5
:104FC000911D11240895B7FF0C94D8270E94D8276B
:104FD000821B930B08952F923F924F925F926F9294
:104FE0007F928F929F92AF92BF92CF92DF92EF9279
:104FF000FF920F931F93CF93DF93CDB7DEB7CA1BFA
:10500000DB0B0FB6F894DEBF0FBECDBF09942A8824
:10501000398848885F846E847D848C849B84AA84CC
:10502000B984C884DF80EE80FD800C811B81AA8159
:10503000B981CE0FD11D0FB6F894DEBF0FBECDBF24
:10504000ED010895991B79E004C0991F961708F0A7
:10505000961B881F7A95C9F780950895FC014150E9
:10506000504030F001900616D1F73197CF010895E6
:10507000882799270895FB01DC0104C08D910190D8
:10508000801921F441505040C8F7881B990B0895AE
:10509000F999FECF92BD81BDF89A992780B5089500
:1050A000A6E1B0E044E050E00C948228A8E1B0E032
:1050B00042E050E00C948228262FF999FECF92BD51
:1050C00081BDF89A019700B4021639F01FBA20BDCD
:1050D0000FB6F894FA9AF99A0FBE08950396272FFF
:1050E0000E945D280E945C28252F0E945D28242FA5
:1050F0000C945D280196272F0E945D280C945C2853
:10510000DC01CB01FC01F999FECF06C0F2BDE1BD87
:10511000F89A319600B40D9241505040B8F7089576
:10512000F894FFCF80068006B106B1063E07E00680
:10513000E006E0065A07E607F507F507041DFB1C25
:10514000071DF91C4C1D4C1DF91C4C1D4C1D231D2D
:105150004C1D2E1D391D4C1D4C1D4C1D4C1DF91C8C
:105160004C1D4C1DF91C4C1D151D4C1D4C1D4A1D84
:105170004A1D4A1D4A1D4A1D4A1D4A1D4A1D4A1DF7
:10518000441D4C1D041DF71C4C1D4C1D4C1D4C1D7D
:105190004C1D4C1D4C1D4C1D4C1D4C1D441D4C1DCF
:1051A0004C1DF91C4C1D481D481D481D481D481D1F
:1051B000481D481D481D481D441D1D2645262E27F7
:0E51C00045262E27782699262E27F026FC2637
:1051CE004F02010102000E000E0E01191A1B1C1DCA
:1051DE001E1F202122AC20B020252120211B21AF13
:1051EE002001E200E900EA00B500B600B700CD00EC
:1051FE008301CC008A019201940121022302240230
:10520E002502260227022A02B300B4006F007000A6
:10521E00818283E200E900EA00B500B600B700CD56
:10522E00008301CC008A0192019401210223022401
:10523E00022502260227022A02B300B4006F007074
:10524E0000818283F76766363534979694959392EC
:10525E009190F0F1F4F5F600010202020206060644
:10526E000909090909090F0F0F0F0F0F1515151849
:0C527E00191919191919191919192324E3
:00000001FF
