:100000000C9497020C94CF020C94CF020C94CF0264
:100010000C94CF020C94CF020C94CF020C94CF021C
:100020000C94CF020C94CF020C949B240C946F255B
:100030000C948C1F0C94CF020C94CF020C94CF0222
:100040000C94CF020C94CF020C94CF020C94CF02EC
:100050000C94CF020C9413200C94CF020C94CF027A
:100060000C94CF020C94CF020C94CF020C94CF02CC
:100070000C94CF020C94CF020C94CF020C94CF02BC
:100080000C94CF020C94CF020C94CF020C94CF02AC
:100090000C94CF020C94CF020C94CF020C94CF029C
:1000A0000C94CF020C94CF020C94CF0229001E00B6
:1000B0001F0020002100220023002400250026002C
:1000C00027002D002E002A002B0014001A00080023
:1000D000150017001C0018000C00120013002F0060
:1000E00030003100390004001600070009000A0042
:1000F0000B000D000E000F0033003400000028003C
:10010000E1001D001B000600190005001100100091
:1001100036003700380052000000E5000000005CA7
:10012000E000E200E3002C0000002C000000E700EB
:10013000500051004F0000000000000000000000CF
:100140002A2B280000000000000000000000000032
:1001500000000029000000002C1E3420212224343D
:100160002627252E362D3738271E1F20212223240F
:1001700025263333362E37381F0405060708090AAB
:100180000B0C0D0E0F101112131415161718191A47
:100190001B1C1D2F3130232D350405060708090AC5
:1001A0000B0C0D0E0F101112131415161718191A27
:1001B0001B1C1D2F3130354C0000000000000000DA
:1001C000000000000000000000000000000000002F
:1001D0000000000000000000000000007E0F00D4BE
:1001E000FFFFFFC70000007800047F3F1F64321448
:1001F000643214783C1E1E140A0522232526282961
:100200002A2C2D2F3032333536383A3B3D3E404292
:10021000434547494A4C4E5051535557595A5C5ED5
:100220006062646668696B6D6F71737577797B7DE9
:100230007F81838587898A8C8E90929496989A9CE8
:100240009E9FA1A3A5A7A8AAACAEAFB1B3B4B6B800
:10025000B9BBBCBEBFC1C2C3C5C6C7C9CACBCCCD62
:10026000CED0D1D2D2D3D4D5D6D7D7D8D9D9DADA3D
:10027000DBDBDBDCDCDCDCDCDDDDDDDDDCDCDCDCBD
:10028000DCDBDBDBDADAD9D9D8D7D7D6D5D4D3D2F1
:10029000D2D1D0CECDCCCBCAC9C7C6C5C3C2C1BFCF
:1002A000BEBCBBB9B8B6B4B3B1AFAEACAAA8A7A533
:1002B000A3A19F9E9C9A98969492908E8C8A8987EF
:1002C0008583817F7D7B79777573716F6D6B6968CD
:1002D000666462605E5C5A5957555351504E4C4AA1
:1002E0004947454342403E3D3B3A3836353332304C
:1002F0002F2D2C2A292826252322FFAA7F554000AE
:1003000001010101010101010102020202020202D6
:1003100002020303030303030303040404040404A9
:10032000040505050505060606060607070707076F
:1003300008080808090909090A0A0A0B0B0B0C0C22
:100340000C0D0D0D0E0E0E0F0F0F101011111112BE
:100350001213131414151516161717181819191A3D
:100360001A1B1B1C1D1D1E1E1F20202122222324A0
:1003700024252626272829292A2B2C2D2D2E2F30DF
:10038000313232333435363738393A3B3C3D3E3FF3
:10039000404142434445464748494A4C4D4E4F50E0
:1003A000515354555658595A5B5D5E5F616264659E
:1003B0006668696B6C6D6F7072737577787A7B7D28
:1003C0007E8082838587888A8C8E8F91939596987C
:1003D0009A9C9EA0A2A3A5A7A9ABADAFB1B3B5B798
:1003E000BABCBEC0C2C4C6C9CBCDCFD1D4D6D8DB6F
:1003F000DDDFE2E4E7E9EBEEF0F3F5F8FAFDFF14F8
:100400000342006F00610072006400770061006CBD
:10041000006B00000018037300680065006E007335
:10042000006D006F00620069006C00650000000450
:1004300003090409023B00020100A0FA09040000BC
:1004400001030101000921110100012240000705FB
:1004500081030800010904010001030000000921D3
:1004600011010001226D0007058203200001120125
:10047000000200000008CDCD375301000102000149
:1004800005010980A101850319012AB7001501267C
:10049000B700950175108100C0050C0901A1018507
:1004A0000419012AA002150126A0029501751081E8
:1004B00000C005010906A1018506050719E029E725
:1004C000150025019508750181020507190029EF1E
:1004D0001500250195F0750181020508190129050E
:1004E000950575019102950175039101C0050109FA
:1004F00006A101050719E029E715002501950875F2
:100500000181029501750881010507190029FF1570
:100510000026FF00950675088100050819012905C8
:10052000950575019102950175039101C000112493
:100530001FBECFEFDAE0DEBFCDBF04B603FE18C0AA
:100540008091220390912303A0912403B09125036D
:100550008730904BA740B04B59F410922203109271
:1005600023031092240310922503E0E0F8E3099599
:1005700011E0A0E0B1E0E2E4F1E502C005900D92E7
:10058000AC3BB107D9F723E0ACEBB1E001C01D9261
:10059000A232B207E1F70E9452130C944A280C943D
:1005A00000009C013A9521153F4150F5FC01EE27D2
:1005B000F170BC0166277270AC01442754709C0135
:1005C0002227387094FF0EC080E1EF2B09F480E001
:1005D000672B09F08062452B09F08064232B89F09A
:1005E0008068089581E0EF2B09F480E0672B09F023
:1005F0008260452B09F08460232B19F088600895F0
:1006000080E00895CF93DF93EB010E94D102FE01B9
:100610000995DF91CF910895CF93DF93EC01805E30
:100620009109089720F069E478E0209711F461EFD0
:1006300075E0CE010E9402038C2F0E94F104DF912D
:10064000CF910895CF93DF93EC010E947F05CE01F7
:10065000805E9109089720F060E578E0209711F41A
:1006600068EF75E0CE010E940203DF91CF910895FB
:10067000CF93DF93EC010E940C03C933D10549F4F9
:100680002FEF87EE93E0215080409040E1F700C0CB
:100690000000CE010E942203DF91CF91089581E0F6
:1006A000089581E008950E945103089508950E94DD
:1006B00056030895A5E0B0E0E0E6F3E00C94B4271B
:1006C00049835A833091BF0189819A81311119C0C0
:1006D000662399F0222389F00E943E0A182F682F82
:1006E00089819A810E941A0A69817A81812F0E94E8
:1006F000BD102596E3E00C94D0270E942C0A182FF9
:10070000F3CF0E943E0A69817A81F1CFFC01262F46
:10071000408151816281738184810E945A030895CE
:1007200081E00895CF93DF93EC0160E00E9486039F
:10073000BE010E945703DF91CF9108950E94F911E5
:1007400008950E94FD11089508950E9469080E946D
:10075000A4032FEF84E39CE0215080409040E1F718
:1007600000C0000008950E94A5030E94372008954C
:100770000E94A5030E945B2008950F931F93CF93BF
:10078000DF938C0161E00E948603EC01B8010E94B6
:100790005303811106C080E0DF91CF911F910F912B
:1007A0000895B801CE010E94331B8823A1F3B8013C
:1007B000CE010E94D21D882371F3B801CE010E94A0
:1007C000521B882341F3B801CE010E94441D8823A7
:1007D00011F3B801CE010E9469198823E1F2F801F2
:1007E0008281882361F0CB35FDE5DF0701F158F404
:1007F000C115ECE5DE0791F0CF3DDC4591F0C80175
:100800000E944F03C9CFCD358DE5D80769F090F030
:10081000C83ADD45A1F70E94B803BDCF0E94B303DB
:10082000BACF0E94070FF7CF0E94410EE8CF0E9477
:100830004B0EE5CF0E944F0EE2CF0E94681F0E9430
:10084000A20408950E94A6040E946D1F0895B0E0BE
:10085000A0E0EDE2F4E00C94B027E82FF0E0E85CD3
:10086000FE4FD490282F26952695269530E0F90145
:10087000E852FE4F0491877010E0082E02C01595D3
:1008800007950A94E2F701701127F901E853FE4F2A
:10089000E490F12C082E02C0F594E7940A94E2F754
:1008A00091E0E922FF24F901E854FE4FC491D0E021
:1008B00002C0D595C7958A95E2F7C170DD2701156D
:1008C000110519F081EE0E94F104E114F10419F010
:1008D00086EE0E94F1048D2D0E94E805E114F104DA
:1008E00019F086EE0E947F050115110519F081EEC1
:1008F0000E947F05CD2B19F08CE20E94E805CDB750
:10090000DEB7E7E00C94CC27982F9F709A50963072
:1009100020F0805D0E9427040895895AFBCF089536
:100920000E948F04089581E008950E949304089521
:100930000895CF93C82F0E9490048C2F0E94950495
:10094000CF91089580E00E94990408950E942E1E80
:100950000E94990408950E942E1E9091BE0198173E
:1009600021F08093BE010E9499040895ABE0B0E0AD
:10097000ECEBF4E00C94B5274F83588769877A87AE
:100980008B8761110E948C0D1E821D8285E0FE0105
:100990003796DE01119601900D928A95E1F78C81D0
:1009A0009D81892B61F449815A816B817C818D8184
:1009B0009E810E94B20C2B96E2E00C94D127898193
:1009C0009A8189238F3F79F3CE0101960E9490038B
:1009D0008111E9CFF0CFFC01808191810E94780ADA
:1009E0000895CF93C82F8823C9F08238C9F40E9494
:1009F0002E1E81FD13C089E30E94410D0E94AD0DA2
:100A00002FEF81EE94E0215080409040E1F700C04C
:100A1000000089E30E94490D0E94AD0DCF91089519
:100A20008338A1F40E942E1E80FDF8CF83E50E943A
:100A3000410D0E94AD0D2FEF81EE94E021508040DA
:100A40009040E1F700C0000083E5E4CF8438A1F4D2
:100A50000E942E1E82FDE2CF87E40E94410D0E947B
:100A6000AD0D2FEF81EE94E0215080409040E1F7F2
:100A700000C0000087E4CECF8CEF8C0F813AB8F431
:100A80008C2F0E940D1D8111C9CF6C2F8091000108
:100A9000909101010E94981E882329F08C2F0E94BA
:100AA000490D0E94AD0D8C2F0E94410DB5CF80E203
:100AB0008C0F883048F4C77081E001C0880FCA9558
:100AC000EAF70E946C0DA8CFEBE5EC0FE33040F4A1
:100AD000F0E0E05BFE4F808190E00E94581E9ECFC8
:100AE000C85AC73108F09ACFEC2FF0E0EE0FFF1F85
:100AF000EE5DFE4F808191810E946E1E8FCF882314
:100B000009F44DC0823879F40E942E1E81FF47C03F
:100B100089E30E94410D0E94AD0D89E30E94490DB9
:100B20000E94AD0D0895833859F40E942E1E80FF57
:100B300036C083E50E94410D0E94AD0D83E5EECFE6
:100B4000843859F40E942E1E82FF29C087E40E9437
:100B5000410D0E94AD0D87E4E1CF9CEF980F913AD3
:100B6000E8F290E2980F983050F4877091E001C05D
:100B7000990F8A95EAF7892F0E94720DD1CF9BE5D4
:100B8000980F933028F490E080E00E94581E08955A
:100B9000885A873120F490E080E00E946E1E08950C
:100BA0001F93CF93DF93182FEB010E94F10420973E
:100BB00039F4812F0E947F05DF91CF911F91089515
:100BC0008FE99FE00197F1F700C000002197EFCF78
:100BD00070E060E0893311F460E570E00E94D005B8
:100BE0000895882321F00E946C0D0E94AD0D089598
:100BF000882321F00E94720D0E94AD0D0895B0E08F
:100C0000A0E0E5E0F6E00C94AE276C01D62FC72FEC
:100C1000FC011281F580F2949FE0F9220E94620D9E
:100C2000E82E8823B9F0E12E1123A1F08C2F807FCC
:100C3000803421F080E28D0F8830D0F08091C602A0
:100C400082FF16C082E00E94100E0E94620D91E0A9
:100C5000E82EE926BC2EB2948FE0B822FBE0FB150B
:100C600008F468C0EB2DF0E0E45BF74D0C946E27C0
:100C7000E12CF0CF0C2F0F70C07F11F00295007F98
:100C8000112399F0002359F080E28D0F883010F085
:100C9000D11107C0802F0E946C0D0E94AD0D8D2FC9
:100CA00041C0802F0E947F0DF8CF8D2F0E947F05BD
:100CB000002309F43FC080E28D0F883010F0D1117D
:100CC00004C0802F0E94720D03C0802F0E94850DEA
:100CD0000E94AD0D2FC00C2F0F70C07FC03211F0DD
:100CE0000295007FDD2381F0D13009F463C0112328
:100CF00009F46DC0FF2009F463C0F601858180FF0F
:100D0000CECF8F7085835CC08091C60282FD33C0D8
:100D1000112359F0002329F0802F0E946C0D0E94AE
:100D2000AD0D80E00E94F10405C080E00E947F05C7
:100D30000111C7CFEB2DE850FF0B349720F40E9430
:100D40002E1E0E949904EE2089F00E945E0D80FD07
:100D50000DC0F60112820E94580D0E942209C601A0
:100D60000E941F080E94580D0E944409CDB7DEB7AB
:100D7000E9E00C94CA27112389F0F11006C00E9403
:100D80008F0D802B0E94F105D5CF21E0F212F7CF15
:100D90000E948F0D802B0E94960DCCCFF11006C0C3
:100DA0000E94A30D802F0E94F805C4CF31E0F316F6
:100DB00009F2F6CF112331F085E08F1508F4BACF90
:100DC000802FE0CF94E09F1508F4B4CFEBCFFF2045
:100DD00049F3D93349F4FFEF27EE33E0F1502040D7
:100DE0003040E1F700C000008D2F0E947F05A2CFA8
:100DF0008C2F86958695837069F0813009F09ACFA3
:100E00008D2F9C2F9370111102C090E080E00E9402
:100E10006E1E90CF8D2F9C2F9370111102C090E009
:100E200080E00E94581E86CF8C2F837009F041C04D
:100E3000111180CF4D2F429546954770440F440FB6
:100E40000D2F0F7010E030E020E0042E04C0000FE2
:100E5000111F221F331F0A94D2F760E070E0CB010C
:100E6000D4FF0FC06FE070E080E090E004C0660F38
:100E7000771F881F991F4A95D2F7609570958095C6
:100E80009095C695C695C370602B712B822B932BC2
:100E9000C23049F058F4C13019F00E94CD084ACF51
:100EA0000E94BA0847CF0E94E00844CF0E94B708CA
:100EB00041CF8695112311F08C2F8170882309F47E
:100EC00039CF4D2F429546954770440F440F0D2F53
:100ED0000F7010E030E020E0042E04C0000F111F5E
:100EE000221F331F0A94D2F760E070E0CB01D4FFD9
:100EF0000FC06FE070E080E090E004C0660F771FE5
:100F0000881F991F4A95D2F76095709580959095A6
:100F1000C695C695C370602B712B822B932BC23064
:100F200049F058F4C13019F00E949D0903CF0E9486
:100F30008A0900CF0E94B009FDCE0E94F908FACEBE
:100F4000CF70112329F08C2F0E9422098D2F1ACFE8
:100F50008D2F0E94F8058C2F0E944409EBCED23FC2
:100F600051F160F4D03FB9F0D13F81F0112309F481
:100F700049C0F11094CE8C2F8F7121C0D33F11F155
:100F8000D43FA1F78091C60282FD26C08C2F8F71BD
:100F9000112311F314C0112349F084E08F1508F4D4
:100FA000C9CE8C2F8F710E946809C4CE95E09F1521
:100FB00008F4C0CEF6CF8C2F8F711111CDCF0E94C7
:100FC0002209B8CE112329F08C2F8F710E940C09B1
:100FD000B1CE0E940609AECE112349F0CF718C2FFD
:100FE0000E94220963E08C2F0E94F20DA3CE81E0C3
:100FF0000E94100EE1E0EF1508F09CCE82E00E9406
:10100000100E98CEF110E5CE8C2F8F71A5CF0F93D7
:101010001F93CF93DF93EC01688179818A810E94CD
:10102000830A8C010E94C3090E94B608B801CE0150
:101030000E94FF05DF91CF911F910F910895CF93EB
:10104000DF93EC018B819C81892B29F08881998128
:1010500089238F3F51F4DF91CF910895CE010E94F3
:101060000708CE010E949203F6CFCE010E94BD0375
:101070008111F4CF0E94620D882369F38A8188234D
:1010800051F38091C60282FFE6CF82E00E94100EEB
:10109000E2CF882321F00E947F0D0E94AD0D0895BC
:1010A000882321F00E94850D0E94AD0D089590E0E7
:1010B00080E00E94581E90E080E00E946E1E0E9418
:1010C0008C0D0E94AD0D08950E94510D0E9457088D
:1010D00008950E947C0D0E946408089592959F7067
:1010E000963091F058F4925F9F70923058F4803FA0
:1010F00019F030F4883E30F481E008959A5FF4CF1F
:10110000843FD1F380E00895883EB0F3813FD1F76A
:10111000F3CFFC01808191810E94780A0E946E08C1
:101120000895A5E0B0E0E7E9F8E00C94B52725962E
:10113000E2E00C94D127A6E0B0E0E1EAF8E00C94FC
:10114000B5272696E2E00C94D12708950E94A508C1
:1011500008950E94A6086093F1017093F2018093B4
:10116000F3019093F4010E945708089508950E9496
:10117000A90808950F931F930091F1011091F201B6
:101180002091F3013091F401602B712B822B932B72
:101190000E94A9081F910F9108950F931F9300912A
:1011A000F1011091F2012091F3013091F4016023DB
:1011B0007123822393230E94A9081F910F91089500
:1011C0000F931F930091F1011091F2012091F3010F
:1011D0003091F40160277127822793270E94A90884
:1011E0001F910F9108950E94A50808950E94F30889
:1011F00008950E94F6086093ED017093EE018093CC
:10120000EF019093F0010E945708089560E070E0AC
:10121000CB010E94F90808950F931F9341E050E01D
:1012200060E070E08A019B0104C0000F111F221FC3
:10123000331F8A95D2F7C901B8010E94F9081F919E
:101240000F9108950F931F9341E050E060E070E02C
:1012500004C0440F551F661F771F8A95D2F78091EF
:10126000ED019091EE01A091EF01B091F0018A01A2
:101270009B01082B192B2A2B3B2BC901B8010E947B
:10128000F9081F910F9108950F931F9341E050E0CB
:1012900060E070E004C0440F551F661F771F8A95F9
:1012A000D2F7CB01BA016095709580959095009129
:1012B000ED011091EE012091EF013091F0016023DA
:1012C0007123822393230E94F9081F910F9108959F
:1012D0000F931F9341E050E060E070E004C0440FC2
:1012E000551F661F771F8A95D2F78091ED01909167
:1012F000EE01A091EF01B091F0018A019B01082756
:1013000019272A273B27C901B8010E94F9081F9114
:101310000F9108950F931F930091ED011091EE012D
:101320002091EF013091F001602B712B822B932BD8
:101330000E94F9081F910F9108950F931F93009138
:10134000ED011091EE012091EF013091F001602349
:101350007123822393230E94F9081F910F9108950E
:101360000F931F930091ED011091EE012091EF0179
:101370003091F00160277127822793270E94F90896
:101380001F910F9108950895262F277091E001C0B5
:10139000990F2A95EAF723E0769567952A95E1F764
:1013A00025E0269FF001279FF00D1124E40FF51F83
:1013B00050E040E0682F70E08191DF0111979B01C0
:1013C000042E02C0369527950A94E2F721702195E4
:1013D0002827292328272C934F5F5F4F453051053D
:1013E00059F70895A82FA77023E0969587952A9519
:1013F000E1F725E0289FF001299FF00D1124E60F69
:10140000F71F50E040E080E0219130E00A2E02C05A
:10141000369527950A94E2F721703327042E01C0F0
:10142000220F0A94EAF7822B4F5F5F4F4530510538
:1014300059F70895262F953070F48E3060F4682F98
:1014400070E08EE0989F600D711D112440EC51E01A
:10145000822F0E94C4090895292F953068F48E3098
:1014600058F490E060EC71E03EE0239F800D911D08
:1014700011240E94F209089580E00895B0E0A0E0F0
:10148000E4E4FAE00C94AE278C01C090ED01D0901A
:10149000EE01E090EF01F090F0018091F101909168
:1014A000F201A091F301B091F401C82AD92AEA2AE5
:1014B000FB2ACFE1D0E0BC2ED701C6010C2E04C020
:1014C000B695A795979587950A94D2F780FD09C0A0
:1014D000219788F7B12C8B2DCDB7DEB7E9E00C94BE
:1014E000CA27B8018C2F0E94D810019789F3F3CF37
:1014F000CF93DF93EC010E943E0ABE010E94D810F8
:10150000DF91CF9108951F93CF93DF93EB019091DB
:10151000BF01992339F0CB010E94780ADF91CF9166
:101520001F910895882369F0CB010E943E0A182F6D
:10153000682FCE010E941A0ABE01812F0E94D81086
:10154000EDCFCB010E942C0A182FF6CF1F93CF931B
:10155000DF93C091F50116E08091F6018C1304C071
:10156000DF91CF911F910895D0E01C9FF0011D9F46
:10157000F00D1124E950FE4F408151816281738149
:10158000848195810E949B082196C770E5CF409188
:101590002702509128026091290270912A028091BD
:1015A0002B0290912C020E949B0808951F93CF93C9
:1015B000DF9380912C02807F09F049C0809129023D
:1015C000882309F444C08091F501C091F60160912F
:1015D000270270912802A0912A02B0912B02D62FE7
:1015E000D72316E0C81799F190E0109711F0DF3F6C
:1015F00019F401968770F6CF189F9001199F300D4E
:101600001124F901E950FE4F41814713F2CF408187
:101610004613EFCF42814111ECCF438154814A1BE5
:101620005B0B483C510528F780912C028F7080613C
:1016300080932C02F901E450FE4F80818F7080610D
:10164000808387E292E00E941F080E94A60ADF9131
:10165000CF911F910895A1E1B0E0E1E3FBE00C948C
:10166000AD278C0185E0F801DE011D9601900D92F9
:101670008A95E1F7F801E28087E2C82E82E0D82E51
:1016800060912A0270912B026115710509F44EC117
:101690009091270220912802892F82238F3F09F4FD
:1016A00045C140815181A380B480F0902902F501A9
:1016B000E61BF70BFF2009F4EAC080912C02382FBB
:1016C000307FE83CF10508F0A3C031116DC0FE2C5D
:1016D000251316C0941314C0E11012C08F708061DE
:1016E00080932C020E94C70AC6010E941F088091A5
:1016F0002C02F80185838F2D6196EAE00C94C927AE
:10170000A114B10429F0842F85238F3F09F027C14C
:1017100080E0F82FF170DF2E80FF3CC08091F50152
:101720002091F60136E0821315C04D875E878D85C6
:101730009E850E94780A292F22952F702230F0F082
:10174000243018F59F70F1F0F8019581907FD1F465
:10175000D12C1EC090E0389FF001399FF00D11246C
:10176000E950FE4F6181651306C06081641303C0B8
:101770006281E6120FC001968770D5CF9F7011F07D
:10178000882331F3805E883018F3C8010E941F0857
:10179000FD2CB1CFEE2009F4AECF80912C028160F8
:1017A00080932C02F12CA7CF251306C0941304C0FC
:1017B000F801EE2009F487C0C8010E948908882337
:1017C00019F1EE2009F180912C02803270F0209105
:1017D00027023091280238872F831986BB86AA8674
:1017E0008C87CE0107960E941F0886E0F801A7E2C9
:1017F000B2E001900D928A95E1F70E94D60A0E940C
:10180000C70AFF24F39477CFC8010E941F08F9CFBD
:10181000311113C07A2DB98AA88A6E2D89890E9448
:10182000910887E292E00E941F0886E0F60111927B
:101830008A95E9F70E94C70AB5CF25130FC0941304
:101840000DC0E1100BC0F8018583C8010E941F087C
:1018500086E0F60111928A95E9F74DCFC8010E9402
:101860008908882389F2EE2079F280912C02803257
:1018700008F4BBCF20912702309128023A832983B4
:101880001B82BD82AC828E83CE010196ACCFE83C38
:10189000F10508F03EC0FE2CEE2009F4B5CF25136B
:1018A0002AC0941328C080912C0280FD1BC0982F61
:1018B000907FC1F0F8018583903F31F0982F907FA1
:1018C000905F8F70892B8583C8010E941F0886E076
:1018D000F801A7E2B2E001900D928A95E1F70E942B
:1018E000C70A09CF86E0F801A7E2B2E001900D92A5
:1018F0008A95E1F700CFC8010E948908811175CF50
:1019000080912C02816080932C02C8010E941F08E4
:10191000F2CE7A2DB98AA88A6E2D89890E94910803
:1019200086E0F60111928A95E9F7D9CFEE2009F405
:101930006BCFC8010E948908F82E882309F464CF70
:1019400086E0F801A7E2B2E001900D928A95E1F7F6
:1019500087E292E00E94EB040E94D60AC0CF81E0A9
:101960008E25D7CEACE0B0E0E8EBFCE00C94B427D9
:101970004F83588769877A878B879C87CE01079624
:101980000E942B0B882369F08A859B85892B39F06F
:101990004F815885842F85238F3F09F06BC016E057
:1019A0005FC086E0FE013796DE01119601900D9230
:1019B0008A95E1F78A859B85892B89F388859F81A4
:1019C00089238F3F61F32091F60130E0C901019630
:1019D000877099274091F5014817190671F40E9404
:1019E00069081092F6011092F50186E0E7E2F2E054
:1019F000DF011D928A95E9F7D2CF96E0929FD00140
:101A0000939FB00D1124A950BE4FFE013196019055
:101A10000D929A95E1F78093F6010E94A60ABFCF36
:101A2000819FC001112489509E4F0E942B0B882357
:101A3000E9F0E091F5011E9FF0011124E950FE4FFD
:101A40004081518162817381848195810E949B08CC
:101A50008091F50190E00196877099278093F501B8
:101A60008091F5019091F6018913DACF2C96E3E08D
:101A70000C94D02769857A858B859C850E949B086C
:101A80008ECF682F80910001909101010E94181F54
:101A90000895682F80910001909101010E94261FF6
:101AA000089580910001909101010E94341F0895D2
:101AB00080914D02859585958595089580914D027B
:101AC0008770089590914D02977081E009F480E04D
:101AD000089580917002089590917002892B8093EF
:101AE00070020895809590917002982390937002EF
:101AF0000895809370020895109270020895909155
:101B00006F02892B80936F020895809590916F02E8
:101B1000982390936F02089510926F020895809118
:101B20004E02089508950E94920D08959091C60264
:101B300092FF08C090914E02981721F080934E02B8
:101B40000E94930D089580914E02882329F01092EF
:101B50004E0280E00E94930D0895CF93DF93E091B1
:101B60000001F0910101809170028083E0910001F9
:101B7000F0910101808190916F02892B8083909177
:101B80004E02992381F0E0910001F09101018081E2
:101B9000892B808380910001909101010E94841E15
:101BA00081110E94A30DC0910001D091010140E27A
:101BB00050E06DE272E0CE010E94F527892B59F0CA
:101BC00080E2FE01ADE2B2E001900D928A95E1F76C
:101BD000CE010E943E1EDF91CF91089508950E948C
:101BE000EE0D08959091C60292FF11C098E0899F72
:101BF00090011124622B60934D020E942209809172
:101C00004D028595859585950E94EF0D08950E945A
:101C10002209089510924D0280E00E94EF0D089570
:101C200090914D028095892380934D02282F277033
:101C300091F4282F082E000C330B9217130659F03D
:101C40009091C60292FF07C08595859585950E9463
:101C500044090E940A0E08959091C60292FB222721
:101C600020F9281769F080FB92F99093C6028091C1
:101C7000C5029091C6020E947D0E82E00E94100E65
:101C800008958091C60282FB882780F991E0892718
:101C90000E942C0E089581E00E942C0E089580E091
:101CA0000E942C0E08956FEF7FEF90E080E00E947D
:101CB0003428089590E080E00E94102821E0883EBA
:101CC0009E4F09F020E0822F089582E090E00E946C
:101CD0000228089583E090E00E9402280895CF939F
:101CE00084E090E00E940228C82F82E290E00E94E7
:101CF0000228982F8C2FCF910895CF93C92F682F4A
:101D000084E090E00E9416286C2F82E290E00E940E
:101D10001628CF910895AB01BC018FE090E00E949E
:101D200028280895AB01BC0183E190E00E94282897
:101D3000089560E070E0CB010E94920E089560E08B
:101D400070E0CB010E948B0E0E94990E089568EE00
:101D50007EEF90E080E00E94342860E082E090E036
:101D60000E94162860E083E090E00E9416281092FE
:101D7000F1011092F2011092F3011092F40160E06F
:101D800084E090E00E94162864E082E290E00E94E5
:101D9000162860E085E090E00E94162860E086E06A
:101DA00090E00E9416286FEF87E090E00E941628CE
:101DB00040E050E0BA0188E090E00E94282860E00E
:101DC0008DE090E00E94162840E050E0BA0188E1E2
:101DD00090E00E94282860E087E190E00E941628A9
:101DE00040E050E0BA018CE190E00E94282870E0C9
:101DF00060E080E290E00E94342840E050E0BA01C8
:101E000088E190E00E9428280E949F0E08950E9479
:101E1000A70E0895682F8EE090E00E94162808957E
:101E20000E94F81F60937F0270938002809381026A
:101E30009093820260937B0270937C0280937D0278
:101E400090937E020895089508950E94240F0895A6
:101E500008950E94280F089587EB91E10E94241EA7
:101E60000E94230F0E94250F089581E008950E948B
:101E7000350F0895089508950E943A0F0E943B0F70
:101E800008950E94D3110E9498040E94871A089511
:101E90000E94E31F0E94B9120E94410F0E948D18F8
:101EA0000E94290F0895AAE0B0E0E9E5FFE00C9454
:101EB000A8270E94CF12A82E81110E94100F31E78F
:101EC000832E32E0932E10E000E0502E802F0E94EF
:101ED00000126C01F401619071904F01681679064F
:101EE00009F443C08091830281FD0E940912B12C44
:101EF000EE24E394F12C6C247D24C3018E219F21D8
:101F0000892B69F10E94370F8823B1F0BE825F826E
:101F1000CE20DF2081E0C114D10409F480E088875D
:101F20000E94EC1F8160782F9A8789874E815F819C
:101F300068858A850E94B604000F111FF801EF58CA
:101F4000FD4F80819181E826F926F182E08281E0CF
:101F5000A11001C080E02A96EFE00C94C427B3944E
:101F6000EE0CFF1CFEE0BF12C8CF0F5F1F4F053005
:101F7000110509F0AACF8FEF89838A831B820E9403
:101F8000EC1F8160782F9D838C8349815A816B81FE
:101F90008D810E94B604DBCF0E94530F0E94C018AF
:101FA0000E94AB040895CF93DF930E94DD10EC01F3
:101FB000811522E59207E8F5811531E5930708F0D0
:101FC000ACC0883E910510F5803E910570F5883AC9
:101FD000910570F4853A910508F078C0813091053B
:101FE00021F1009711F1049700F5D0E0C0E01DC089
:101FF0008F3B9105D0F7C85AD0E0CC0FDD1FCD5AEA
:10200000DE4F0990D881C02DD4640FC0811540E502
:10201000940708F066C0C11580E4D80708F05EC0D8
:10202000CE019A9581159F4100F7CE01DF91CF91A6
:102030000895811536E5930718F5811545E5940750
:1020400008F083C0C11584E5D80708F079C09C2F3B
:10205000969596959E0123703327C115D34508F4B4
:1020600061C0C1E0D0E002C0CC0FDD1F2A95E2F7CD
:1020700030E2939FC0011124C82BD92BDA68D5CF49
:10208000C1158AE5D80778F4C11599E5D90708F094
:1020900066C0C11528E5D20708F4A7CFDC2FCC27EE
:1020A000C06FD06AC2CFCE0190568115904208F021
:1020B0009CCF8D2F8F710E94741190E0982F8827EC
:1020C00088279F719C012C2BE90147C0C55AD0E09D
:1020D000CF57DE4FC881D0E0D064A7CFDF70D06A81
:1020E000A4CFE4E096958795EA95E1F783702C2FCD
:1020F00026952695237040E2249F90011124382BC9
:102100008C2F8370C1E0D0E002C0CC0FDD1F8A9518
:10211000E2F7C22BD32BDC6888CFD82FCC27C16F36
:10212000D06A83CFC1E0D0E002C0CC0FDD1F2A957A
:10213000E2F720E2929FC0011124C82BD92BEBCFEC
:10214000DC2FCC27C46FD06A70CF0E947411C82FC7
:10215000D0E0DC2FCC27CC27DF71D06266CF8C2F6C
:102160008F700E94741134E0D695C7953A95E1F7C7
:10217000CF709C2FEC01D06958CF972F7530A8F401
:102180006E3098F470E02EE0929F600D711D112466
:10219000FB0196E4899FE00DF11D1124EE0FFF1F56
:1021A000E455FF4F85919491089580E090E0089563
:1021B0000E94BD100E94D30F089582389105B1F19D
:1021C000B0F48133910509F475C048F48932910562
:1021D00009F469C08A32910509F473C00895853302
:1021E000910509F459C08933910501F10895833EA1
:1021F0009105A9F138F4803E9105F9F0823E9105F0
:1022000049F10895863E9105A9F1873E9105C9F1EE
:10221000843E910519F52091C60221FF1FC08091CF
:10222000C50284FD14C087EE90E008952091C50298
:102230002370A1F080EE90E008952091C50220FD6A
:1022400047C03091C60230FF09C024FF44C090E06F
:1022500080E004C02091C50222FDF7CF08952091AF
:10226000C50222FD3BC03091C60230FDE3CF24FF02
:10227000F5CFEDCF2091C50223FFF0CF24FDE7CFAE
:10228000D2CF2091C50223FD2CC03091C60231FF70
:10229000EECF84EE90E008952091C50225FFDECFB9
:1022A00089E290E008952091C50225FFD7CF85E30C
:1022B00090E008952091C50226FFD0CF8AE290E0F9
:1022C00008952091C50226FFC9CF81E390E00895CB
:1022D00089E390E0089583EE90E0089582EE90E027
:1022E000089586EE90E008959091C50292FF06C091
:1022F000282F28712830F9F4877F846093FF06C067
:10230000282F28712831F1F4877E84612091C6023C
:1023100020FF06C0382F38713830D9F4877F8160AC
:1023200021FF06C0282F28712831D1F4877E8161D2
:1023300094FD877E0895282F24712430F9F68B7F31
:102340008860DCCF282F2471243101F78B7E8861CF
:10235000DDCF382F3171313019F78E7F8860E0CFB3
:10236000282F2171213121F78E7E8861E1CF80E015
:1023700008950E94530E08950E94CF128FE39CE9A6
:102380000197F1F700C000000E94CF1280E00E9488
:10239000001280FF04C00E94B9110E9437200895E6
:1023A0000E94BC1108950E945A0E811102C00E9421
:1023B000070F0E94650E809383020E946F0E909318
:1023C000C6028093C5020E94D0110E946A0E682F37
:1023D00070E090E080E00E94B7086091ED0170919C
:1023E000EE018091EF019091F0010E94F6080895AE
:1023F00008950E94F811089508950E94FC1108950F
:10240000E82FF0E0EE0FFF1FEF52FD4F808191812A
:102410000895089580EA8A95F1F7089500C0089517
:102420000E940A120895F894E82FE295EF70F0E008
:1024300031A1282F2F7081E090E001C0880F2A95EC
:10244000EAF7982F9095932391A392A1892B82A3C9
:10245000789408950F931F93CF93DF93C2E9D1E04F
:1024600089918F3F11F00E94131281E0C739D8077C
:10247000B9F7C4E8D1E002E911E089918F3F11F08A
:102480000E9413120C171D07C1F7DF91CF911F9106
:102490000F910895AF92BF92DF92EF92FF920F9348
:1024A0001F93CF93DF938C01D62EC62FD0E0CE01A1
:1024B0008E569E4F7C01FC0120812F3F09F44CC0B9
:1024C000F894E22FE295EF70F0E031A12F7081E0F7
:1024D00090E001C0880F2A95EAF7932F982B91A3DB
:1024E00092A18095892382A378940E940E12E4E839
:1024F000F1E041E050E0B12CA12C21912F3FB1F14E
:10250000A22FA295AF70B0E090968C9190E02F70C2
:1025100002C0959587952A95E2F780FD27C0CA01EC
:10252000A82AB92A440F551F81E0E239F80729F794
:10253000F70180818F3F11F00E94131261E0A11416
:10254000B10409F460E08D2D0E941012CC0FDD1F44
:10255000C00FD11FB982A882DF91CF911F910F9137
:10256000FF90EF90DF90BF90AF90089590E080E0F3
:10257000D7CF0E942A128AE0E1EDF2E0DF01982F26
:102580001D929A95E9F7E7ECF2E0DF011D928A953A
:10259000E9F785E00E940B130E949E030895AAE0CC
:1025A000B0E0E5EDF2E10C94B2278E010F5F1F4F12
:1025B0008AE0F80111928A95E9F7F12C6F2DC80194
:1025C0000E944A12F394F5E0FF12F8CF4AE050E07F
:1025D000B80187EC92E00E94F527FF24F39400975E
:1025E00009F4F12C892B41F08AE0F801A7ECB2E064
:1025F00001900D928A95E1F72F2D45E061ED72E093
:1026000087EC92E00E940C130E94A1038F2D2A9662
:10261000E5E00C94CE270895FF920F931F93CF937C
:10262000DF93F82E092F162FD72FC42F222349F01E
:1026300081E0809386020E94EC1F90938502809334
:102640008402809186028823A1F080918402909177
:1026500085020E940420059760F0EF2DF02FA12F36
:10266000BD2F90E080E0D0E08C179D073CF01092E9
:102670008602CDB7DEB7E5E00C94CE2721913191EB
:102680002D933D930196F0CF0E94F1210E94480FB7
:102690000E94FE2108950E9403220E94CC0F0E94F6
:1026A0001D2208950E94851F0E94D7210E942C0F91
:1026B0000E9444130E944B130E943C0FFBCFEF92E9
:1026C000FF920F931F93CF93DF93EB01E82FD1116C
:1026D0000EC0442321F0F0E0E150FD4FE4916E2F55
:1026E0007E2F8E2FCDB7DEB7E6E00C94CD270D2FD1
:1026F00010E0282F30E0442329F021503D4FF9010C
:10270000249130E0F6E0CF9FC0011124EFEFF0E01C
:10271000BF010E942427AB018C2F90E0880F991FE6
:10272000A5E5A49FB001A59F700D1124861B970BF2
:10273000982F990F980FBF01601B710B629FD001FA
:10274000639FB00D729FB00D11248B2F9D9FB00120
:102750001124672F7727EF01C61BD70BBE01629F9D
:10276000E001639FD00D729FD00D11247F01E91A03
:10277000F108E09EB001E19E700DF09E700D1124F5
:10278000672F7727E61BF70BE29F8001E39F100D71
:10279000F29F100D1124E12F722F4230510599F054
:1027A00048F44115510569F04130510581F0EB2F96
:1027B0008D2F07C04430510569F080F04630510537
:1027C000B1F76E2F8FCFE22F7B2F812FFACFE22F21
:1027D0007D2FF7CFEB2F822F712FF3CF7B2F822FFF
:1027E000ED2FEFCF41E00E945F13089508950E94FE
:1027F000F2130895CF93DF93762FE901682F842F8A
:102800000E94F713798368838A83DF91CF910895BB
:102810008091DB02982F9E7F29F4817082608093E3
:10282000DB0208958A34E8F381708864F8CF88E089
:1028300090E00E940A280895CF92DF92EF92FF92D3
:102840006B017C010E940814B701A60188E090E0AA
:102850000E942828FF90EF90DF90CF900895EBED35
:10286000F2E083E0808311828FEF8283838314827E
:1028700060817181828193810E941C1408958091EE
:10288000DB0280FF02C08695089580E00895909154
:10289000DF02933018F49F5F9093DF02882351F09A
:1028A0006091DB027091DC028091DD029091DE028A
:1028B0000E941C14089581E00E944714089590918D
:1028C000DF02992319F091509093DF02882351F091
:1028D0006091DB027091DC028091DD029091DE025A
:1028E0000E941C14089581E00E945F14089570E016
:1028F0000E94311A0895609106018091DB0280FFE9
:102900000BC08091050123E0829FC00111248052F9
:102910009D4F0E94771408958091070190910801BE
:1029200023E0829FF0011124E052FD4F891748F700
:102930001182108212828F5F3396F8CF9091DB0262
:1029400090FF0EC0909107012091080133E0939F02
:10295000F0011124E052FD4F921718F00E947B14F1
:1029600008958183608342839F5F3396F5CFA3E010
:10297000B0E0EDEBF4E10C94B5279091DB0290FF11
:102980000AC09E012F5F3F4F0E94FA134B8169815D
:102990008A810E949E142396E2E00C94D127CF9363
:1029A000DF93EC01EC81F0E0E650FE4F4491EBED5B
:1029B000F2E0628181810E94B7148C818F5F8C83E9
:1029C000DF91CF910895CF93DF93EC01EBEDF2E02F
:1029D000438162818C810E94B7148C818F5F8C83CC
:1029E000DF91CF910895A3E0B0E0E9EFF4E10C941A
:1029F000B3278C018091870281110AC09E012F5F4D
:102A00003F4F4FEF6FEF0E94FA138A818093870246
:102A1000F8016481613069F08091870240E06623AB
:102A200061F040E0623011F44091870280E060E0A4
:102A300004C06091870240E080E00E949E14F8018B
:102A4000848190E0019663E070E00E9438278483DF
:102A50002396E4E00C94CF27A3E0B0E0E2E3F5E1B5
:102A60000C94AE27082FD62EE42EC22E9091DB02B6
:102A700090FF29C0E92FE695AE2FB0E0A956BE4FD2
:102A80008C91809391029E7F923009F59E012F5F79
:102A90003F4F802F0E94FA134B8169818A810E94E7
:102AA0009E140093DC02D092DD02E092DE02CC2084
:102AB00051F06091DB027091DC028091DD02909117
:102AC000DE020E941C142396E9E00C94CA2782308F
:102AD00019F4E090DE02E5CF863019F40091DC02B3
:102AE000E0CF8930D9F38931E1F6E9516E2F617079
:102AF000B62EE695F0E0E650FD4F1491F12C609172
:102B00000901F61618F00E947B14CBCFF19EC0018C
:102B1000112470E00E942427802FB11014C0860F6A
:102B200020910701622F6F0D7727771F9B01220FDE
:102B3000331F260F371F20523D4F4E2D6D2D0E9403
:102B4000FA13F394DCCF861BEBCFEBEDF2E091812F
:102B5000282F438162818CE0890F0E942C150895F3
:102B600081E00E94A5150895EBEDF2E09181282FF8
:102B70004381628184EF890F0E942C15089581E0C2
:102B80000E94B4150895EBEDF2E0628129E1620F35
:102B900008F46FEF282F438181810E942C1508953E
:102BA00081E00E94C3150895EBEDF2E0628129E116
:102BB000621B08F460E0282F438181810E942C155C
:102BC000089581E00E94D4150895EBEDF2E0438171
:102BD0002CE0420F08F44FEF282F628181810E9480
:102BE0002C15089581E00E94E5150895EBEDF2E0C3
:102BF00043812CE0421B08F440E0282F6281818150
:102C00000E942C15089581E00E94F615089520E099
:102C10000E942C150895EF92FF921F93CF93DF939C
:102C2000EC0110E0EE24EA94F12C609109011617F2
:102C300070F00E947B149A818C8190FF27C08F5F77
:102C40008C83DF91CF911F91FF90EF900895209199
:102C50000701422F410F5527551FCA019A01220F24
:102C6000331F280F391F20523D4F70E0C7010E94CB
:102C70003827962F8C814091DE026091DD02199FEA
:102C8000800D11240E94FA131F5FCFCF8150D8CF3F
:102C9000B0E0A0E0EEE4F6E10C94AD27FC01828107
:102CA0000FEF80FF01E010E04EE0A42E80910901BB
:102CB000181798F00E947B1480918902013009F066
:102CC0004FC0811102C08091090181508093890217
:102CD000CDB7DEB7EAE00C94C927C0910701C12E39
:102CE000D12CCC0DDD2DD11DCE01880F991FC80F21
:102CF000D91FC052DD4F198218821A8234E0E32EA8
:102D0000F12CB12C809189028B0D8F301CF16A2D32
:102D10000E941627892F082E000C990BC816D90679
:102D200091F48091DE028E9DA0018F9D500D1124A3
:102D300055954795559547959E016091DD02809187
:102D4000DC020E94FA13B00EF1E0EF1AF108D1F69E
:102D50001F5FACCF87FFDFCF90910901890FDBCFD9
:102D600090E001966091090170E00E943827AECF93
:102D70000F931F93CF93DF938091070190910801E8
:102D800023E0829FF0011124E052FD4F891740F1AA
:102D9000C0E0D3E060910901C61740F10E947B14A6
:102DA0002091030180918802820F80938802909184
:102DB0000401920F90930401191654F4082E000C8C
:102DC000990B409109014150550B841795071CF050
:102DD000219520930301DF91CF911F910F910895C9
:102DE0001182108212828F5F3396D0CF0C2F10E0A9
:102DF00070E0C8010E94382720910701820F482FF8
:102E000050E020918802022E000C330B02171307AA
:102E1000BCF020910401022E000C330B2017310767
:102E20007CF08D9F9001112420523D4F4091DE0295
:102E30006091DD028091DC020E94FA13CF5FAACF7D
:102E4000FA01EE0FFF1FE40FF51FE052FD4F118254
:102E500010821282F3CFB0E0A0E0E1E3F7E10C943E
:102E6000AB27EC014C81042F10E09801D8010E949F
:102E70007C279B01AC010E9492274B015C01E0E2A0
:102E8000F0E0E01BF10BA5E5B0E0AC019B010E9476
:102E900092276B017C019F01DF010E9474279B0137
:102EA000AC010E949D279B01AC01280D391D4A1DD4
:102EB0005B1DC701B6010E944C27F22E822F90E0C5
:102EC00039E23F1520F143E0249F9001112435950C
:102ED0002795122F109500E085E5E82EEF188091D8
:102EE0000901081718F10E947B149C8181E0992345
:102EF00019F0903219F48FEF809302018091020152
:102F0000890F8C83CDB7DEB7ECE00C94C72725E59D
:102F100030E0B901681B790B9B01220F331F260F8C
:102F2000371F37FFD4CF2F5F3F4FD1CF8E2D01FDFD
:102F30008F2D20910701622F600F7727771F9B014C
:102F4000220F331F260F371F20523D4F412F609114
:102F5000DD020E94FA130F5FC2CF0F931F93CF932E
:102F6000DF93EC0110E000E0909109019017110649
:102F700009F06CF40E947B148C8190E001968170C2
:102F800099278C83DF91CF911F910F910895209104
:102F90000701A801420F511D9A01220F331F240F70
:102FA000351F20523D4F4C816091DD028091DC0243
:102FB00096959017110651F04CF0442349F040913A
:102FC000DE020E94FA130F5F1F4FCECF4423B9F3E6
:102FD00040E0F7CFEBEDF2E080818E7F808360816F
:102FE0007181828193810E941C14109292022FEFB2
:102FF00080E792E0215080409040E1F700C000005F
:103000000E947B1408956091DB02669570E04BE0AE
:1030100050E08AE091E00E94E827892B19F481E0D2
:10302000809392020E94EC1F90938B0280938A02FD
:1030300008959091DB0290FF2BC09170811129C0FF
:1030400092609093DB02662351F06091DB027091F5
:10305000DC028091DD029091DE020E941C146091DE
:10306000DB02669570E04BE050E08AE091E00E9460
:10307000E827892BA9F01092920281E080938D02BB
:103080004091DE026091DD028091DC020E94071611
:103090000895853210F09864D4CF880F982BD1CF43
:1030A0000E940318EACF682F9091DB02969581E089
:1030B000890F853208F081E00E941918089581E097
:1030C0000E9453180895682F9091DB0296958FEF18
:1030D000890F09F484E20E941918089581E00E9482
:1030E0006318089561E00E9419180895EBEDF2E06D
:1030F00080818160808386950E94721808958091F6
:10310000DB0280FF03C00E94EA1708950E94761830
:10311000089560E00E94191808958091900281112D
:103120002EC00E945A0E811104C00E94070F0E94F7
:103130002F140E9417146093DB027093DC028093BB
:10314000DD029093DE026E7F61F40E942F140E94D4
:1031500017146093DB027093DC028093DD0290937E
:10316000DE020E940814109292028091DB0280FF1E
:1031700003C086950E94891881E08093900208958B
:103180000F931F93CF93DF93809192028823B9F11D
:1031900080919102E091DB02E695E81BE0938C02BE
:1031A000823091F5F0E0EA50FE4FE491CE2FD0E06E
:1031B0000FEC14E180918D02882361F010928D0252
:1031C0000E94EC1F90938B0280938A0210928F02D0
:1031D00010928E020E94EC1FE0918A02F0918B0205
:1031E0008E1B9F0B8F3F9F4750F4EC0FFD1FF093FA
:1031F0008B02E0938A028AE892E0F8010995DF9158
:10320000CF911F910F910895863049F4F0E0ED5071
:10321000FE4FE491CE2FD0E003EE14E1CBCF893006
:1032200051F4E695F0E0E051FE4FE491CE2FD0E06E
:103230000BE016E1BFCF8F3051F4E695F0E0E3519B
:10324000FE4FE491CE2FD0E008E416E1B3CF8531F4
:1032500049F4F0E0E651FE4FE491CE2FD0E008EBC8
:1032600016E1A8CFC8E2D0E00BE217E1883109F4FB
:10327000A1CF833239F4E8EEF1E0C591D49103EFA8
:1032800014E198CFC4EFD1E00DEA17E1843209F4DC
:1032900091CFC0EDD7E006EF13E18CCFFA01811199
:1032A00001C0FB0109950895CF93DF93C82FD62F56
:1032B0000E943F148C1748F00E943F148D1728F489
:1032C0000E945F18DF91CF9108958C2F0E94721891
:1032D000F9CF1F93CF93DF93EC01FB011281111102
:1032E0007EC00E94690D8272CD3CFCE5DF0709F4C7
:1032F0009CC008F041C0C73CECE5DE0709F481C082
:10330000D8F4C43C9CE5D90709F471C030F4C33C3F
:10331000DC4509F469C011E062C0C53C9CE5D907F1
:1033200009F46AC04FEB55E160EB75E1C63CDC4542
:1033300091F70E944E1953C0CA3CFCE5DF0709F41F
:103340006AC068F4C83CECE5DE0709F45FC040EDF4
:1033500055E161EE75E1C93CDC4559F3DCCFCB3C6E
:103360009CE5D90709F45CC043E754E16BE574E1DF
:10337000CC3CDC45F1F2CFCFC23DFCE5DF0709F4E0
:1033800065C098F4CF3C9CE5D90709F457C008F410
:1033900051C0C03DFCE5DF0709F455C0C13DDC4527
:1033A00009F0B9CF6EE089E04BC0C53D9CE5D90777
:1033B00009F452C058F4C33DFCE5DF0709F449C0E5
:1033C000C43DDC4509F0A7CF88E135C0C63D9CE58A
:1033D000D90709F444C0CE35DD4509F09CCF812FD3
:1033E000DF91CF911F9108950E947F18F8CF4EE68C
:1033F00058E16FE578E19DCF4FE558E16EE678E161
:1034000098CF40EB55E16FEB75E193CF41EE55E17D
:1034100060ED75E18ECF43E056E162EF75E189CF53
:1034200042EF55E163E076E184CF4BE554E163E799
:1034300074E17FCF81E00E947218D1CF65E082E015
:103440000E945419CCCF68E086E0FACF64E18FE0A7
:10345000F7CF67E185E1F4CF62E289E1F1CF83E262
:10346000EACF279A45B14F7755B15068EFB7F89436
:103470009B01220F331F260F371F280F391F2817D4
:10348000390741F4EFBF8FE594E00197F1F700C0F1
:1034900000000895DC016D91CD0178E055B9000080
:1034A00000C067FF45B9660F000000C000C000C043
:1034B00045B900C07A9591F7E2CFCF93DF93EC0145
:1034C00097FF0CC0FB018281882341F00E949E1A65
:1034D000CE019F770E94181B0E94EF1A81E0DF91B6
:1034E000CF91089590910B03923071F48A3050F48B
:1034F00090E009966AE070E00E943827875A0E949F
:10350000E80508958650FBCF0E94840408958CE05E
:1035100090E00E94022890E0B0E0A0E080930B03CE
:1035200090930C03A0930D03B0930E030895609144
:103530000B038CE090E00E94162808950E943B1E29
:1035400086958170809310030E943B1E817080934A
:103550000A0380910B03813039F480911003882392
:1035600019F089E30E94E8050E94690D80930F031A
:103570000E947C0D0E948C0D80910B03813089F09C
:10358000882359F0823091F0843021F18FE39CE957
:103590000197F1F700C00000089582EE0E94F10447
:1035A000F5CF88E193E00E943803F0CF80910A03C1
:1035B000811103C083E50E94E80582EE0E94F104B8
:1035C0008FE39CE90197F1F700C0000087E50E94B6
:1035D000E805DCCF86EE0E94E80588E1F8CF80910F
:1035E0000B03813079F0882349F08230B1F08430C8
:1035F000E9F080910F030E94790D089582EE0E94F8
:103600007F05F7CF8CE20E94E805809110038823A4
:1036100081F389E30E94E805ECCF82EE0E947F05EA
:1036200080910A038111E5CF83E5F4CF88E2F2CFE0
:103630000F931F93CF93DF938C01CCE0D0E0C801B0
:103640000C2E02C0969587950A94E2F78F700E941F
:10365000721A2497CC3F8FEFD80789F7DF91CF916B
:103660001F910F9108950F931F93CF93DF93EC0158
:103670008B01FB018281882361F00E94690DCE01DC
:10368000825E9C458530910520F480930B030E9457
:10369000971AB801CE010E945D1ADF91CF911F9158
:1036A0000F910895CF93DF93EC01FB018281882372
:1036B00009F433C1C430FDE5DF07C0F5CB3F9CE51D
:1036C000D90730F49E0122503C4524313105B0F534
:1036D0000E946F0E9093C6028093C502C1318CE5A3
:1036E000D80709F4EEC008F069C0C930ECE5DE0780
:1036F00009F4D5C0C8F5C5308CE5D80709F4C7C0B2
:1037000000F5C330ECE5DE0709F4B9C008F0BBC032
:10371000C230DC4509F4ADC08091C5029091C6026B
:103720000E947D0E0E94690880E008C0C236EDE567
:10373000DE0771F2C63AFDE5DF0751F2DF91CF9166
:1037400008958091C5028062C7309CE5D90709F4CD
:1037500093C08091C5028061C830DC4508F48CC0FC
:103760008091C502806488C08091C5028B7FCD3076
:10377000FCE5DF0709F480C098F48091C5028E7FD4
:10378000CB309CE5D90709F477C08091C5028C60E5
:10379000CC30DC4508F470C08091C5028D7F6CC0D0
:1037A0008091C5028F7ECF30FCE5DF0709F464C04D
:1037B00008F47BC08091C5028F7D5EC0CE3F9CE542
:1037C000D90709F47AC050F5C531FCE5DF0709F4E3
:1037D00086C098F48091C502837FC3319CE5D907E8
:1037E00009F44AC008F471C00E9469089091C502AA
:1037F000892F97FB87F980583FC0CC3FFCE5DF0756
:1038000009F449C008F055C08091C6028160CB3FE1
:10381000DC4509F081CF8093C6027ECFC230EDE552
:10382000DE0709F468C0A8F4C1158DE5D80709F4CE
:1038300052C08091C6028360C130DD4560F3809143
:10384000C602982F909591708E7F892B90FB81F9FD
:10385000E2CFC236EDE5DE0709F451C0C63AFDE518
:10386000DF0709F453C0C330DD4509F055CF80E0D0
:1038700043C08091C50281608093C5024DCF809185
:10388000C5028260F9CF8091C5028460F5CF809136
:10389000C5028860F1CF8091C6028260BCCF0E94D1
:1038A00069088091C5028068E7CF8091C502877F53
:1038B000E3CF8091C6028E7FAECF8091C6028D7F0E
:1038C000AACF8091C5028F7BD7CF0E9469088091D3
:1038D000C5028F77D1CF8091C6028C7F9CCF80911B
:1038E000C50282FB992790F921E0922790FB82F98B
:1038F00090FB83F9C1CF81E00E940A0F0DCF909118
:10390000C502892F8F7E94FF8061B6CF9091C5024A
:10391000892F8E7F90FF8160AFCF81E00FCF0F9313
:103920001F9341E050E060E070E08A019B0104C019
:10393000000F111F221F331F8A95D2F7C901B8014A
:103940000E94B7080E9469081F910F910895EBEF3C
:10395000E80FEF3308F05AC0F0E0E85AF74D0C9446
:103960006E270E94070F81E0089580918302807F77
:103970008093830281E08093930208950E94B303B1
:10398000F2CF90918302892F8E7F90FF8160809388
:10399000830280FDE8CF817F80938302E4CF909102
:1039A0008302892F8D7F91FF82608093830281FF44
:1039B000DACF809183028160EFCF90918302892FCB
:1039C0008B7F92FF84608093830282FDF2CFCBCF06
:1039D00090918302892F877F93FF88608093830271
:1039E00083FDE7CFC0CF0E9469089091C502892F5F
:1039F00097FB87F980588093C502B5CF80E00E947D
:103A00008F1CB1CF8953FBCF8D51F9CF80E0089542
:103A100080E008950E94081D0895CF93C82F8091DB
:103A20009302882331F0813099F01092930280E064
:103A30000DC00E94690D8232D1F78C2F0E94081DA3
:103A4000811116C08C2F0E94A71C8170CF91089500
:103A50000E94690D823289F38C2F0E940A1D811108
:103A600005C0C43171F038F4CB3079F781E0EDCF87
:103A700081E090E0EACFC93221F0C833B9F380E0A9
:103A8000E4CF10929302FBCFCF93DF93EB0186310B
:103A90009C4511F50E94690D9A81992399F08A7AC3
:103AA00091E009F490E090939402811109C089E2B9
:103AB0000E94410D0E94AD0D80E0DF91CF910895ED
:103AC00085E3F6CF80919402811104C089E20E94BF
:103AD000490DF0CF85E3FBCF81E0EFCF0F931F932C
:103AE000CF93DF93C42FD22FFC0182818823C9F0AA
:103AF000409397020E94EC1F909396028093950248
:103B000080E28C0F883040F4C77081E001C0880FDC
:103B1000CA95EAF70E94F105DF91CF911F910F91AD
:103B2000089510919702141332C0809195029091DC
:103B300096020E940420883C910548F5C0E2CD0F12
:103B40001D17B9F080E2810F883040F4177081E0D2
:103B500001C0880F1A95EAF70E94F805C83048F4AA
:103B600081E09D2F977001C0880F9A95EAF70E9417
:103B7000F105802F0E94E805C83070F6D77081E00B
:103B800001C0880FDA95EAF70E94F805C5CF80E2F8
:103B90008C0F883008F6C77081E001C0880FCA9585
:103BA000EAF7F2CF0F939C01CB01243F4CE5340799
:103BB00059F1A8F4293DFCE53F0701F12A3D4CE508
:103BC0003407D1F1283D3C4591F406E221EE41EE67
:103BD00068ED7CE50E946E1D80E00F910895263F00
:103BE000FCE53F07E9F0B0F0273F3C45F9F0FC0168
:103BF0008281882339F110929702EFCF07E225EEF8
:103C000045EE69ED7CE5E6CF06E221EE40EE64EF9D
:103C10007CE5E0CF07E225EE44EE65EF7CE5DACF08
:103C200006E221EE42EE66EF7CE5D4CF07E225EE18
:103C300046EE67EF7CE5CECF08E221E045EE6AED87
:103C40007CE5C8CF81E0C9CF9093BD018093BC01D2
:103C5000089590939D0280939C020895E0919C02A8
:103C6000F0919D02309729F00190F081E02D0995A7
:103C7000089580E008950E942E1E0895E0919C0210
:103C8000F0919D02309799F020912101222359F063
:103C90002091C50227FF07C0DC012C9111962C93BF
:103CA000119726E02C930280F381E02D0995089569
:103CB00020919A0230919B022817390771F0909356
:103CC0009B0280939A02E0919C02F0919D023097B2
:103CD00021F00680F781E02D099508952091980242
:103CE000309199022817390771F0909399028093C7
:103CF0009802E0919C02F0919D02309721F000849F
:103D0000F185E02D09950895FC01329680912101FD
:103D1000882321F08091C5029EE187FF96E080E034
:103D2000915008F4089521912223D1F38F5FF8CFA9
:103D3000662301F1209121012223F1F02091C50297
:103D400027FF1AC0462F4695469546954E3190F46A
:103D5000677021E030E002C0220F331F6A95E2F75E
:103D6000840F911DFC01828190E02823392381E09A
:103D7000232B69F480E00895FC0132960896219186
:103D8000261721F0E817F907D1F7F4CF81E008955D
:103D90009C01FC0132969FEF80E04191461751F063
:103DA0009F3F19F4411101C0982F8F5F8630A9F70A
:103DB0009F3F09F40895290F311D97FD3A95F901A8
:103DC00062830895FC01329608962191261303C060
:103DD000DF0111971C92E817F907B9F70895E62F4C
:103DE000E695E695E695EE3168F4E80FF92FF11DBA
:103DF000677021E030E001C0220F6A95EAF7828106
:103E0000822B82830895E62FE695E695E695EE31BE
:103E100070F4E80FF92FF11D677021E030E001C068
:103E2000220F6A95EAF7209582812823228308953C
:103E300020912101222339F02091C50227FF03C0E0
:103E40000E94EF1E08950E94C81E0895209121012E
:103E5000222339F02091C50227FF03C00E94031FCF
:103E600008950E94E21E0895FC013296809121017E
:103E7000882351F08091C50287FF06C08EE1DF01E3
:103E80001D928A95E9F7089586E0F9CF08950E947A
:103E9000461F0895811106C081E080939E020E9412
:103EA000471F089582E0F9CF83E080939E020E942D
:103EB000471F08950E944A1F089581E080939E0243
:103EC0000E94471F08950E945D1F08950895089558
:103ED0000E94671F0895089508950E94661F08951F
:103EE000CF930E946B1F0E94CF120E946C1FC0E0F4
:103EF0008C2F0E940012892B31F4CF5FC530C1F79F
:103F000080E0CF91089581E0FCCF85B7806885BFC0
:103F100085B7806885BF08951F921FB61F92112430
:103F20008F939F93AF93BF9380919F02811113C092
:103F30008091110390911203A0911303B091140387
:103F40004196A11DB11D8093110390931203A0937C
:103F50001303B0931403BF91AF919F918F911F9062
:103F60001FBE1F90189580911903843031F10E9473
:103F70001D0410929F0288E190E020E40FB6F894AF
:103F8000A895809360000FBE2093600083B7817F67
:103F9000846083BF83B7816083BF7894889583B73B
:103FA0008E7F83BF0FB6F894A895809160008861DA
:103FB00080936000109260000FBE08950E9469080F
:103FC0000E942204089582E084BD93E095BD9AEF9B
:103FD00097BD80936E0008952FB7F89480911103D8
:103FE00090911203A0911303B09114032FBF089571
:103FF0002FB7F8946091110370911203809113030D
:10400000909114032FBF08959C014FB7F8948091AD
:10401000110390911203A0911303B09114034FBFA9
:10402000821B930B089578941F921FB61F92112440
:104030008F939F93AF93BF9380911103909112033D
:10404000A0911303B09114030196A11DB11D80939B
:10405000110390931203A0931303B0931403BF9121
:10406000AF919F918F911F901FBE1F90189581E077
:104070008093E00080E28093D8001092C9008FE125
:104080009EE40197F1F700C0000087E090EBDC01AF
:104090008093220390932303A0932403B0932503DA
:1040A00088E19CE00FB6F894A895809360000FBE5D
:1040B00090936000FFCF88E19CE00FB6F894A8953C
:1040C000809360000FBE90936000FFCF8091C30289
:1040D00008950895CF93DF93EC0180912101882307
:1040E000B1F18091C50287FF32C060E282E0809327
:1040F000E9008FEF9091E800815095FD06C095EDA5
:104100009A95F1F700008111F5CF8091E80085FFC5
:104110001BC08091210170E050E040E0811104C09B
:1041200050E040E068E070E0CE010E948F22809174
:10413000E8008E778093E80080E2FE01A3EAB2E017
:1041400001900D928A95E1F7DF91CF91089568E093
:1041500081E0CDCF8093A0027093A2026093A10270
:1041600080911903843001F582E08093E9008FEF9C
:104170009091E800815095FD06C095ED9A95F1F774
:1041800000008111F5CF8091E80085FF0DC050E05F
:1041900040E063E070E080EA92E00E948F2280912C
:1041A000E8008E778093E8000895BC0184E00E94C7
:1041B000AA200895BC0183E00E94AA2008950895D2
:1041C00080911803811109C00E941F240E947C2441
:1041D0008091E20084608093E200089510921803B9
:1041E00008950E945D1F08956091150381E061119B
:1041F00001C080E00E94541F08959091190381E04E
:10420000943009F080E0609115030E945A1F0895D0
:1042100042E061EC81E00E949B2342E261EC82E09B
:104220000E949B239091190381E0943009F080E073
:10423000609115030E944A1F089580911B038330EB
:1042400009F461C030F48130D1F1823009F49EC0AC
:1042500008958A3009F48AC08B3009F46FC0893020
:1042600009F050C080911A03813209F04BC080914F
:104270001E0390911F03029708F044C08091E8004C
:10428000877F8093E8008091E80082FF37C090919B
:10429000F3008091F200029731F48091F1008130B7
:1042A00011F0863021F48091F1008093C302809157
:1042B000E8008B778093E8000E94CF2323C0809191
:1042C0001A03813AF9F48091E800877F8093E8002F
:1042D00080911E0390911F03892B61F460E283EAB1
:1042E00092E070E00E94DE228091E8008B7780935C
:1042F000E800089560E090E080E0F3CF809119033A
:104300008111C1CF089580911A03813AD9F7809124
:104310001E0390911F03892BA9F78091E800877FE6
:104320008093E8008091E80080FFFCCF809121011C
:104330008093F1008091E8008E77BCCF80911A03C2
:10434000813201F780911E0390911F03892BD1F6D2
:104350008091E800877F8093E8000E94CF238091BE
:104360001C03809321010E946908089580911A031B
:10437000813241F68091E800877F8093E8000E94B7
:10438000CF2380911D038093C402089580911A0366
:10439000813A09F0B7CF8091E800877F8093E800E9
:1043A0008091E80080FFFCCF8091C402C1CF84B728
:1043B000877F84BF0FB6F894A895809160008861CC
:1043C00080936000109260000FBE80E890E00FB60E
:1043D000F89480936100909361000FBE0E94631F68
:1043E00008950E941F240E947C24E2EEF0E0808168
:1043F0008460808378940E94FB26089585E191E093
:104400000E94291E089580911903853031F480910E
:104410001903853019F00E94DE1F08950E94B31F12
:1044200080911703882399F30E94701F882379F3E2
:104430000E9479220E946908EACF08950E942122F1
:104440000895292F33272330310519F168F42130DD
:10445000310509F444C02230310509F445C090E02B
:1044600080E030E020E025C02132310549F12232E0
:104470003105A9F780E490E02DEE34E06115710577
:10448000C1F08DE690E020E834E06130710589F0FC
:10449000E6CF99278130910581F0009729F00297A6
:1044A000F1F6EFEFF3E002C0EFE2F4E0849190E088
:1044B0009F01FA01318320830895E5E1F4E0F6CF0E
:1044C00089E090E025E434E06115710591F389E01D
:1044D00090E02EE534E06130710559F3C0CF82E100
:1044E00090E02EE634E0E5CF8BE390E023E334E088
:1044F000E0CF80E189BD82E189BD09B400FEFDCF36
:104500008091D8008F7D8093D8008091E0008260F8
:104510008093E0008091E00081FDFCCF0895AF9290
:10452000BF92CF92DF92FF920F931F93CF93DF93AF
:104530006C01EB018A010E94EE23F82E811123C049
:104540000115110539F0F80180819181C81BD90B43
:10455000C80ED91EB12CA12C2097A9F08091E8009B
:1045600085FD22C08091E8008E778093E8000115D8
:104570001105A1F0F80180819181A80EB91EB182C8
:10458000A08285E0F82E8F2DDF91CF911F910F91A2
:10459000FF90DF90CF90BF90AF9008950E94EE23E0
:1045A0008823D1F2F82EEFCFF60181916F0180932D
:1045B000F1002197FFEFAF1ABF0ACECFFC01809127
:1045C00020039091210386179707A0F061157105CC
:1045D00029F49091E8009E779093E80090E06115AF
:1045E000710551F4911108C08091E80082FF34C038
:1045F00080E00895BC01F2CF809119038823C1F1B6
:104600008530C1F18091E80083FD30C08091E800E1
:1046100082FDEACF8091E80080FFE1CF8091F30036
:104620002091F200382F6115710519F028303105FD
:1046300058F091E02830310509F090E02091E80031
:104640002E772093E800CBCF81918093F1006150C9
:1046500071092F5F3F4FE7CF80911903882341F005
:10466000853041F08091E80083FFBECF81E008955E
:1046700082E0089583E00895FC01809120039091E9
:10468000210386179707A0F06115710529F4809121
:10469000E8008E778093E80090E06115710551F491
:1046A000911108C08091E80082FF35C080E0089534
:1046B000BC01F2CF809119038823C9F18530C9F17B
:1046C0008091E80083FD31C08091E80082FDEACF4F
:1046D0008091E80080FFE1CF8091F3002091F2000B
:1046E000382F6115710519F02830310558F091E027
:1046F0002830310509F090E08091E8008E778093B2
:10470000E800CBCF84918093F1003196615071091C
:104710002F5F3F4FE6CF80911903882341F085300A
:1047200041F08091E80083FFBDCF81E0089582E0F1
:10473000089583E00895982F973028F08F70809324
:10474000E90081E008959093E900242F762F50E04E
:10475000981731F07091EC002091ED005091F0002D
:1047600021FD02C09F5FE8CF3091EB003E7F309388
:10477000EB003091ED003D7F3093ED003091EB0088
:1047800031603093EB007093EC002093ED00509378
:10479000F0002091EE0027FDE5CF80E008958091A4
:1047A0001A0387FF13C08091E80082FF06C0809142
:1047B000E8008B778093E80004C080911903811191
:1047C000F2CF0895809119038823D9F38091E800EE
:1047D00080FFF8CF8091E8008E77ECCF2091E40045
:1047E0003091E50095E6A9012091EC00822F8170BF
:1047F00020FF06C08091E80080FF06C080E0089599
:104800002091E80022FD1AC080911903882389F0C5
:10481000853089F08091EB0085FD0FC02091E40088
:104820003091E50042175307F9F29150E1F684E028
:10483000089582E0089583E0089581E008950E943C
:104840008E240E949624E0EEF0E0808181608083D7
:10485000E8EDF0E080818F77808319BCA7EDB0E0B0
:104860008C918E7F8C9380818F7E80831092180331
:1048700008950F931F93CF93DF930E948E240E947D
:104880009624C8EDD0E088818F77888388818068FE
:10489000888388818F7D888319BC109219031092B8
:1048A0001503109217031092160300EE10E0F801A2
:1048B00080818B7F808388818160888342E060E093
:1048C00080E00E949B23E1EEF0E080818E7F808378
:1048D000E2EEF0E080818160808380818860808367
:1048E000F80180818E7F8083888180618883DF9159
:1048F000CF911F910F910895E8EDF0E080818F7EB8
:104900008083E7EDF0E080818160808384E082BF76
:1049100081E0809318030E9439240895E8EDF0E0C7
:1049200080818E7F80831092E20008951092DA00D9
:104930001092E10008951F920F920FB60F9211246A
:104940002F933F934F935F936F937F938F939F9397
:10495000AF93BF93EF93FF938091E10082FF0BC071
:104960008091E20082FF07C08091E1008B7F8093FD
:10497000E1000E94FA268091DA0080FF19C0809140
:10498000D80080FF15C08091DA008E7F8093DA0016
:104990008091D90080FF96C080E189BD82E189BD08
:1049A00009B400FEFDCF81E0809319030E94E0204E
:1049B0008091E10080FF19C08091E20080FF15C066
:1049C0008091E2008E7F8093E2008091E20080611E
:1049D0008093E2008091D80080628093D80019BC57
:1049E00085E0809319030E94F4208091E10084FF08
:1049F0002BC08091E20084FF27C080E189BD82E165
:104A000089BD89B5982F917080FFFBCF8091D80028
:104A10008F7D8093D8008091E1008F7E8093E100AC
:104A20008091E2008F7E8093E2008091E2008160BD
:104A30008093E20080911503882309F449C084E043
:104A4000809319030E94FD208091E10083FF29C01B
:104A50008091E20083FF25C08091E100877F8093F1
:104A6000E10082E080931903109215038091E10028
:104A70008E7F8093E1008091E2008E7F8093E20040
:104A80008091E20080618093E20042E060E080E09B
:104A90000E949B238091F00088608093F0000E9428
:104AA000F120FF91EF91BF91AF919F918F917F91F5
:104AB0006F915F914F913F912F910F900FBE0F908B
:104AC0001F90189519BC109219030E94EE2070CF08
:104AD0008091E30087FD93E090931903B3CF1F9279
:104AE0000F920FB60F9211242F933F934F935F9322
:104AF0006F937F938F939F93AF93BF93CF93DF93E6
:104B0000EF93FF93D091E900DF708091EC00C82F04
:104B1000C17080FDC0E81092E9008091F000877FAD
:104B20008093F00078940E94B3251092E900809160
:104B3000F00088608093F000CD2BCF70C093E90027
:104B4000FF91EF91DF91CF91BF91AF919F918F91A5
:104B50007F916F915F914F913F912F910F900FBE79
:104B60000F901F901895AAE2B0E0E9EBF5E20C94E3
:104B7000B4278AE193E02091F100FC012193CF0159
:104B8000F3E082329F07B9F70E941D218091E8006F
:104B900083FF1EC180911A0390911B039A3008F085
:104BA00017C1E92FF0E0E956F74D0C946E278038D5
:104BB00099F0823809F00CC180911E038F70873004
:104BC00008F006C18093E9008091EB0085FB8827FF
:104BD00080F91092E90006C08091160390911703A6
:104BE000911182609091E800977F9093E800809304
:104BF000F1001092F1008091E8008E77E5C08823E3
:104C000009F4D3C0823009F0E3C080911C03811104
:104C1000D6C080911E038F702FEF280F263008F02A
:104C2000D7C08093E9002091EB0020FFC8C09330EB
:104C300031F48091EB0080628093EB00C0C09091D2
:104C4000EB0090619093EB0021E030E001C0220F77
:104C50008A95EAF72093EA001092EA008091EB002F
:104C60008860EACF8111B4C010911C031F77809136
:104C7000E3008078812B8093E3008091E800877FB8
:104C80008093E8000E94CF238091E80080FFFCCF52
:104C90008091E30080688093E30082E0111183E05B
:104CA0008093190395C08058823008F091C080919C
:104CB0001C0390911D038C3D23E09207A1F583E036
:104CC0008A838AE289834FB7F894DE01139620E045
:104CD0003EE051E2E32FF0E050935700E49120FFD3
:104CE00003C0E295EF703F5FEF708E2F90E0EA30E7
:104CF000C0F0C7968D939D932F5F243159F74FBF16
:104D00008091E800877F8093E8006AE270E0CE013E
:104D100001960E94DE228091E8008B778093E80064
:104D200057C0C096E7CF60911E0370911F03AE017C
:104D30004F5F5F4F0E941E22BC01892B09F448C0BF
:104D40009091E800977F9093E80089819A810E9472
:104D50003C23E1CF8038E1F58091E800877F8093A4
:104D6000E800809115038093F10045CF811130C098
:104D700090911C03923060F58091E800877F8093CA
:104D8000E800909315030E94CF2380911503882398
:104D900011F084E005C08091E30087FDFACF81E047
:104DA000809319030E94082113C080911C03813055
:104DB00079F481E0933009F080E08093170310923A
:104DC000E9008091E800877F8093E8000E94CF236C
:104DD0008091E80083FF0AC08091E800877F80937C
:104DE000E8008091EB0080628093EB00AA96E3E0FC
:104DF0000C94D0270895CF93809119038823A1F0B4
:104E0000C091E900CF709091EC00892F817090FDE6
:104E100080E8C82B1092E9008091E80083FD0E9491
:104E2000B325CF70C093E900CF91089587FB082E7A
:104E3000062687FD819567FD61950E94DC270EF4AB
:104E4000919507FC81950895AA1BBB1B51E107C0F2
:104E5000AA1FBB1FA617B70710F0A61BB70B881F0A
:104E6000991F5A95A9F780959095BC01CD01089599
:104E700097FB072E16F4009407D077FD09D00E9407
:104E8000242707FC05D03EF4909581959F4F089507
:104E9000709561957F4F0895A1E21A2EAA1BBB1B46
:104EA000FD010DC0AA1FBB1FEE1FFF1FA217B307F6
:104EB000E407F50720F0A21BB30BE40BF50B661F0C
:104EC000771F881F991F1A9469F7609570958095D0
:104ED00090959B01AC01BD01CF010895EE0FFF1F1E
:104EE0000590F491E02D09940E947C27332312F45D
:104EF0008A1B9B0B0C948D27A29FB001B39FC0010E
:104F0000A39F700D811D1124911DB29F700D811DF5
:104F10001124911D08950E947C27B7FF0895821BDC
:104F2000930B08950E947C27A59F900DB49F900D30
:104F3000A49F800D911D11240895B7FF0C94922712
:104F40000E949227821B930B08952F923F924F92BB
:104F50005F926F927F928F929F92AF92BF92CF9209
:104F6000DF92EF92FF920F931F93CF93DF93CDB712
:104F7000DEB7CA1BDB0B0FB6F894DEBF0FBECDBF8A
:104F800009942A88398848885F846E847D848C845B
:104F90009B84AA84B984C884DF80EE80FD800C8164
:104FA0001B81AA81B981CE0FD11D0FB6F894DEBF47
:104FB0000FBECDBFED010895991B79E004C0991F84
:104FC000961708F0961B881F7A95C9F78095089563
:104FD000FC014150504030F001900616D1F7319756
:104FE000CF010895882799270895FB01DC0104C0AB
:104FF0008D910190801921F441505040C8F7881BD1
:10500000990B0895F999FECF92BD81BDF89A992721
:1050100080B50895A6E1B0E044E050E00C943C284F
:10502000A8E1B0E042E050E00C943C28262FF9992A
:10503000FECF92BD81BDF89A019700B4021639F0F7
:105040001FBA20BD0FB6F894FA9AF99A0FBE0895C8
:105050000396272F0E9417280E941628252F0E94AA
:105060001728242F0C9417280196272F0E94172801
:105070000C941628DC01CB01FC01F999FECF06C087
:10508000F2BDE1BDF89A319600B40D924150504006
:10509000B8F70895F894FFCF3A063A066B066B0608
:1050A000F8069A069A069A061407A007AF07AF07F4
:1050B000BE1CB51CC11CB31C061D061DB31C061D61
:1050C000061DDD1C061DE81CF31C061D061D061D25
:1050D000061DB31C061D061DB31C061DCF1C061D98
:1050E000061D041D041D041D041D041D041D041DB6
:1050F000041D041DFE1C061DBE1CB11C061D061D44
:10510000061D061D061D061D061D061D061D061D87
:10511000FE1C061D061DB31C061D021D021D021DE0
:10512000021D021D021D021D021D021DFE1CD725AF
:10513000FF25E826FF25E82632265326E826AA265C
:02514000B62691
:105142004F02010102000E000E0E01191A1B1C1D56
:105152001E1F20212266206A20DF20DA20D5206946
:105162002001E200E900EA00B500B600B700CD0078
:105172008301CC008A0192019401210223022402BC
:105182002502260227022A02B300B4006F00700033
:10519200818283E200E900EA00B500B600B700CDE3
:1051A200008301CC008A019201940121022302248E
:1051B200022502260227022A02B300B4006F007001
:1051C20000818283F7676636353497969495939279
:1051D2009190F0F1F4F5F6000102020202060606D1
:1051E2000909090909090F0F0F0F0F0F15151518D6
:0C51F20019191919191919191919232470
:00000001FF
