:100000000C9497030C94DE030C94DE030C94DE0333
:100010000C94DE030C94DE030C94DE030C94DE03DC
:100020000C94DE030C94DE030C942E1F0C94EA1E39
:100030000C940A250C94DE030C94DE030C94DE036E
:100040000C94DE030C94DE030C94DE030C94DE03AC
:100050000C94DE030C94E6240C94DE030C94DE0373
:100060000C94DE030C94DE030C94DE030C94DE038C
:100070000C94DE030C94DE030C94DE030C94DE037C
:100080000C94DE030C94DE030C94DE030C94DE036C
:100090000C94DE030C94DE030C94DE030C94DE035C
:1000A0000C94DE030C94DE030C94DE03050109803E
:1000B000A101850319012AB700150126B700950192
:1000C00075108100C0050C0901A101850419012AE0
:1000D000A002150126A002950175108100C005013E
:1000E0000906A1018505050719E029E71500250185
:1000F0009508750181020507190029EF15002501F2
:1001000095F075018102050819012905950575010C
:100110009102950175039101C00660FF0961A1017B
:100120000962150026FF00952075088102096315F4
:100130000026FF00952075089102C005010906A15F
:1001400001050719E029E7150025019508750181CA
:10015000029501750881010507190029FF15002680
:10016000FF00950675088100050819012905950508
:1001700075019102950175039101C0000000000016
:10018000000000000000000000000000000000006F
:100190000000000000000000000000000000007EE1
:1001A0000F00D4FFFFFFC700000078000000000030
:1001B0000000002A2B2800000000000000000000C2
:1001C00000000000000029000000002C1E34202147
:1001D0002224342627252E362D3738271E1F20218E
:1001E00022232425263333362E37381F04050607ED
:1001F00008090A0B0C0D0E0F101112131415161707
:1002000018191A1B1C1D2F3130232D350405060724
:1002100008090A0B0C0D0E0F1011121314151617E6
:1002200018191A1B1C1D2F3130354C00010101011A
:1002300001010101010202020202020202020303A1
:100240000303030303030404040404040405050571
:100250000505060606060607070707070808080833
:10026000090909090A0A0A0B0B0B0C0C0C0D0D0DE0
:100270000E0E0E0F0F0F1010111111121213131476
:1002800014151516161717181819191A1A1B1B1CEE
:100290001D1D1E1E1F202021222223242425262648
:1002A000272829292A2B2C2D2D2E2F30313232337D
:1002B0003435363738393A3B3C3D3E3F4041424386
:1002C0004445464748494A4C4D4E4F50515354556A
:1002D0005658595A5B5D5E5F616264656668696B1A
:1002E0006C6D6F7072737577787A7B7D7E80828398
:1002F0008587888A8C8E8F91939596989A9C9EA0DC
:10030000A2A3A5A7A9ABADAFB1B3B5B7BABCBEC0E8
:10031000C2C4C6C9CBCDCFD1D4D6D8DBDDDFE2E4B1
:10032000E7E9EBEEF0F3F5F8FAFDFFFFAA7F5540A1
:100330002223252628292A2C2D2F303233353638F2
:100340003A3B3D3E4042434547494A4C4E5051534B
:100350005557595A5C5E6062646668696B6D6F716F
:10036000737577797B7D7F81838587898A8C8E9071
:10037000929496989A9C9E9FA1A3A5A7A8AAACAE7A
:10038000AFB1B3B4B6B8B9BBBCBEBFC1C2C3C5C6BA
:10039000C7C9CACBCCCDCED0D1D2D2D3D4D5D6D763
:1003A000D7D8D9D9DADADBDBDBDCDCDCDCDCDDDDA1
:1003B000DDDDDCDCDCDCDCDBDBDBDADAD9D9D8D791
:1003C000D7D6D5D4D3D2D2D1D0CECDCCCBCAC9C733
:1003D000C6C5C3C2C1BFBEBCBBB9B8B6B4B3B1AF6A
:1003E000AEACAAA8A7A5A3A19F9E9C9A989694920A
:1003F000908E8C8A89878583817F7D7B79777573E1
:10040000716F6D6B6968666462605E5C5A595755BE
:100410005351504E4C4A4947454342403E3D3B3A7A
:100420003836353332302F2D2C2A29282625232201
:1004300029001E001F0020002100220023002400AC
:100440002500260027002D002E002A00C35C2B006B
:1004500014001A000800150017001C0018000C00FA
:10046000120013002F00300031000000390004009A
:100470001600070009000A000B000D000E000F0017
:1004800033003400310028000000E10031001D007D
:100490001B0006001900050011001000360037008F
:1004A00038000000E5004C00E000E300E20000003E
:1004B0000000000000002C0000000000E60000002A
:1004C0000151E400000035003A003B003C003D00D3
:1004D0003E003F0040004100420043004400450010
:1004E0004C00490001000100520001000100010020
:1004F00001000100010001000100010001000100F4
:100500000000C05C500051004F00010001000100DC
:1005100001000100010001000100010001000000D4
:100520000100010001000100BD5CBF5CC05C010076
:1005300001000100010001000000A800010001000D
:10054000010001000000000000000000005C00004D
:100550000000010000000100010000000100010096
:100560000100010001000100010001000100010083
:100570000100010001000100010001000100010073
:100580000100010001000100010001000100010063
:100590000100010001000000010001000100010054
:1005A0000100010001000100010001000100010043
:1005B0000100010000000100010001000100010034
:1005C0000100010001000100010001000100000024
:1005D0000100010001000100010000000000000016
:1005E0000000010000000000010000000100010007
:1005F00000000100010001000100010001000100F4
:1006000001000100010001000100010001000100E2
:1006100001000100010001000100010001000100D2
:1006200001000100010001000100010000000100C3
:1006300001000100010001000100010001000100B2
:1006400001000100010001000100000001000100A3
:100650000100010001000100010001000100010092
:100660000100010000000100010001000100010083
:100670000000000000000000010000000000010078
:1006800000000100010000001E0F0500047F3F1F55
:10069000643214643214783C1E1E140A0509025B8D
:1006A00000030100A0FA0904000001030101000990
:1006B00021110100012240000705810308000A09F9
:1006C000040100020300000009211101000122229F
:1006D000000705820320000107050303200001092C
:1006E0000402000103000000092111010001226D34
:1006F000000705840320000A120110010000000811
:10070000544D0110010001020301040330000000F8
:100710001003500069006700670079003600300060
:10072000000006034D0054000000040309041124D6
:100730001FBECFEFDAE0DEBFCDBF04B603FE27C099
:100740008091190390911A03A0911B03B0911C038F
:100750008730904BA740B04BD1F410921903109200
:100760001A0310921B0310921C0314BE84B7877FD8
:1007700084BF0FB6F894A89580916000886180933B
:100780006000109260000FBEE0E0F8E3099523E0FE
:10079000ACE9B1E001C01D92A931B207E1F711E067
:1007A000A0E0B1E0E0EEFDE402C005900D92AC39AE
:1007B000B107D9F70E9405200C94A3260C940000E1
:1007C000E8EDF0E080818E7F80831092E20010924D
:1007D000DA001092E100A0EEB0E08C9181608C9381
:1007E00080818F77808319BCA7EDB0E08C918E7FDC
:1007F0008C9380818F7E80831092DF0208952091F8
:10080000E4003091E50095E6A9012091EC00822FEB
:10081000817020FF06C08091E80080FF06C080E064
:1008200008952091E80022FD1AC0809104038823D6
:1008300089F0853089F08091EB0085FD0FC0209113
:10084000E4003091E50042175307F9F29150E1F6C8
:1008500084E0089582E0089583E0089581E008959A
:10086000EF92FF920F931F93CF937C018B010E9415
:10087000FF03C82F811117C08091E80085FD0BC0D0
:100880008091E8008E778093E8000E94FF03882320
:1008900099F3C82F08C0F70181917F018093F1007F
:1008A0000150110949F78C2FCF911F910F91FF90A3
:1008B000EF9008958091060387FF13C08091E800B0
:1008C00082FF06C08091E8008B778093E80004C027
:1008D000809104038111F2CF08958091040388234D
:1008E000D9F38091E80080FFF8CF8091E8008E77FF
:1008F000ECCF982F9093E900242F762F50E08917A2
:1009000031F07091EC002091ED005091F00021FD4C
:1009100007C09F5F973071F78093E90081E00895E9
:100920003091EB003E7F3093EB003091ED003D7F46
:100930003093ED003091EB0031603093EB00709319
:10094000EC002093ED005093F0002091EE0027FD85
:10095000E0CF80E00895CF92DF92EF92FF920F9365
:100960001F93CF93DF93C8EDD0E088818F7E88837B
:10097000E7EDF0E080818160808384E082BF81E0E8
:100980008093DF0288818E7F888302EE10E0F80179
:1009900010821092DA0081EEC82ED12CF60110825E
:1009A00088818F77888388818068888388818F7D1C
:1009B000888319BC1092040310920503109203035C
:1009C0001092020390EEE92EF12CF70180818B7FCB
:1009D000808388818160888342E060E080E00E94BB
:1009E0007904F60180818E7F8083F80180818160A7
:1009F0008083808188608083F70180818E7F8083FF
:100A0000888180618883DF91CF911F910F91FF9042
:100A1000EF90DF90CF900895FC0180910C039091AE
:100A20000D0386179707A0F06115710529F49091C1
:100A3000E8009E779093E80090E06115710551F40D
:100A4000911108C08091E80082FF34C080E00895D1
:100A5000BC01F2CF809104038823C1F18530C1F13C
:100A60008091E80083FD30C08091E80082FDEACFEC
:100A70008091E80080FFE1CF8091F3002091F200A7
:100A8000382F6115710519F02830310558F091E0C3
:100A90002830310509F090E02091E8002E7720936E
:100AA000E800CBCF81918093F100615071092F5FF5
:100AB0003F4FE7CF80910403882341F0853041F018
:100AC0008091E80083FFBECF81E0089582E0089521
:100AD00083E00895089580E0089508958091E102EB
:100AE00008952FB7F89480910E0390910F03A09171
:100AF0001003B09111032FBF08958091A7028111B7
:100B00001092A70208958091A6029091A502892BC8
:100B10009091A402892B80939E019091A702992322
:100B2000A1F0892B80939E0180911C01882341F1C3
:100B30008091B60287FF24C08EE1E0EAF1E090E008
:100B4000815000F591110E947D05E091B902F0916C
:100B5000BA023097E1F080911C01882359F080910E
:100B6000B60287FF07C080919E0180939F0185E0B8
:100B700080939E010280F381E02D8EE991E009943B
:100B800086E0DBCF21912223D9F29F5FD9CF089550
:100B900090911C019923D1F09091B60297FF16C055
:100BA000E82FE695E695E695EE31E0F4F0E0E256C2
:100BB000FE4F282F277081E090E001C0880F2A9512
:100BC000EAF780959281892382830895E0EAF1E033
:100BD0009191891303C0DF0111971C9291E0E63ACD
:100BE000F907B1F7089590911C019923C1F09091F4
:100BF000B60297FF14C0E82FE695E695E695EE312C
:100C0000F8F4F0E0E256FE4F877021E030E001C0DA
:100C1000220F8A95EAF78281822B82830895A0EAC7
:100C2000B1E0EFEF90E02D91821751F0EF3F19F412
:100C3000211101C0E92F9F5F9630A9F7EF3F09F41A
:100C400008950E2E000CFF0BE256FE4FE6CF2FE06C
:100C5000929F800D1124982F977086958695869582
:100C600025E0829FF0011124EF58FD4F50E040E055
:100C700080E0219130E0092E02C0369527950A9434
:100C8000E2F721703327042E01C0220F0A94EAF7FD
:100C9000822B4F5F5F4F4530510559F708952FE084
:100CA000929F800D1124982F977041E001C0440F4E
:100CB0009A95EAF786958695869595E0899FF00145
:100CC0001124EF58FD4F90E080E070E05191DF017A
:100CD00011979B01082E02C0369527950A94E2F7DA
:100CE000217021952527242325272C9301968530D3
:100CF000910561F708958091700290913F029813D9
:100D000001C008958F5F8770FACF882341F08095E6
:100D10009091A60289238093A6020C9483050895DE
:100D2000882339F09091A602982B9093A6020C94F8
:100D3000830508952091360230913702281739072C
:100D400071F09093370280933602E091B902F091EE
:100D5000BA02309721F00084F185E02D09940895BE
:100D600020913402309135022817390771F09093A1
:100D7000350280933402E091B902F091BA023097C3
:100D800021F00680F781E02D0994089590E080E03D
:100D90000E94B00690E080E00E949A061092A502A0
:100DA0001092A4020C9483056093150370931603AC
:100DB00080931703909318030C94C6060F931F9308
:100DC0006091150370911603809117039091180399
:100DD0008B019C010670112722273327063011054D
:100DE0002105310529F468601F910F910C94D406F8
:100DF000677FFACF0F931F9341E050E060E070E00F
:100E000004C0440F551F661F771F8A95D2F7CB0188
:100E1000BA01609570958095909500911503109199
:100E20001603209117033091180360237123822346
:100E300093231F910F910C94D4069091A302809557
:100E400089238093A302282F277071F4282F082E5E
:100E5000000C330B9217130639F08595859585950F
:100E60000E94FA061092A30208950F931F9341E087
:100E700050E060E070E004C0440F551F661F771F0C
:100E80008A95D2F78091150390911603A0911703CC
:100E9000B09118038A019B01082B192B2A2B3B2B9D
:100EA000C901B8011F910F910C94D4066093A80258
:100EB0007093A9028093AA029093AB020C94C60689
:100EC000E091B902F091BA02309721F00190F081DF
:100ED000E02D099480E00895882309F452C08238F7
:100EE00071F40E94600781FF4CC089E30E94F30502
:100EF0000E94830589E30E94C8050C94830583380A
:100F000059F40E94600780FF3CC083E50E94F3050E
:100F10000E94830583E5EFCF843859F40E9460076F
:100F200082FF2FC087E40E94F3050E94830587E4B7
:100F3000E2CF9CEF980F913AF0F290E2980F983040
:100F400088F4877021E030E0A90102C0440F551FEA
:100F50008A95E2F7CA0180959091A6028923809331
:100F6000A602CBCF9BE5980F933020F490E080E071
:100F70000C94B006885A873120F490E080E00C94FD
:100F80009A060895FA01811101C0FB01099480912C
:100F9000D002982F9E7F61F4817082608093D0028E
:100FA0008091D302873918F086E98093D30208959F
:100FB0008635B0F381708465F1CFAF92BF92DF9236
:100FC000EF92FF920F931F93CF93DF93182F062F6B
:100FD000E901473908F046E9E42FF0E0E55DFD4F0F
:100FE000011110C0E4915E2F4E2F4983E8835A838C
:100FF000DF91CF911F910F91FF90EF90DF90BF9005
:10100000AF900895202F30E04491D42EE42EF12C9F
:1010100056E0159FC0011124EFEFF0E0BF010E94E0
:101020004B25812F90E0880F991F55E5569FD001E1
:10103000579FB00D11248A1B9B0B982F990F890F76
:101040005F01A21AB30AAE9CD001AF9CB00DBE9C4A
:10105000B00D11245B2F089F80011124012F11274F
:101060005F01A01AB10AAE9C8001AF9C100DBE9C1E
:10107000100D11245F01A81AB108A29EC001A39E01
:10108000900DB29E900D1124892F9927E81BF90B22
:10109000EE9DC001EF9D900DFE9D900D1124E92F56
:1010A00062307105A1F050F46115710509F49DCF0E
:1010B0006130710581F0EB2F512F97CF64307105AE
:1010C00069F080F06630710509F48FCFF4CFE42F1A
:1010D0004B2F592F8ACFE42F412F87CFEB2F542F3F
:1010E000492F83CF4B2F5D2DE12F7FCFF894E82F31
:1010F000E295EF70F0E031A1282F2F7081E090E0B1
:1011000001C0880F2A95EAF7982F9095932391A311
:1011100092A1892B82A3789408959091B60292FFB0
:1011200006C0282F28712830F9F4877F846093FF48
:1011300006C0282F28712831F1F4877E8461209120
:10114000B70220FF06C0382F38713830D9F4877FB6
:10115000816021FF06C0282F28712831D1F4877EB5
:10116000816194FD877E0895282F24712430F9F63B
:101170008B7F8860DCCF282F2471243101F78B7E90
:101180008861DDCF382F3171313019F78E7F88605B
:10119000E0CF282F2171213121F78E7E8861E1CFA8
:1011A00081FD02C08C9A08958C980895CF9384E0B5
:1011B00090E00E94F825C82F81E290E00E94F82577
:1011C000982F8C2FCF9108950F931F93CF93DF9378
:1011D000843030F5653020F54F3010F5C42FD0E065
:1011E000CC0FDD1F2EE1629FC00DD11D112436E909
:1011F000839FC00DD11D1124CE0186960E94F82533
:10120000082F10E0102F0027CE0187960E94F825A6
:101210009801282BC901DF91CF911F910F9108955B
:1012200090E080E0F8CF462F843038F4753028F411
:101230006F3018F4672F0C94E40890E080E0089574
:10124000CF93DF930E941309EC0182389105A9F135
:10125000D8F58133910509F496C048F58932910596
:1012600009F48AC08A9709F495C0C11522E5D2070E
:1012700008F0B6C0C11531E5D30708F026C1C83E55
:10128000D10508F09CC0C03ED10560F5C83AD10533
:1012900008F087C0C53AD10508F0EFC0C130D105CC
:1012A00009F12097F9F0C430D105E0F440C085334E
:1012B000910509F45AC0C997C1F68091B6028370AE
:1012C00089F0C0EED0E00EC0833E910599F170F434
:1012D000803E910501F1823E910539F68091B6027A
:1012E00082FD21C0CE01DF91CF910895863E910508
:1012F00061F1873E910571F1843E910509F0B5CF0A
:101300008091B70281FFEECF8091B602C7EED0E0A8
:1013100084FD0DC0E7CF8091B60280FD07C190919A
:10132000B70290FFDFCFC3EED0E084FFDBCFD0E089
:10133000C0E0D8CF8091B60282FDFBC09091B70289
:1013400090FDBFCF84FFCECFF2CF8091B60283FD58
:10135000DDCFC8CF8091B60283FDEEC09091B70279
:1013600091FFF0CFC4EED0E0BDCF8091B60285FFF3
:10137000B9CFC9E2D0E0B6CF8091B60285FFB2CF37
:10138000C5E3D0E0AFCF8091B60286FFABCFCAE213
:10139000D0E0A8CF8091B60286FFA4CFC1E3D0E011
:1013A000A1CFCF3BD10518F6C85AD0E0CC0FDD1F36
:1013B000C55BDE4F0990D881C02DD46493CFC11591
:1013C00040E5D40708F064C0C11580E4D80708F0F0
:1013D0005CC0CE019A9581159F4108F483CFA7CFB9
:1013E000C11536E5D30718F5C11545E5D40708F052
:1013F00084C0C11584E5D80708F07AC09C2F969563
:1014000096959E0123703327C115D34508F462C019
:10141000C1E0D0E002C0CC0FDD1F2A95E2F730E238
:10142000939FC0011124C82BD92BDA685BCFC1155B
:101430008AE5D80778F4C11599E5D90708F068C09E
:10144000C11528E5D20708F472CFDC2FCC27C06F76
:10145000D06A48CFCE0190568115904208F067CFF0
:101460008D2F8F710E948D0890E0982F88278827F4
:101470009F719C012C2BE90149C0C55AD0E0C85B83
:10148000DE4FC881D0E0D0642DCFDF70D06A2ACF84
:10149000CE01E4E096958795EA95E1F783702C2FCD
:1014A00026952695237040E2249F90011124382B25
:1014B0008C2F8370C1E0D0E002C0CC0FDD1F8A9575
:1014C000E2F7C22BD32BDC680DCFDC2FCC27C16F0A
:1014D000D06A08CFC1E0D0E002C0CC0FDD1F2A9552
:1014E000E2F720E2929FC0011124C82BD92BEBCF49
:1014F000DC2FCC27C46FD06AF5CE8C2F0E948D08CC
:10150000C82FD0E0DC2FCC27CC27DF71D062EACE09
:101510008C2F8F700E948D0834E0D695C7953A9530
:10152000E1F7CF709C2FEC01D069DCCEC9E3D0E0AD
:10153000D9CEC2EED0E0D6CEC6EED0E0D3CEBF92AA
:10154000CF92DF92EF92FF920F931F93CF93DF938F
:101550008C01C0901503D0901603E0901703F09013
:1015600018038091A8029091A902A091AA02B091BB
:10157000AB02C82AD92AEA2AFB2ACFE1D0E0BC2E46
:10158000D701C6010C2E04C0B695A79597958795EF
:101590000A94D2F780FD0EC0219788F7B12C8B2DCD
:1015A000DF91CF911F910F91FF90EF90DF90CF903F
:1015B000BF900895B8018C2F0E942009019761F314
:1015C000EECFCF93DF93EC010E949F0ABE01DF9123
:1015D000CF910C9420090E94E10A292F2F70929537
:1015E0009F7092509E3078F4E92FF0E0EB55F94D62
:1015F0000C947325803F19F020F4883E20F481E09C
:101600000895843FE1F380E00895883EC0F3813F70
:10161000D1F7F5CF822F8695869586950895CF933D
:10162000DF93CEE7D2E060E0CE010E940C26219647
:10163000C11584E0D807B9F7DF91CF9108951F93C2
:10164000CF93DF93122F8430F8F46530E8F44F30F5
:10165000D8F4C42FD0E0CC0FDD1F9EE1699FC00DF0
:10166000D11D112496E9899FC00DD11D1124632F2E
:10167000CE0186960E940C26612FCE018796DF91BF
:10168000CF911F910C940C26DF91CF911F9108955B
:10169000AF92BF92CF92DF92EF92FF921F93CF93C0
:1016A000DF9380E3C82E84E0D82ED0E07601C0E03E
:1016B00014C0F50125913491412F6C2F8D2F0E947C
:1016C0001F0B82E0A80EB11C1F5F1F3091F78EE147
:1016D000E80EF11CCF5FC53019F0570110E0E9CFDB
:1016E000DF5F86E9C80ED11CD43001F7DF91CF91BE
:1016F0001F91FF90EF90DF90CF90BF90AF90089533
:10170000CF93DF9300D00F92CDB7DEB79091040353
:10171000943011F589837B836A839093E9008FEF7E
:101720009091E800815095FD06C095ED9A95F1F7EE
:1017300000008111F5CF8091E80085FF0DC050E0D9
:1017400040E063E070E0CE0101960E943004809199
:10175000E8008E778093E8000F900F900F90DF9154
:10176000CF910895BC0184E00C94800BBC0183E010
:101770000C94800BCF93DF93EC0180911C018823A4
:10178000B1F18091B60287FF32C060E284E08093BD
:10179000E9008FEF9091E800815095FD06C095ED2E
:1017A0009A95F1F700008111F5CF8091E80085FF4F
:1017B0001BC080911C0170E050E040E0811104C02A
:1017C00050E040E068E070E0CE010E94300480917B
:1017D000E8008E778093E80080E2FE01A2EEB2E09E
:1017E00001900D928A95E1F7DF91CF91089568E01D
:1017F00081E0CDCF81E08093E00080E28093D8004B
:101800001092C9008FE19EE40197F1F700C000003B
:1018100087E090EBDC018093190390931A03A09367
:101820001B03B0931C0388E19CE00FB6F894A895C5
:10183000809360000FBE90936000FFCFCF93C82FBE
:10184000882309F4A6C08238C1F40E94600781FD94
:10185000A0C089E30E94F3050E9483052FEF81EE6B
:1018600094E0215080409040E1F700C0000089E3FF
:101870000E94C805CF910C9483058338A1F40E947F
:10188000600780FD86C083E50E94F3050E94830502
:101890002FEF81EE94E0215080409040E1F700C0AE
:1018A000000083E5E5CF8438A1F40E94600782FD43
:1018B00070C087E40E94F3050E9483052FEF81EE3C
:1018C00094E0215080409040E1F700C0000087E4A0
:1018D000CFCF8CEF8C0F813A88F580911C01882343
:1018E00001F18091B60287FF1CC0EC2FE695E695CA
:1018F000E695F0E0E256FE4F828190E04C2F477073
:1019000021E030E002C0220F331F4A95E2F7822324
:101910009323892B79F08C2F0E94C8050E948305A0
:1019200009C0E0EAF1E08191C817A9F321E0E63AA5
:10193000F207C9F78C2F0E94F3059CCF80E28C0F31
:10194000883068F4C77021E030E001C0220FCA95EA
:10195000EAF78091A602822B8093A6028BCFEBE55B
:10196000EC0FE33040F4F0E0E85BFE4F808190E064
:10197000CF910C94B006C85AC73158F4EC2FF0E060
:10198000EE0FFF1FE55BFE4F80819181CF910C949C
:101990009A06CF9108951F93CF93DF93182FD0E02D
:1019A000C0E0893311F4C0E5D0E0812F0E941E0C05
:1019B000209731F4812FDF91CF911F910C946C0708
:1019C0008FE99FE00197F1F700C000002197F0CF69
:1019D0000F931F93CF93DF93C62FD42F022FFC01B9
:1019E00082818823A1F0609314030E947105909373
:1019F000130380931203C77081E001C0880FCA955A
:101A0000EAF7DF91CF911F910F910C94900680918E
:101A10001403681340C020911203309113034FB791
:101A2000F89480910E0390910F03A0911003B09150
:101A300011034FBF821B930B883C910560F510E2A8
:101A40001D0F6D17B9F080E2860F883040F4C77023
:101A500081E001C0880FCA95EAF70E948506183018
:101A600048F481E09D2F977001C0880F9A95EAF79E
:101A70000E949006802F0E94CB0C183098F4D770EB
:101A800081E001C0880FDA95EAF7DF91CF911F91CD
:101A90000F910C948506C77081E001C0880FCA952C
:101AA000EAF7F3CFDF91CF911F910F9108958091C5
:101AB000D00280FD0AC0E4ECF1E0118210821282B3
:101AC000339651E0EE3EF507C1F76A9A3EB13B7F8F
:101AD0002EB124604FB7F89484EC91E0FC01519151
:101AE000CF0168E02EB9000000C057FF3EB9550F86
:101AF000000000C000C000C03EB900C06A9591F768
:101B0000F1E08E3E9F0751F74FBF8FE594E00197BC
:101B1000F1F700C000000895EF92FF921F93CF935A
:101B2000DF93EC0184ECE82E81E0F82E10E08C814C
:101B300097014091D3026091D202810F0E94DD078C
:101B40001E5E83E0E80EF11C1C3F89F70E94570DD2
:101B50009A818C8190FF08C08F5F8C83DF91CF9139
:101B60001F91FF90EF9008958150F7CFBF92CF92D1
:101B7000DF92EF92FF920F931F93CF93DF93FC01BD
:101B80008281DD24DA9480FD02C0DD24D39404EC4C
:101B900011E0D0E0C0E02EE0B22EF80111821082F8
:101BA000128294E0E92EF12CC12C8091C1018C0DA0
:101BB0008F300CF43DC06B2D0E943D25892F082EDF
:101BC000000C990B8C179D0791F48091D3028E9D88
:101BD000A0018F9D500D112455954795559547951A
:101BE00098016091D2028091D1020E94DD07CD0C54
:101BF000F1E0EF1AF108C9F621960D5F1F4FCE30C4
:101C0000D10559F60E94570D8091C10191E0D9127A
:101C100015C0811111C08DE08093C101DF91CF917A
:101C20001F910F91FF90EF90DF90CF90BF9008959C
:101C300087FFC5CF825FC3CF8150EECF90E0019682
:101C4000BE010E945F25E8CF0F931F93CF93DF93D0
:101C5000C4ECD1E0FE01118210821282339681E041
:101C6000EE3EF807C1F710E000E08091C201082EB7
:101C7000000C990B081719078CF180911001082EA0
:101C8000000C990B801791074CF19E014091D302F3
:101C90006091D2028091D1020E94DD070F5F1F4F39
:101CA00023960E30110509F70E94570D80910F0100
:101CB0009091C201980F9093C20120911001280FBA
:101CC00020931001121614F49D301CF0819580931E
:101CD0000F01DF91CF911F910F9108951982188202
:101CE0001A82DCCF8F929F92AF92BF92CF92DF92F7
:101CF000EF92FF920F931F93CF93DF93EC014C81F0
:101D0000042F10E09801D8010E9494269B01AC0199
:101D10000E945F264B015C01E0E2F0E0E01BF10B6A
:101D2000A5E5B0E0AC019B010E945F266B017C0140
:101D30009F01DF010E9480259B01AC010E946A2661
:101D40009B01AC01280D391D4A1D5B1DC701B60161
:101D50000E947226F22E822F90E039E23F15D8F1D0
:101D600043E0249F9001112435952795122F10955B
:101D700094ECC92E91E0D92E00E085E5E82EEF180D
:101D80008E2D01FD8F2D9601412F6091D2020E9470
:101D9000DD070F5F53E0C50ED11C0E3089F70E949E
:101DA000570D9C8181E0992319F0903219F48FEF3F
:101DB0008093110180911101890F8C83DF91CF9164
:101DC0001F910F91FF90EF90DF90CF90BF90AF9059
:101DD0009F908F90089525E530E0A901481B590B8D
:101DE000CA019A01220F331F280F391F37FFBCCFBA
:101DF0002F5F3F4FB9CFEF92FF920F931F93CF9377
:101E0000DF938C01C4ECD1E0F12CE12CF80194813A
:101E10006091D2028091D102F7E0EF16F104FCF458
:101E20009923F9F09E014091D3020E94DD072FEF24
:101E3000E21AF20A23968EE0E816F10439F70E94BE
:101E4000570DF801848190E0019681709927848371
:101E5000DF91CF911F910F91FF90EF9008959923FB
:101E600009F39E0140E0E1CF9091D00290FF0CC0B9
:101E7000E4ECF1E0818360834283339691E0EE3EAF
:101E8000F907C1F70C94570D08950F931F93CF9343
:101E9000DF9300D00F92CDB7DEB78C018091C301E4
:101EA00081110AC09E012F5F3F4F46E96FEF0E94EC
:101EB000DD078A818093C301F8016481613069F094
:101EC0008091C30140E0662361F040E0623011F48C
:101ED0004091C30180E060E004C06091C30140E034
:101EE00080E00E94340FF801848190E0019663E065
:101EF00070E00E945F2584830F900F900F90DF9118
:101F0000CF911F910F910895CF93DF9300D00F923F
:101F1000CDB7DEB79091D00290FF0AC09E012F5F2F
:101F20003F4F0E94DD074B8169818A810E94340FF7
:101F30000F900F900F90DF91CF910895CF93DF9383
:101F4000EC01EC81F0E0E05DFC4F4491E0EDF2E06B
:101F5000628181810E94840F8C818F5F8C83DF91ED
:101F6000CF910895CF93DF93EC01E0EDF2E0438150
:101F700062818C810E94840F8C818F5F8C83DF91C2
:101F8000CF9108956F927F929F92AF92BF92CF921E
:101F9000DF92EF92FF920F931F93CF93DF9399E716
:101FA000E92E91E0F92ED0E0C0E010E0CC24C394FB
:101FB000D12C36EBA32E32E0B32ED7018D917D01CB
:101FC000F894E82FE295EF70F0E021A18F70A60160
:101FD00002C0440F551F8A95E2F7CA01922F982B31
:101FE00091A392A18095892382A3789400C0A60131
:101FF0000C2E02C0440F551F0A94E2F7BA016095F7
:102000007095ECEAF2E088E8682E81E0782E00E036
:1020100021913191D3019D903D01892D82958F7041
:1020200090E0DC0190968C9190E0B92DBF7002C0D9
:1020300095958795BA95E2F780FD6AC0C901842B12
:10204000952B2817390739F09F0122503109D90102
:102050008D939C9301E0AE16BF06D1F6F701319740
:1020600080810E947608CE3019F0E0EAEA95F1F717
:10207000102B2196CF30D10509F09FCF112309F401
:102080004BC081E08093C0010E9471059093BF0115
:102090008093BE012091BE013091BF014FB7F894EB
:1020A00080910E0390910F03A0911003B091110342
:1020B0004FBF821B930B069798F18091AC029091D1
:1020C000AD029093D6028093D5028091AE0290919A
:1020D000AF029093D8028093D7028091B002909182
:1020E000B1029093DA028093D9028091B20290916A
:1020F000B3029093DC028093DB028091B402909152
:10210000B5029093DE028093DD021092C00108C0F8
:10211000C9018623972395CF8091C0018111BACF41
:10212000812FDF91CF911F910F91FF90EF90DF9062
:10213000CF90BF90AF909F907F906F900895AF9297
:10214000BF92CF92DF92EF92FF920F931F93CF93A4
:10215000DF93EC018AE0A82E2881222309F48CC0A9
:102160002130C9F599818A81913021F422960E940B
:10217000CB0C05C0923029F422960E941E0C2196A9
:10218000EBCF933021F422960E946C07F8CF943065
:1021900011F02196F4CF229630E020E0AE014F5F9F
:1021A0005F4F8053990B8A30910550F021503109CF
:1021B00030F38FE99FE00197F1F700C00000F6CF00
:1021C000A29EB001A39E700D11249C01260F371F03
:1021D0008981EA01E3CFE22FF0E0E555FE4FB490AC
:1021E000822F86958695869590E0FC01E556FE4FF8
:1021F000E4902770F12C022E02C0F594E7940A9423
:10220000E2F731E0E322FF24FC01E557FE4FC490E2
:10221000D12C022E02C0D594C7940A94E2F731E083
:10222000C322DD24FC01E558FE4F049110E002C0FA
:10223000159507952A95E2F701701127E114F1042D
:1022400019F081EE0E941E0CC114D10419F086EE23
:102250000E941E0C8B2D0E94CB0CCD2819F086EE0F
:102260000E946C07EF2819F081EE0E946C07012B89
:1022700009F485CF8CE27BCFDF91CF911F910F9135
:10228000FF90EF90DF90CF90BF90AF9008954F9266
:102290005F926F927F928F929F92AF92BF92CF92F6
:1022A000DF92EF92FF920F931F93CF93DF93FC0186
:1022B0006280448081E08483E0E3F3E07490EFEA9D
:1022C000F3E0E491CEEED1E034ECE32E31E0F32EF6
:1022D00044E3C42E42E0D42E52E0A52EBB24B39496
:1022E00088248A94912C55245A94E7190E2F10E0D3
:1022F00082E0861530F08091D10288838091D202ED
:102300008983411021C01B821A8297014A81698109
:1023100088810E94DD07259683E0E80EF11CCC162B
:10232000DD0631F7DF91CF911F910F91FF90EF9074
:10233000DF90CF90BF90AF909F908F907F906F90E5
:102340005F904F900C94570D8B818823E9F081505A
:102350008B83859DC00111246C8170E00E944B2508
:10236000FB01FF27E05DFC4F8491E82FE719E59D15
:10237000C0011124B8010E944B258091D302689FAF
:10238000B00111247A83C1CF0E94DB252091D302B2
:10239000269521582A9DA0012B9D500D1124452FD3
:1023A0005527841795070CF0B0CF82E0861588F486
:1023B0000E94DB25B4010E945F2588830E94DB25F3
:1023C0002091D2022695622F70E00E945F25280F8F
:1023D00029831A828091D302893C20F088EC8C8377
:1023E0008B8393CF8431D8F784E1F9CF6BEE7EEF06
:1023F00090E080E00E942A2660E082E090E00E9467
:102400000C2660E083E090E00E940C261092A80267
:102410001092A9021092AA021092AB0260E084E02E
:1024200090E00E940C2660E081E290E00E940C2681
:1024300060E085E090E00E940C2660E086E090E09D
:102440000E940C266FEF87E090E00E940C2640E08F
:1024500050E0BA0188E090E00E941E2660E08DE026
:1024600090E00E940C2640E050E0BA0188E190E044
:102470000E941E2660E087E190E00E940C2640E06A
:1024800050E0BA018CE190E00E941E2660E080E2FC
:1024900090E00E940C2640E050E0BA0188E190E014
:1024A0000E941E2640E050E0BA018FE090E00E94BA
:1024B0001E2640E050E0BA0183E190E00C941E2615
:1024C000CF92DF92EF92FF926B017C010E94C707CF
:1024D000B701A60188E090E0FF90EF90DF90CF90E9
:1024E0000C941E265F926F927F928F929F92AF9272
:1024F000BF92CF92DF92EF92FF920F931F93CF93F1
:10250000DF9300D00F92CDB7DEB7182F762E042FB1
:10251000622E9091D00290FF29C0E92FE695AE2F50
:10252000B0E0A35EBE4F8C918093CE029E7F92302E
:1025300081F59E012F5F3F4F812F0E94DD074B8168
:1025400069818A810E94340F1093D1027092D20265
:102550000093D302662051F06091D0027091D102B5
:102560008091D2029091D3020E9460120F900F903E
:102570000F90DF91CF911F910F91FF90EF90DF901F
:10258000CF90BF90AF909F908F907F906F905F9013
:102590000895823019F40091D302D6CF863019F411
:1025A0001091D102D1CF8930D9F3893169F6E9513F
:1025B0008E2F8170582EE695F0E0E55DFC4FA590DA
:1025C000B490BB2484ECE82E81E0F82ED12CC12CF1
:1025D0009EE0892E912CC601B4010E944B25812FCB
:1025E000511013C0860F9701402F672D0E94DD0701
:1025F000CA0CDB1C83E0E80EF11C8EEEE81681E0CD
:10260000F80649F70E94570D9FCF861BECCFE0EDEF
:10261000F2E0438128E0421B08F440E021E06281BF
:1026200081810C947212E0EDF2E0438128E0420FC8
:1026300008F44FEF21E0628181810C947212E0ED89
:10264000F2E0628128E0621B08F460E021E043814F
:1026500081810C947212E0EDF2E0628128E0620F59
:1026600008F46FEF21E0438181810C947212E0ED58
:10267000F2E0818121E04381628188500C947212E2
:10268000E0EDF2E0818121E043816281885F0C947A
:1026900072128091D402882319F081508093D40261
:1026A0006091D0027091D1028091D2029091D302B8
:1026B0000C9460128091D402833018F48F5F809361
:1026C000D4026091D0027091D1028091D202909197
:1026D000D3020C946012E0EDF2E083E0808311827B
:1026E0008FEF828386E98383148260817181828186
:1026F00093810C9460121092A60280911C01E0EA72
:10270000F1E0882359F08091B60287FF07C08EE17F
:10271000DF011D928A95E9F70C94C60686E0F8CF92
:102720001F93CF93DF93CDB7DEB7AA970FB6F89478
:10273000DEBF0FBECDBF86E093E02091F100DC014B
:102740002D93CD01B3E08E309B07B9F7809107033D
:10275000833009F471C0B8F4813009F448C0823084
:1027600009F4B2C08091E80083FF3AC1809106036A
:10277000909107039A3008F033C1E92FF0E0ED544F
:10278000F94D0C9473258A3009F48DC08B3009F40F
:1027900070C0893039F780910603813219F7809132
:1027A0000A0390910B03009711F00297D9F68091DC
:1027B000E800877F8093E8008091E80082FF37C0BF
:1027C0009091F3008091F200029729F48091F1003A
:1027D0008B7F813021F48091F1008093E102809120
:1027E000E8008B778093E8000E945A04BBCF809169
:1027F0000603813A09F0B6CF8091E800877F809385
:10280000E80080910A0390910B03892B61F460E248
:1028100082EE92E070E00E940C058091E8008B77D8
:102820008093E8009FCF60E090E080E0F3CF80915C
:1028300004038111C1CF96CF80910603813A09F03C
:1028400091CF80910A0390910B03892B09F08ACFD5
:102850008091E800877F8093E8008091E80080FF06
:10286000FCCF80911C018093F1008091E8008E776D
:10287000B9CF80910603813209F074CF80910A03A9
:1028800090910B03892B09F06DCF8091E800877F31
:102890008093E8000E945A048091080380931C01F1
:1028A0000E947B135FCF80910603813209F05ACFDB
:1028B0008091E800877F8093E8000E945A0480910D
:1028C00009038093E0024ECF80910603813A09F01C
:1028D00049CF8091E800877F8093E8008091E800ED
:1028E00080FFFCCF8091E002BECF803899F0823823
:1028F00009F076C080910A038F70873008F070C0AD
:102900008093E9008091EB0085FB882780F9109285
:10291000E90006C080910203909103039111826047
:102920009091E800977F9093E8008093F1001092D7
:10293000F1008091E8008E77C0C1882309F4ADC111
:10294000823009F04DC0809108038111B1C180919E
:102950000A038F702FEF280F263008F041C08093B4
:10296000E9002091EB0020FFA3C1933031F4809166
:10297000EB0080628093EB009BC19091EB00906133
:102980009093EB0021E030E001C0220F8A95EAF736
:102990002093EA001092EA008091EB008860EACF71
:1029A00081111EC0109108031F778091E300807889
:1029B000812B8093E3008091E800877F8093E8007B
:1029C0000E945A048091E80080FFFCCF8091E300D0
:1029D00080688093E30082E0111183E08093040318
:1029E0008091E80083FF0AC08091E800877F809390
:1029F000E8008091EB0080628093EB00AA960FB60E
:102A0000F894DEBF0FBECDBFDF91CF911F91089527
:102A10008058823028F720910803309109032C3D1B
:102A2000E3E03E07A1F583E08A838AE289834FB71A
:102A3000F894DE01139620E03EE051E2E32FF0E04F
:102A400050935700E49120FF03C0E295EF703F5F81
:102A5000EF708E2F90E0EA30C0F0C7968D939D9373
:102A60002F5F243159F74FBF8091E800877F809313
:102A7000E8006AE270E0CE0101960E940C058091A8
:102A8000E8008B778093E800ABCFC096E7CF8091CA
:102A90000A0390910B03432F55274330510509F446
:102AA0004AC078F54130510509F485C08BE590E0C6
:102AB000EDE9F6E04230510509F092CF2091E800AF
:102AC000277F2093E80020910C0330910D0382179B
:102AD000930708F49C0140E02115310509F070C00E
:102AE00041116EC08091E80082FDC9CF809104033E
:102AF000882329F2853019F28091E80083FFF2CF14
:102B0000BECF4132510509F447C04232510509F0A8
:102B100067CF8330910508F063CFFC01EE0FFF1FF4
:102B2000E057FE4F0190F081E02D83579E4FDC016E
:102B30008C9190E01DC0332721303105E9F021153B
:102B4000310579F022303105F9F02330310509F0F3
:102B500047CFEAE0F7E0E4918E2F90E0EAE0F7E07B
:102B600007C0EAE2F7E0E4918E2F90E0EAE2F7E0B6
:102B7000009709F435CFA2CFE2E2F7E0E4918E2F7F
:102B800090E0E2E2F7E0F4CFE0E1F7E0E4918E2FAD
:102B900090E0E0E1F7E0ECCF8330910508F020CF42
:102BA000880F991FFC01EA56FE4F0190F081E02D3D
:102BB00089E090E083CF82E190E0E8EFF6E07ECF1D
:102BC00080910403882309F45ACF853009F457CF44
:102BD0008091E80083FD53CF8091E80082FD82CF91
:102BE0008091E80080FF78CF9091F3008091F2000F
:102BF0002115310519F08830910550F041E0089712
:102C000009F040E08091E8008E778093E80064CF7F
:102C100044914093F1003196215031090196E8CF5B
:102C2000803809F0DDCE8091E800877F8093E8004E
:102C3000809105038093F1007CCE8111D1CE10915B
:102C40000803123008F0CCCE8091E800877F809393
:102C5000E800109305030E945A04112311F084E048
:102C600005C08091E30087FDFACF81E080930403E3
:102C700042E061EC81E00E94790442E261EC84E090
:102C80000E94790442E261EC82E00E94790442E20F
:102C900060EC83E00E947904A3CE80910803813028
:102CA00009F09ECE81E0933009F080E08093030329
:102CB0001092E9008091E800877F8093E8000E94ED
:102CC0005A048ECE9091D00290FF3DC09170811138
:102CD00029C092609093D002662351F06091D00297
:102CE0007091D1028091D2029091D3020E94601221
:102CF0006091D002669570E04BE050E084E091E096
:102D00000E94EB25892BA9F01092CF0281E08093DD
:102D1000BF0220E04091D3026091D2028091D102A3
:102D20000C9472128B3210F09465D4CF880F982BCC
:102D3000D1CF81E08093CF020E9471059093BD02B4
:102D40008093BC02E3CF08958091D0028695815094
:102D500009F48AE261E00C9462168091D0028695B3
:102D60008F5F8B3208F081E061E00C9462169091E5
:102D7000D00290FF07C09695981720F0961710F490
:102D80000C94AD1661E00C9462164F925F926F92B4
:102D90007F928F929F92AF92BF92CF92DF92EF92EB
:102DA000FF920F931F93CF93DF9300D000D00F9229
:102DB000CDB7DEB77C01FC0183819481892B31F092
:102DC0008081918189238F3F09F06BC50F900F900F
:102DD0000F900F900F90DF91CF911F910F91FF9067
:102DE000EF90DF90CF90BF90AF909F908F907F90AB
:102DF0006F905F904F9008950E949F0A182F682F40
:102E000089819A810E944F0669817A81812F0E946F
:102E100013098C01F7019281992309F437C59801B0
:102E200022513F452031310508F009C58FEF93E06D
:102E30000E94F8254EEED42ED00E0EE712E0882325
:102E4000D1F08091A302877009F4C0CFF70182818D
:102E5000882309F4BBCF82E00E941D07B7CF01157C
:102E6000F4E01F0771F3C8010E94F825811101C029
:102E7000DA940F5F1F4FD110F2CF19821A821B8292
:102E80001C82CC24CA9448012FEF821A920AC801EE
:102E90000E94F82589831A82882399F2813009F0EB
:102EA00047C0580132E0A30EB11CC4010E94F825AE
:102EB000982E8A83882329F2C5010E94F825D82EEE
:102EC0008FEF890D833068F4580143E0A40EB11CE4
:102ED000DB82DD2021F0CE0101960E949F1085014A
:102EE000D2CF54E09512FBCF580184E0A80EB11C5C
:102EF000C80103960E94F825DD2009F4A2CF88239B
:102F000009F49FCF8150990BC89E9001C99E300D46
:102F10001124ED2DE150FF0BCF01820F931F01977C
:102F2000F0F2EFE9FFE03197F1F700C00000F7CFD2
:102F3000CE0101960E949F105401D1CF81E00E94E2
:102F400035070E94DE067DCF81E00E94FA06F9CFA8
:102F500082E0F5CF053FECE51E0709F45EC008F4FA
:102F600058C0063F2CE5120709F45BC0992309F409
:102F7000A9C41092140302303CE5130708F431C1D0
:102F800006314CE5140738F098012A5F3C4529309A
:102F9000310508F026C10E94D6089093B7028093AD
:102FA000B60200315CE5150709F4EAC008F078C004
:102FB00008309CE5190709F4D9C008F047C004306F
:102FC000FCE51F0709F4C6C098F502303CE513077D
:102FD00009F4BAC08091B602826003301C4509F43E
:102FE000B6C06091B6021091B70284E090E00E94F2
:102FF0000C26612F81E290E00E940C260E947B1338
:1030000020CF27E245EE65EE3DC426E241EE60EEBC
:1030100039C427E245EE64EE35C426E241EE62EEA5
:1030200031C427E245EE66EE2DC428E241E0EBCF45
:103030008091B602806106305CE5150709F487C00F
:1030400008F48CC08091B602806281C08091B60283
:103050008D7F0C309CE5190709F479C070F48091DC
:10306000B6028C600A30FCE51F0709F470C008F452
:1030700081C08091B6028E7F6AC08091B602877F40
:103080000E303CE5130709F462C08091B6028B7FD5
:103090000F301C4508F45BC08091B6028F7E57C08C
:1030A0000B3F5CE5150709F45DC030F503319CE585
:1030B000190709F46DC078F40131FCE51F0709F424
:1030C00063C002311C4509F08CCF0E947B138091B4
:1030D000B6028F773CC005313CE5130709F460C0A8
:1030E00008F474C08091B70281600A3F1C4509F062
:1030F00078CF8093B70275CF0F3F8CE5180709F49E
:103100004BC088F48091B7028D7F0D3FECE51E0720
:1031100081F38091B7028E7F0E3F1C4550F3809162
:10312000B7028360E6CF01302DE5120709F457C0DE
:1031300008F442C060E002301D4509F052CF8EE035
:1031400090E00E940C264DCF8091B6028160809362
:10315000B60247CF8091B6028460F9CF8091B60263
:103160008860F5CF8091B7028260C3CF8091B602AC
:103170008064EDCF0E947B138091B6028068E7CF18
:103180008091B6028F7DE3CF8091B6028F7BDFCF37
:103190008091B602837FDBCF8091B7028C7FA9CF6D
:1031A0008091B60282FB992790F921E0922790FB4B
:1031B00082F990FB83F9CBCF8091B702982F90953D
:1031C00091708E7F892B90FB81F993CF0E947B13A6
:1031D0009091B602892F97FB87F98058B8CF61E0AC
:1031E000AECF8091A60206315CE5150709F076C3E3
:1031F0008A7A91E009F490E090933802811106C038
:1032000089E20E94F3050E9483051BCE85E3F9CF76
:1032100085E361C38091D00280FF1BC08E7F8093C5
:10322000D0026091D0027091D1028091D20290912F
:10323000D3020E9460121092CF028FEF90E7E2E07B
:1032400081509040E040E1F700C000000E94570D1F
:10325000F8CD81608093D00261E086950E9462166D
:10326000F0CD44EA56E16DEA76E10E94C207E9CD6D
:103270004DEA56E164EA76E1F8CF47E353E160E4D2
:1032800073E1F3CF40E453E167E373E1EECF4FE145
:1032900053E16BE273E1E9CF4BE253E16FE173E19C
:1032A000E4CF47E053E163E173E1DFCF43E153E172
:1032B00067E073E1DACF49E453E16AE573E1D5CF22
:1032C0004AE553E169E473E1D0CF61E081E0C6CF24
:1032D00065E082E00E94B716B4CD68E086E0FACFE0
:1032E0006EE089E0F7CF64E18FE0F4CF67E185E13C
:1032F000F1CF61E088E1B2CF62E289E1EBCF61E03A
:1033000083E2ACCF0115FCE51F0709F445C00E3D73
:103310001C4509F44EC0F70100811181992309F47D
:103320004BC0C8010E949F0AD82E682FC8010E9476
:103330004F06B8018D2D0E9420098C01882EF701BF
:10334000D280A580A2943FE0A3228091A30287703F
:10335000A1F0CD2CDD2091F0812F807F803421F0F1
:1033600080E2800F883048F082E00E941D07809143
:10337000A3028770CC24C3948111C12CB12EB294C6
:103380002FE0B222FBE0FB1508F450C0EB2DF0E07B
:10339000E354F94D0C9473250E947B133FEF44E3F3
:1033A0005CE0315040405040E1F700C000000E9416
:1033B000FA0B0E94F61145CDC8010E942706D82EAF
:1033C000B8CF212F2F70A22E107F19F0A29490EF6A
:1033D000A922DD20C9F0AA2069F080E2800F8830A0
:1033E00010F081100BC08091A602A82AA092A6021C
:1033F0000E948305802F0E941E0C18C08091A50298
:10340000A82AA092A502F4CF802F0E946C07AA20C0
:1034100069F0A094005E083010F081102AC08091FD
:10342000A602A822A092A6020E9483052B2D285056
:10343000330B2430310520F40E9460070E94D0082D
:10344000CC2009F4C3CC8091A30280FDBFCCF7014E
:1034500012828595859585950E943507C7010E9442
:10346000C5168091A3028595859585950E94FA06DB
:10347000ADCC8091A502A822A092A502D5CF312F74
:103480003F70932E107F103219F0929480EF9822A3
:10349000882071F041E0841661F1DD20B9F1AA20A5
:1034A00071F1F701858180FFA5CF8F70858327C0DB
:1034B000DD2091F09091A702892D892BA11003C0E6
:1034C0000E949006B3CF51E0A512FACF981709F4E5
:1034D000ADCF8093A702AACFA11006C00E947D05A0
:1034E000892D0E948506A2CF81E0A81609F49ECFFF
:1034F000F5CFDD2031F095E09A1508F497CF892DAE
:10350000DFCFE4E0EA1508F491CFEACFAA2041F337
:10351000F9E38F1209C02FEF37EE43E0215030401E
:103520004040E1F700C00000802F0E946C077ECF72
:10353000812F86958695837061F0813009F076CF72
:10354000C8019370D11002C090E080E00E949A06FA
:103550006DCFC8019370D11002C090E080E00E944E
:10356000B00664CF812F837009F066C0D1105ECFA2
:10357000802F829586958770880F880F602F6F70D7
:10358000462E512C712C612C082E04C0440C551C65
:10359000661C771C0A94D2F740E050E0BA0104FFA1
:1035A0000FC04FE050E060E070E004C0440F551FD2
:1035B000661F771F8A95D2F7409550956095709554
:1035C000812F869586958370823019F1D8F4009109
:1035D000A8021091A9022091AA023091AB02813079
:1035E00069F04429552966297729CB01BA0160235E
:1035F0007123822393230E94560718CF402A512A11
:10360000622A732ACB01BA01642975298629972970
:10361000F2CF44295529662977290091A8021091F3
:10362000A9022091AA023091AB02CB01BA01602716
:10363000712782279327DFCF8695DD2011F0812F18
:103640008170882309F4F2CE802F82958695877049
:10365000880F880F602F6F70462E512C712C612CB3
:10366000082E04C0440C551C661C771C0A94D2F723
:1036700040E050E0BA0104FF0FC04FE050E060E0CE
:1036800070E004C0440F551F661F771F8A95D2F75C
:103690004095509560957095812F8695869583709D
:1036A000823019F1D8F4009115031091160320917E
:1036B000170330911803813069F044295529662990
:1036C0007729CB01BA0160237123822393230E94BF
:1036D000D406ACCE402A512A622A732ACB01BA0101
:1036E0006429752986299729F2CF44295529662905
:1036F000772900911503109116032091170330913B
:103700001803CB01BA016027712782279327DFCFE7
:103710001F70DD2029F0812F0E943507802FD0CE29
:10372000802F0E948506812F0E94FA067FCE802F6F
:1037300052EF851609F450C0581578F090EF8916AD
:1037400019F1E1EF8E1609F43FC0DD2009F467C0DE
:10375000A11050CE812F8F713CC0F3EF8F1609F46A
:1037600040C024EF8212F1CFDD2009F44DC01F715B
:10377000812F0E94350758E0159FC00111248360F6
:103780008093A302812F25C0DD20C9F034E03A15D3
:1037900008F44CCE1F7161E070E080E090E004C05E
:1037A000660F771F881F991F1A95D2F7009115038E
:1037B000109116032091170330911803A4CF45E010
:1037C0004A1508F433CEE6CF812F8F71DD2009F43E
:1037D000ABCF0E9435072ACE812F8F71DD20C9F330
:1037E000A3CF60E070E0CB01DD2009F470CF1F7142
:1037F00061E070E080E090E004C0660F771F881FF2
:10380000991F1A95D2F763CF81E00E941D0781E0CE
:103810008A1508F00BCE82E00E941D0707CEAA2071
:1038200059F0893309F080CE9FEFE7EEF3E0915035
:10383000E040F040E1F776CE812F8F7175CF0031F7
:10384000FFE51F0709F47ACB01312FE5120709F4D0
:103850007FCB033F2CE5120709F4D7CB08F07ACBD6
:10386000083D4CE5140709F4CCCB093D5CE5150790
:1038700009F4DBCB073D8CE5180709F077CB26E28E
:1038800041EE61EEC7010E94E80CDBCA00313FE562
:10389000130709F459CB01314FE51407D1F682E043
:1038A00054CB85E0DE01119601900D928A95E1F7E7
:1038B000F701228189819A8121119ECA0E942706DF
:1038C000182FA2CA06311C4509F025CD8091380277
:1038D00081119ECC89E20E94C80595CC8272F801C4
:1038E000E25CFC45E431F10508F00CCDE753F94DFD
:1038F0000C9473251F93CF93DF9380913E02807FBA
:10390000A9F480913B02882389F080917002D091C4
:103910003F026091390270913A02A0913C02B0914D
:103920003D02C62FC72316E0D81304C0DF91CF9104
:103930001F91089590E0109711F0CF3F19F4019670
:103940008770F2CF189F9001199F300D1124F90153
:10395000E05CFD4F41814713F2CF40814613EFCF2A
:1039600042814111ECCF438154814A1B5B0B483C9F
:10397000510528F780913E028F70806180933E024E
:10398000F901EB5BFD4F80818F708061808389E35B
:1039900092E00E94C516DF91CF911F910C947B0697
:1039A000AF92BF92CF92DF92EF92FF920F931F934D
:1039B000CF93DF93CDB7DEB761970FB6F894DEBF34
:1039C0000FBECDBF8C0185E0F801DE011D96019090
:1039D0000D928A95E1F7F80180819181E28029E3D7
:1039E000A22E22E0B22E60913C0270913D02611540
:1039F000710509F43EC13091390240913A02232FFA
:103A000024232F3F09F435C1C380D480F0903B02BA
:103A1000F601E61BF70BFF2009F4FBC020913E02E4
:103A2000522F507FE83CF10508F0BBC0511178C01F
:103A3000FE2C491321C038131FC0E1101DC02F7088
:103A4000206120933E02C5010E94C51680913E026E
:103A5000F80185838F2D61960FB6F894DEBF0FBEF7
:103A6000CDBFDF91CF911F910F91FF90EF90DF902D
:103A7000CF90BF90AF900895CD2829F0282F29230B
:103A80002F3F09F014C120E0F22FF170DF2E20FF4C
:103A90003DC02091700240913F0256E0241315C0B2
:103AA0008D879E878D859E850E94E10A292F22950C
:103AB0002F702230F8F0243020F59F70F9F0F801D3
:103AC0009581907FD9F4D12C1FC030E0529FF00136
:103AD000539FF00D1124E05CFD4F6181961306C0E9
:103AE0006081861303C06281E61210C02F5F3F4FD2
:103AF0002770D4CF9F7011F0882329F3805E88301F
:103B000010F3C8010E94C516FD2CA4CFEE2009F4C5
:103B1000A1CF80913E02816080933E02F12C9ACF2A
:103B2000491312C0381310C0E1100EC0F8012583EC
:103B3000C8010E94C51686E0F801A9E3B2E0019031
:103B40000D928A95E1F786CF8D879E878D859E851C
:103B50000E94EB0A882309F1EE20F9F080913E02E1
:103B6000803270F02091390230913A0238872F83E9
:103B70001986DB86CA868C87CE0107960E94C516F9
:103B800086E0F801A9E3B2E001900D928A95E1F791
:103B90000E947A1CFF24F3945DCFC8010E94C516D1
:103BA000F9CF51110AC089E392E00E94C51686E060
:103BB000F50111928A95E9F7B1CF49130FC0381377
:103BC0000DC0E1100BC0F8012583C8010E94C51685
:103BD00086E0F50111928A95E9F73CCF8D879E87A3
:103BE0008D859E850E94EB0A8823B9F2EE20A9F20A
:103BF00080913E02803220F22091390230913A02C7
:103C00003A8329831B82DD82CC828E83CE0101968A
:103C1000B5CFE83CF105E0F6FE2CEE2009F4BDCF6F
:103C2000491316C0381314C080913E0280FD83CF23
:103C3000982F907F09F47FCFF8018583903F09F496
:103C400077CF982F907F905F8F70892B858370CF6F
:103C50008D879E878D859E850E94EB0A811190CF6E
:103C600080913E02816080933E02C8010E94C51689
:103C7000F1CEEE2009F491CF8D879E878D859E85AC
:103C80000E94EB0AF82E882309F487CF86E0F8011A
:103C9000A9E3B2E001900D928A95E1F78091390293
:103CA00090913A020E94E10A0E947A1CD3CE21E050
:103CB0002E25EACE1F93CF93DF93CDB7DEB767975C
:103CC0000FB6F894DEBF0FBECDBF342F4B8B252F20
:103CD0005C8B6D8B7E8B8F8B8E899F89611110928F
:103CE000A5021A8A198A3D872E876F87998B888B40
:103CF00086E0FE013D96DE01179601900D928A95B1
:103D0000E1F7CE0107960E94D01C882389F016E0C7
:103D10008091700290913F02891349C067960FB657
:103D2000F894DEBF0FBECDBFDF91CF911F910895F4
:103D300086E0FE013796DE01119601900D928A957C
:103D4000E1F78A859B85892B11F38F8198858923DB
:103D50008F3FE9F220913F0230E0C9010196877060
:103D60009927409170024817190671F40E947B133D
:103D700010923F021092700286E0E9E3F2E0DF0168
:103D80001D928A95E9F7C3CF96E0929FD001939F49
:103D9000B00D1124A05CBD4FFE01319601900D9233
:103DA0009A95E1F780933F020E947B06B0CF819FF6
:103DB000C0011124805C9D4F0E94D01C882309F40F
:103DC000ADCF8091700290E0019687709927809323
:103DD00070029ECF1F920F920FB60F9211242F9355
:103DE0003F934F935F936F937F938F939F93AF9383
:103DF000BF93CF93DF93EF93FF93D091E900DF70F0
:103E00008091EC00C82FC17080FDC0E81092E900DD
:103E10008091F000877F8093F00078940E94901347
:103E20001092E9008091F00088608093F000CD2B23
:103E3000CF70C093E900FF91EF91DF91CF91BF91D7
:103E4000AF919F918F917F916F915F914F913F9132
:103E50002F910F900FBE0F901F9018951F920F92E9
:103E60000FB60F9211242F933F934F935F936F934D
:103E70007F938F939F93AF93BF93EF93FF93809123
:103E8000E10082FF09C08091E20082FF05C08091BD
:103E9000E1008B7F8093E1008091DA0080FF24C0F5
:103EA0008091D80080FF20C08091DA008E7F8093BF
:103EB000DA008091D90080FF9BC080E189BD82E15A
:103EC00089BD09B400FEFDCF81E080930403809199
:103ED000DF02811109C00E94E0030E94AB048091BF
:103EE000E20084608093E2008091E10080FF17C0CF
:103EF0008091E20080FF13C08091E2008E7F80936A
:103F0000E2008091E20080618093E2008091D8001D
:103F100080628093D80019BC85E08093040380916F
:103F2000E10084FF29C08091E20084FF25C080E188
:103F300089BD82E189BD89B5982F917080FFFBCF43
:103F40008091D8008F7D8093D8008091E1008F7E92
:103F50008093E1008091E2008F7E8093E200809167
:103F6000E20081608093E20080910503882309F4D8
:103F700045C084E0809304038091E10083FF27C063
:103F80008091E20083FF23C08091E100877F8093CE
:103F9000E10082E080930403109205038091E10028
:103FA0008E7F8093E1008091E2008E7F8093E2001B
:103FB0008091E20080618093E20042E060E080E076
:103FC0000E9479048091F00088608093F000FF9156
:103FD000EF91BF91AF919F918F917F916F915F9181
:103FE0004F913F912F910F900FBE0F901F901895FA
:103FF00019BC109204031092DF0276CF8091E30087
:1040000087FD93E090930403B7CFCDB7DEB7AA97AF
:104010000FB6F894DEBF0FBECDBF84B7877F84BFD5
:104020000FB6F894A8958091600088618093600035
:10403000109260000FBE80E890E00FB6F894809375
:104040006100909361000FBE85B7806885BF85B71A
:10405000806885BF8BE695E090939D0180939C01DD
:104060000E94E0030E94AB048091E2008460809390
:10407000E2007894809104038823A1F01091E90074
:104080001F709091EC00892F817090FD80E8182BB3
:104090001092E9008091E80083FD0E9490131F7048
:1040A0001093E90082E084BD93E095BD9AEF97BD3F
:1040B00080936E0009E711E0F80181918F010E9461
:1040C0007608F1E008381F07B9F780E90E94760802
:1040D00081E90E94760882E90E94760883E90E94BD
:1040E000760885E90E9476081092AD021092AC0223
:1040F0001092D6021092D5021092AF021092AE0228
:104100001092D8021092D7021092B1021092B0020F
:104110001092DA021092D9021092B3021092B202F7
:104120001092DC021092DB021092B5021092B402DF
:104130001092DE021092DD020E94C20F2FEF86E77E
:1041400091E0215080409040E1F700C000000E94C3
:10415000C20F8091D50280FF17C06FEF82E290E01E
:104160000E940C266FEF83E290E00E940C266FEF16
:1041700084E290E00E940C266FEF7FEF90E080E0F9
:104180000E942A260E94FA0B90E080E00E940626F8
:104190008B3E9E4F11F00E94F611849A8C9A82E217
:1041A00090E00E94F825823209F0EEC383E290E0AD
:1041B0000E94F825813009F0E7C384E290E00E9474
:1041C000F825853109F0E0C390E080E00E940626E2
:1041D0008B3E9E4F11F00E94F61182E090E00E940B
:1041E000F8258093C3020E94D6089093B70280936B
:1041F000B60283E090E00E94F825682F70E090E01E
:1042000080E00E9456078091B802811136C090E08C
:1042100080E00E9406268B3E9E4F21F00E94F61100
:104220000E946B1388E090E00E9400266093D00209
:104230007093D1028093D2029093D3026E7F71F477
:104240000E946B1388E090E00E9400266093D002E9
:104250007093D1028093D2029093D3020E94C70739
:104260001092CF028091D00280FF04C060E086955A
:104270000E94621681E08093B80282E191E09093FF
:10428000BA028093B90258E1E52EF12C60E4B62E13
:104290007FEDC72E72E0D72E8091040300E112E17A
:1042A000853009F4F6C00E94C20F882359F08FB7F9
:1042B000F89440910E0350910F0360911003709198
:1042C00011038FBFA5EDB2E0E4ECF2E010E000E0F6
:1042D000702F8D919D91219131912817390709F403
:1042E000EAC02827392760E088248394912CA9010B
:1042F00048215921452B09F4D8C069A37AA39C0110
:104300002821392191E0232B09F490E09BA30E94FE
:1043100071058160782F9DA38CA349A15AA16BA13F
:104320008DA10E945A1E000F111FF801EC53FD4F82
:104330008081918188269926918280828091CF0206
:104340008823D1F18091CE02E091D002E695E81B5E
:10435000E093BE02823009F0C5C0F0E0E756F94FA5
:10436000E4910E2F10E0FEE98F2EFFE09F2E80914A
:10437000BF02882361F01092BF020E9471059093E2
:10438000BD028093BC021092C1021092C0020E9432
:104390007105E091BC02F091BD028E1B9F0B8F3F17
:1043A0009F4750F4E00FF11FF093BD02E093BC0271
:1043B0008CEB92E0F40109950E9460079091C20293
:1043C000891731F00E9460078093C2020E94D008D2
:1043D00080910403843009F05FCF83E08093E9008B
:1043E0008091E80082FF58CF8091E80090E085FF3F
:1043F00006C00E94FF03882309F4E0C091E0809189
:10440000E8008B778093E800992309F445CFE98190
:10441000E150E33108F06FC1F0E0E352F94D0C9444
:10442000732580910403843021F180E00E94D0083C
:104430001092BB020FB6F894A895E09260000FBEF0
:10444000B092600083B7817F846083BF83B781604F
:1044500083BF7894889583B78E7F83BF0FB6F89417
:10446000A895809160008861809360001092600040
:104470000FBE80910303882361F00E94C20FE5ED17
:10448000F2E081919191892B09F068C2CE16DF0686
:10449000C1F780910403853009F4C3CF0E947B13D8
:1044A0000E9460070E94D008FECE6F5F880C991CA6
:1044B0006F3009F01CCF0F5F1F4F0530110509F059
:1044C00007CF8FEF8EA38FA318A60E94710581607E
:1044D000782F9AA789A74EA15FA168A58AA50E94F7
:1044E0005A1E2CCF863059F4F0E0EA56F94FE49189
:1044F0000E2F10E0E2EB8E2EEFE09E2E38CF8930AB
:1045000061F4E695F0E0ED56F94FE4910E2F10E0DE
:104510007CE8872E7DE0972E2ACF8F3061F4E695D8
:10452000F0E0E057F94FE4910E2F10E066EB862E95
:104530006DE0962E1CCF853159F4F0E0E357F94F2A
:10454000E4910E2F10E054E2852E5EE0952E0FCF01
:1045500008E210E022E7822E2EE0922E883109F444
:1045600006CF833249F4EBE8F6E00591149145E477
:10457000842E4FE0942EFBCE04EF11E09BEF892EAA
:104580009EE0992E843209F4F2CE853281F48E2F8A
:1045900063E00E943125E92FF0E0E857F94FE491FC
:1045A0000E2F10E037E4832E31E1932EE0CE00EDA4
:1045B00017E08AE6882E85E0982ED9CE00E210E03A
:1045C000CE0101964C018091E80085FD0AC08091E2
:1045D000E8008B778093E8000E94FF03882399F31B
:1045E0000DCF8091F100F40181934F010150110929
:1045F00051F704CF1A8289E08B831AC08A818230F6
:1046000009F4DBC18330D9F1813009F074C02FB7D0
:10461000F89460910E0370910F03809110039091B4
:1046200011032FBF0E9479256B837C838D839E832A
:1046300080910403843009F02FCE1091E9001F709F
:104640009091EC00892F817090FD80E8182B82E01A
:104650008093E9008091E80080FF0DC050E040E0C9
:1046600060E270E0CE0101960E9430048091E80083
:104670008E778093E8001F701093E9000DCE809133
:10468000D5029091D6029827892798279C838B83FF
:104690008091D7029091D8029827892798279E83E6
:1046A0008D838091D9029091DA02982789279827E3
:1046B00098878F838091DB029091DC02982789276D
:1046C00098279A8789878091DD029091DE0298274A
:1046D000892798279C878B87ABCF8A81823059F4B2
:1046E0006B817C818D819E810E94792585E290E09D
:1046F0000E940C269DCF8FEF89839ACF4C816B81CE
:104700008A810E94E4089827892798279E838D83B1
:104710008FCF2D813E813227232732274C816B8119
:104720008A810E941F0B84CF0E94480B81CF8A810F
:104730008138C1F060F4803809F07ACF20E04B81F5
:104740006091D2028091D1020E94721271CF8238A0
:1047500059F1833809F06CCF20E04091D3026C818D
:104760008B81F2CF60E08B810E9462169B818091E9
:10477000D002911111C08E7F8093D0021092CF028F
:10478000FFEF20E782E0F15020408040E1F700C0D9
:1047900000000E94570D4CCF81608093D00260E0F2
:1047A00086950E94621644CF8B818093D40240CFBD
:1047B0008A81813899F030F4803809F039CF8091BE
:1047C000D3021ACF823891F0833809F031CF80912B
:1047D000D1028B838091D2028C832ACF8091D00228
:1047E00080FF02C0869508CF80E006CF8091D4027A
:1047F00003CF6091D0027091D1028091D20290914A
:10480000D3020E94601214CF80E18A8311CF81E02D
:104810008A8382E8F1CE0C8110E00D31110508F099
:1048200007CF6A807B80762467247624FE01319648
:104830004F010E0F1F1FC30182589D4F8016910616
:1048400009F4F6CEF2E86F16F1E07F0658F40E9404
:10485000F825F4018483FFEF6F1A7F0A2FEF821A85
:10486000920AE9CFF4011482F6CF8C80912C8DE16D
:104870008816910408F0DCCE0A811B8110270127DD
:104880001027FE0131963F01800E911EC80182580B
:104890009D4F8016910609F4CBCE0238F1E01F0738
:1048A00020F4F30164810E940C26FFEF6F1A7F0A47
:1048B0000F5F1F4FEBCF0E940F0BBACE84E0A5CF46
:1048C0000C8110E00D31110508F0B2CE6A807B80BA
:1048D000762467247624CE0101964C01080F191F17
:1048E000C30186968016910609F4A2CEE8E56E16FD
:1048F000E2E07E0658F40E94F825F4018483FFEF7D
:104900006F1A7F0A2FEF821A920AEACFF4011482FB
:10491000F6CF8C80912C8DE18816910408F088CE1A
:104920000A811B81102701271027FE0131963F01C4
:10493000800E911EC80186960815190509F478CED7
:104940000835F2E01F0720F4F30164810E940C2671
:10495000FFEF6F1A7F0A0F5F1F4FECCF09BD19BD24
:1049600009B400FEFDCF8091D8008F7D8093D800E0
:104970008091E00082608093E0008091E00081FD02
:10498000FCCF0E947B1385CD60E085E290E00E9421
:104990000C260E94480B0E940F0B62E282E290E01C
:1049A0000E940C2661E083E290E00E940C2665E103
:1049B00084E290E00E940C2607CC85E290E00E9401
:1049C000F8251B821C821D828E8332CE78941F9222
:1049D0001FB61F9211248F939F93AF93BF93809123
:1049E0000E0390910F03A0911003B0911103019653
:1049F000A11DB11D80930E0390930F03A09310038C
:104A0000B0931103BF91AF919F918F911F901FBEE3
:104A10001F9018951F921FB61F9211248F939F937A
:104A2000AF93BF938091BB02811113C080910E039D
:104A300090910F03A0911003B09111034196A11D15
:104A4000B11D80930E0390930F03A0931003B093B6
:104A50001103BF91AF919F918F911F901FBE1F9027
:104A60001895991B79E004C0991F961708F0961BBA
:104A7000881F7A95C9F78095089587FB082E06262A
:104A800087FD819567FD61950E9431250EF4919512
:104A900007FC81950895AA1BBB1B51E107C0AA1F03
:104AA000BB1FA617B70710F0A61BB70B881F991FCF
:104AB0005A95A9F780959095BC01CD01089597FB73
:104AC000072E16F4009407D077FD09D00E944B25DD
:104AD00007FC05D03EF4909581959F4F0895709501
:104AE00061957F4F0895EE0FFF1F0590F491E02D23
:104AF00009946927962769277827872778270895B3
:104B00000E949426332312F48A1B9B0B0C948A2553
:104B10000E949426B7FF0895821B930B08958F92ED
:104B20009F92AF92BF92CF92DF92EF92FF92CF937C
:104B3000DF93EC01688179818A819B816115710520
:104B40008105910521F464E279ED8BE597E02DE193
:104B500033EF41E050E00E94402649015A019B0199
:104B6000AC01A7EAB1E40E945F266B017C01ACEEC8
:104B7000B4EFA50194010E946D26DC01CB018C0DE0
:104B80009D1DAE1DBF1DB7FF03C00197A109B04811
:104B900088839983AA83BB839F77DF91CF91FF900E
:104BA000EF90DF90CF90BF90AF909F908F9008953F
:104BB0000E948F25089580E091E00E948F2508953E
:104BC000B0E0A0E08093000190930101A093020166
:104BD000B09303010895FC014150504030F0019022
:104BE0000616D1F73197CF010895882799270895A0
:104BF000F999FECF92BD81BDF89A992780B50895A5
:104C0000A6E1B0E044E050E00C943226A8E1B0E028
:104C100042E050E00C943226262FF999FECF92BD47
:104C200081BDF89A019700B4021639F01FBA20BD71
:104C30000FB6F894FA9AF99A0FBE08950396272FA3
:104C40000E940D260E940C26252F0E940D26242F3F
:104C50000C940D260196272F0E940D260C940C26ED
:104C6000DC01CB01FC01F999FECF06C0F2BDE1BD2C
:104C7000F89A319600B40D9241505040B8F708951B
:104C8000052E97FB1EF400940E94572657FD07D06F
:104C90000E94722607FC03D04EF40C9457265095C0
:104CA0004095309521953F4F4F4F5F4F0895909518
:104CB0008095709561957F4F8F4F9F4F08950E940B
:104CC0009426A59F900DB49F900DA49F800D911DDB
:104CD00011240895B7FF0C945F260E945F26821B63
:104CE000930B0895A1E21A2EAA1BBB1BFD010DC058
:104CF000AA1FBB1FEE1FFF1FA217B307E407F5078C
:104D000020F0A21BB30BE40BF50B661F771F881F67
:104D1000991F1A9469F760957095809590959B01FD
:104D2000AC01BD01CF010895A29FB001B39FC001A6
:104D3000A39F700D811D1124911DB29F700D811DC7
:104D40001124911D0895F894FFCFFA0AFA0A030B73
:104D5000030B050B030B030B030BFA0AFA0A0A0BEE
:104D6000030B030B0A0B75149D14F0149D14F0141F
:104D7000D0140815F01410161D16E119E1193F1A88
:104D80003F1A981A161A161A161AB21A881B971B67
:104D9000971B0A19311938193D19421947194C192D
:104DA000511956195B196019651968196D1970192F
:104DB0007319761979197C197F19FA22FE226D234D
:104DC0007E23892394239723D823F9237B237B23D2
:104DD000042407240B2435245B245E2460248924C6
:104DE0000100000001191A1B1C1D1E1F2021220199
:104DF00002016E05BA0B6D05B60BB20B0100010284
:104E00000202020606060909090909090F0F0F0F18
:104E10000F0F151515181919191919191919191923
:104E20002324252525252525818283E200E900EA22
:104E300000B500B600B700CD008301CC008A019216
:104E40000194012102230224022502260227022ABC
:104E500002B300B4006F007000F0F1C667663694CC
:104E600031F7353497963332909192939540226D75
:0C4E70003B011901AC00AF06C806E806C3
:00000001FF
