:100000000C94FB010C9442020C9442020C944202A8
:100010000C9442020C9442020C9442020C94420250
:100020000C9442020C9442020C9433210C9407224B
:100030000C94A61B0C9442020C9442020C944202B3
:100040000C9442020C9442020C9442020C94420220
:100050000C9442020C94FD1B0C9442020C9442023C
:100060000C9442020C9442020C9442020C94420200
:100070000C9442020C9442020C9442020C944202F0
:100080000C9442020C9442020C9442020C944202E0
:100090000C9442020C9442020C9442020C944202D0
:1000A0000C9442020C9442020C944202A8000000FC
:1000B000AE002A00B2005400550056005F006000F8
:1000C000610057005C005D005E00000059005A00AE
:1000D0005B005800620000006300000001000000A7
:1000E0000100010001000100010001000100010008
:1000F00001000100010001000100000001000100F9
:1001000001000100010000000100000001000000EA
:1001100001000100010001000100010001000100D7
:1001200001000100010001000100000001000100C8
:1001300001000100010000000100000001000000BA
:1001400001000100010001000100010001000100A7
:100150000100010001000100010000000100010098
:10016000010001000100000001000000000000008B
:10017000000000002A2B2800000000000000000002
:100180000000000000000029000000002C1E3420A8
:10019000212224342627252E362D3738271E1F20CE
:1001A0002122232425263333362E37381F04050613
:1001B0000708090A0B0C0D0E0F1011121314151657
:1001C0001718191A1B1C1D2F3130232D3504050655
:1001D0000708090A0B0C0D0E0F1011121314151637
:1001E0001718191A1B1C1D2F3130354C0000000048
:1001F00000000000000000000000000000000000FF
:1002000000000000000000000000000000000000EE
:100210007E0F00D4FFFFFFC70000007822034C00D0
:1002200061006E00650077006100720065005F008C
:100230004D004100430052004F005F0031000000BC
:100240002A034C0061006E006500770061007200B7
:1002500065005F0050006500720069007000680072
:100260006500720061006C00730000000403090463
:1002700009025B00030100A0FA0904000001030168
:100280000100092111010001224000070581030836
:10029000000A090401000203000000092111010005
:1002A0000122220007058203200001070503032025
:1002B00000010904020001030000000921110100EE
:1002C0000122B6000705840320000A120100020083
:1002D000000008504C99990100010200010660FFDE
:1002E0000961A1010962150026FF009520750881AA
:1002F000020963150026FF00952075089102C005CC
:10030000010902A10185020901A1000509190129BC
:1003100008150025019508750181020501093009BC
:10032000311581257F9502750881060938158125CB
:100330007F950175088106050C0A38021581257F15
:10034000950175088106C0C005010980A1018503DA
:1003500019012AB700150126B70095017510810013
:10036000C0050C0901A101850419012AA00215018B
:1003700026A002950175108100C005010906A101A2
:100380008505050719E029E7150025019508750180
:1003900081020507190029EF1500250195F0750167
:1003A000810205081901290595057501910295013C
:1003B00075039101C005010906A101050719E0298E
:1003C000E7150025019508750181029501750881E1
:1003D000010507190029FF150026FF00950675087D
:1003E00081000508190129059505750191029501FE
:1003F00075039101C00011241FBECFEFDAE0DEBF0C
:10040000CDBF04B603FE27C0809181029091820285
:10041000A0918302B09184028730904BA740B04BEB
:10042000D1F41092810210928202109283021092F3
:10043000840214BE84B7877F84BF0FB6F894A89552
:1004400080916000886180936000109260000FBE10
:10045000E0E0F8E3099511E0A0E0B1E0E4EFF8E4B2
:1004600002C005900D92A03AB107D9F722E0A0EAA8
:10047000B1E001C01D92A138B207E1F70E946012FD
:100480000C943D240C940000811106C089EA61118E
:1004900001C08AEA0E94590580E0089581E008952C
:1004A00081E008950C94500208950C9454021F9317
:1004B000CF93DF9300D000D00F92CDB7DEB7498342
:1004C0005A836B833091A20189819A8131111DC0B9
:1004D0006623B9F02223A9F00E94B308182F682FD1
:1004E00089819A810E94600869817A81812F0F90A9
:1004F0000F900F900F900F90DF91CF911F910C9460
:100500005C170E948C08182FEFCF0E94B3086981F6
:100510007A81EDCFFC01262F408151816281738168
:1005200084810C94570281E00895CF93DF93EC010E
:1005300060E00E948A02BE01DF91CF910C945502C7
:10054000E1E0F0E0DF0102C0AA0FBB1F6A95E2F70D
:10055000BD01DF0102C0AA0FBB1F4A95E2F76A2B5B
:1005600001C0EE0F2A95EAF7962F9823961302C042
:100570008E2B0895E0958E230895242F462F682F03
:100580008091AC010E94A0020C941D080E940411ED
:100590000E940E040C941F110C94221108950E94C5
:1005A000B5070E94CE022FEF84E39CE021508040EB
:1005B0009040E1F700C000000C94211C0F931F93A2
:1005C000CF93DF938C0161E00E948A02EC01B801B5
:1005D0000E94A5158823D9F1B801CE010E945202CC
:1005E0008823A9F1B801CE010E949318882379F1DC
:1005F000B801CE010E94E518882349F1B801CE0167
:100600000E94081A882319F1F8018281882361F079
:10061000CA35FDE5DF0721F170F4C115ECE5DE0711
:10062000A1F0CE3DDC45C9F0C801DF91CF911F910B
:100630000F910C944E02CB358DE5D807A1F0CC3547
:10064000DD4591F70E947B0CEFCF0E94CF0280E046
:10065000DF91CF911F910F9108950E94F10DF7CF77
:100660000E94840CE1CF0E94870CDECFDF92EF92D4
:10067000FF920F931F93CF93DF93E82FF0E0E4599D
:10068000FE4FD490282F26952695269530E0F90127
:10069000E45FFD4F0491877010E0082E02C01595AD
:1006A00007950A94E2F701701127F901E450FE4F13
:1006B000E490F12C082E02C0F594E7940A94E2F736
:1006C00091E0E922FF24F901E451FE4FC491D0E00A
:1006D00002C0D595C7958A95E2F7C170DD2701154F
:1006E000110519F081EE0E945A04E114F10419F089
:1006F00086EE0E945A048D2D0E945905EF2819F0AC
:1007000086EE0E94EC04012B19F081EE0E94EC04AD
:10071000CD2B51F08CE2DF91CF911F910F91FF9083
:10072000EF90DF900C945905DF91CF911F910F91BD
:10073000FF90EF90DF900895EF92FF920F931F9339
:10074000CF93DF93EC01162F0AE08881882309F408
:1007500054C0813009F04EC08981813099F47E0106
:1007600022E0E20EF11C8A810E945905E7012196E0
:10077000812F815050F3EFE9FFE03197F1F700C08E
:100780000000F7CF823041F47E0182E0E80EF11CD8
:100790008A810E945A04EACF833041F47E01E2E06C
:1007A000EE0EF11C8A810E94EC04E0CF843011F03F
:1007B0002196DDCF2A81229690E080E0AE014F5F46
:1007C0005F4F2053330B2A30310548F0019778F200
:1007D000EFE9FFE03197F1F700C00000F7CF089F85
:1007E000B001099F700D1124C901860F971F29813F
:1007F000EA01E4CF0E943603BACFDF91CF911F9177
:100800000F91FF90EF90089560E00C949C03089581
:100810000C94070481E008950C940A040895CF9382
:10082000C82F0E9408048C2FCF910C940C04CF93F6
:10083000DF93CDB7DEB72B970FB6F894DEBF0FBEB0
:10084000CDBF4F83588769877A878B8761110E9454
:10085000AA0C1E821D8285E0FE013796DE011196EC
:1008600001900D928A95E1F78C819D81892B89F405
:1008700049815A816B817C818D819E810E94AA0B66
:100880002B960FB6F894DEBF0FBECDBFDF91CF9190
:10089000089589819A8189238F3F51F3CE01019672
:1008A0000E9493028111E4CFEBCFFC018081918102
:1008B0000C94E008CF93C82F882309F48BC08238AA
:1008C000C1F40E94371A81FD85C089E30E94440C5F
:1008D0000E94DA0C2FEF81EE94E02150804090408E
:1008E000E1F700C0000089E30E944B0CCF910C940B
:1008F000DA0C8338A1F40E94371A80FD6BC083E5BF
:100900000E94440C0E94DA0C2FEF81EE94E02150FB
:1009100080409040E1F700C0000083E5E5CF8438D7
:10092000A1F40E94371A82FD55C087E40E94440C4E
:100930000E94DA0C2FEF81EE94E02150804090402D
:10094000E1F700C0000087E4CFCF8CEF8C0F813A35
:1009500090F46C2F80910001909101010E94AB1ADC
:10096000882329F08C2F0E944B0C0E94DA0C8C2FCC
:100970000E94440CBBCF80E28C0F883048F4C770D3
:1009800081E001C0880FCA95EAF70E948D0CAECFB6
:10099000EBE5EC0FE33040F4F0E0ED5BFE4F8081DF
:1009A00090E0CF910C946B1AE8E5EC0FE73150F42E
:1009B000F0E0EE0FFF1FEB5EFE4F80819181CF9143
:1009C0000C94811AC03F30F08C2F0E94EE12CF9110
:1009D0000C94C113CF910895882309F452C0823832
:1009E00071F40E94371A81FF4CC089E30E94440CC5
:1009F0000E94DA0C89E30E944B0C0C94DA0C8338C9
:100A000059F40E94371A80FF3CC083E50E94440CD1
:100A10000E94DA0C83E5EFCF843859F40E94371A2C
:100A200082FF2FC087E40E94440C0E94DA0C87E406
:100A3000E2CF9CEF980F913AF0F290E2980F983045
:100A400050F4877091E001C0990F8A95EAF7892FD9
:100A50000E94930CD2CF9BE5980F933020F490E046
:100A600080E00C946B1A98E5980F973120F490E091
:100A700080E00C94811A803F20F00E9448130C946F
:100A8000C11308951F93CF93DF93182FEB010E949A
:100A90005A04209731F4812FDF91CF911F910C944C
:100AA000EC048FE99FE00197F1F700C00000219767
:100AB000F0CF70E060E0893311F460E570E00C94F1
:100AC0004205882321F00E948D0C0C94DA0C0895C5
:100AD000882321F00E94930C0C94DA0C0895BF92A5
:100AE000CF92DF92EF92FF920F931F93CF93DF93FA
:100AF0006C01D62FC72FFC011281058102950F7062
:100B00000E94620CE82E8823A1F0E12E112389F0C7
:100B10008C2F807F803429F080E28D0FE12C88308B
:100B200040F082E00E942B0D0E94620C91E0E82EC2
:100B3000E926BC2EB2949FE0B922EB2DF0E0E15CF7
:100B4000FB4D0C94CD230C2F0F70C07F11F002953C
:100B5000007F1123A9F0002359F080E28D0F883027
:100B600010F0D11109C0802F0E948D0C0E94DA0C68
:100B70008D2F0E945A0414C0802F0E949D0CF6CF26
:100B80008D2F0E94EC04002359F080E28D0F8830F5
:100B900010F0D1112CC0802F0E94930C0E94DA0C0F
:100BA0002B2D2850330B2430310520F40E94371AA6
:100BB0000E940F04EE2009F479C10E945E0C80FDB2
:100BC00075C1F60112820E94580C0E942E08C601BF
:100BD0000E9477070E94580CDF91CF911F910F91CF
:100BE000FF90EF90DF90CF90BF900C943908802F4A
:100BF0000E94A30CD3CFFC2FFF70FF2EC07FC0320A
:100C000019F0F29480EFF822DD2369F0D13049F138
:100C1000112391F1002351F1F601858180FFA8CFC6
:100C20008F70858323C0112381F0011106C00E94BB
:100C3000BD0C8F290E946105B3CF0130C1F70E941E
:100C4000BD0C8F290E94C30CABCF011106C00E94BE
:100C5000D00C8F2D0E946805A3CF013009F4A0CFDE
:100C6000F6CF112329F0063008F09ACF8F2DE2CF6E
:100C7000053008F095CFEDCF002359F3D93349F46F
:100C8000FFEF27EE33E0F15020403040E1F700C0A5
:100C900000008D2F0E94EC0483CF8C2F86958695C3
:100CA000837069F0813009F07BCF8D2F9C2F93707A
:100CB000111102C090E080E00E94811A71CF8D2F47
:100CC0009C2F9370111102C090E080E00E946B1A7B
:100CD00067CF8D2F112329F00E94EE120E94C113BD
:100CE0005FCF0E944813FACF8C2F837079F51111D2
:100CF00057CF4D2F429546954770440F440F8D2F87
:100D00008F70042E01C0880F0A94EAF72D2F2071EE
:100D1000D4FF07C02FE030E001C0220F4A95EAF768
:100D20002095C695C695C370822BC23049F058F401
:100D3000C13019F00E940F0833CF0E940A0830CF4B
:100D40000E9414082DCF0E9408082ACF86951123EF
:100D500011F08C2F8170882309F422CF4D2F4295FA
:100D600046954770440F440F8D2F8F70042E01C09D
:100D7000880F0A94EAF72D2F2071D4FF07C02FE0C7
:100D800030E001C0220F4A95EAF72095C695C69536
:100D9000C370822BC23049F058F4C13019F00E9460
:100DA0005508FECE0E945008FBCE0E945A08F8CE8D
:100DB0000E941D08F5CECF70112329F08C2F0E94C0
:100DC0002E088D2F37CF8D2F0E9468058C2F0E9403
:100DD0003908E6CED23F89F160F4D03FC9F0D13F67
:100DE00029F1112309F442C00111C2CE8C2F8F7159
:100DF00021C0D33F39F1D43FA1F7112369F1CF715D
:100E00008C2F0E942E0863E08C2F0E94100DC8CEFC
:100E1000112341F0053008F0C3CE8C2F8F710E9452
:100E20004508BECE063008F0BBCEF7CF8C2F8F71B1
:100E3000112369F20E942E08B3CE8C2F8F711123DB
:100E4000C9F3C5CF112329F08C2F8F710E9426087A
:100E5000A7CE0E942308A4CE81E00E942B0D023071
:100E600008F49ECE82E00E942B0D9ACE002359F00A
:100E7000D93309F00ECF8FEF97EEE3E08150904029
:100E8000E040E1F704CF8C2F8F71A1CF4C2F4F7032
:100E90006D2FC6010E94ED0E0E940E0981CE4C2FCF
:100EA0004F706D2FC6010E94F00E7ACEDF91CF9168
:100EB0001F910F91FF90EF90DF90CF90BF9008951A
:100EC0000F931F93CF93DF93EC01688179818A811F
:100ED0000E94EA088C010E945F080E940708B8017E
:100EE000CE01DF91CF911F910F910C946F05CF939D
:100EF000DF93EC018B819C81892B29F0888199817A
:100F000089238F3F59F4DF91CF910895CE010E943C
:100F10006007CE01DF91CF910C949502CE010E9423
:100F2000DE028111F3CF0E94620C882361F38A8173
:100F3000882349F382E0DF91CF910C942B0D90E050
:100F400080E00E946B1A90E080E00E94811A0E946B
:100F5000AA0C0E94BA0C0E94DA0C0E94E8140C94AD
:100F6000C1130E94520C0C949F070E949A0C0C947F
:100F7000B107E92FE295EF70E250EE3070F4F0E047
:100F8000E15BFB4D0C94CD23803F19F020F4883EAB
:100F900020F481E00895843FE1F380E00895883EE5
:100FA000C0F3813FD1F7F5CF93FB882780F90895EF
:100FB000FC01808191810E94E0080C94B907CF93D5
:100FC000DF9300D000D00F92CDB7DEB70F900F9017
:100FD0000F900F900F90DF91CF910895CF93DF93F3
:100FE00000D000D000D0CDB7DEB726960FB6F8946B
:100FF000DEBF0FBECDBFDF91CF91089508950C9451
:10100000FE070E94FF078093AD010C949F0708958F
:101010000C9401089091AD01892B0C9401089091DA
:10102000AD0189230C9401089091AD0189270C949E
:1010300001080C94FE070C9419080E941B08809369
:10104000AC010C949F0780E00C941D0891E001C056
:10105000990F8A95EAF7892F0C941D0821E030E05A
:1010600001C0220F8A95EAF78091AC01822B0C9483
:101070001D0821E030E001C0220F8A95EAF7209593
:101080008091AC0182230C941D0821E030E001C066
:10109000220F8A95EAF78091AC0182270C941D08F3
:1010A0009091AC01892B0C941D089091AC0189237F
:1010B0000C941D089091AC0189270C941D0808958B
:1010C000990F990F890F982F977041E001C0440F35
:1010D0009A95EAF786958695869593E0899FF00123
:1010E0001124ED55FE4F30E020E070E05191DF011A
:1010F0001197CB01022E02C0969587950A94E2F7CC
:10110000817081958527842385278C932F5F3F4F9E
:101110002330310559F70895990F990F890F982FAA
:10112000977086958695869523E0829FF00111241D
:10113000ED55FE4F50E040E080E0219130E0092E77
:1011400002C0369527950A94E2F721703327042EC2
:1011500001C0220F0A94EAF7822B4F5F5F4F4330A2
:10116000510559F70895CF92DF92FF920F931F9385
:10117000CF93DF936C010091AC018091AD01082BFE
:10118000C7E0D0E010E0FC2EC8010C2E02C09595FF
:1011900087950A94E2F780FD0CC02197A0F7F12C07
:1011A0008F2DDF91CF911F910F91FF90DF90CF9006
:1011B0000895B6018C2F0E940C10019771F3F0CFA7
:1011C000CF93DF93EC010E94B308BE01DF91CF9172
:1011D0000C940C101F93CF93DF93EB019091A2011D
:1011E000992331F0CB01DF91CF911F910C94E0084E
:1011F000882379F0CB010E94B308182F682FCE0105
:101200000E946008BE01812FDF91CF911F910C9445
:101210000C10CB010E948C08182FF4CFEF92FF9294
:101220000F931F93CF93DF938C01892B81F0F12CC7
:10123000EE24E394E8012196F8018491843770F458
:10124000843008F05FC08130B1F08230A1F1DF91CD
:10125000CF911F910F91FF90EF900895853709F47A
:101260004CC008F43DC09CE7980F903780F78F770B
:101270000E94EC0449C00E5F1F4FFE01849190E272
:10128000980F983060F48770FE2D01C0FF0F8A958B
:10129000EAF78F2F0E94AD0C0E94DA0C02C00E9468
:1012A0005A048F2D815030F2EFE9FFE03197F1F7CA
:1012B00000C00000F7CF0E5F1F4FFE01849190E247
:1012C000980F983050F48770FE2D01C0FF0F8A955B
:1012D000EAF78F2F0E94B30CDFCF0E94EC04E1CF1E
:1012E0000E5F1F4FFE01C491C150D8F28FE99FE0FD
:1012F0000197F1F700C00000F7CF0E5F1F4FFE010E
:10130000F490CFCF0E945A048E01CBCF1F93CF937E
:10131000DF93C091AE0116E08091AF018C1304C041
:10132000DF91CF911F910895D0E01C9FF0011D9F88
:10133000F00D1124E055FE4F40815181628173818F
:10134000848195810E94EE072196C770E5CF409178
:10135000E0015091E1016091E2017091E30180911F
:10136000E4019091E5010C94EE071F93CF93DF9376
:101370008091E501807FA9F48091E201882389F0C2
:101380008091AE01C091AF016091E0017091E101E7
:10139000A091E301B091E401D62FD72316E0C81342
:1013A00004C0DF91CF911F91089590E0109711F044
:1013B000DF3F19F401968770F2CF189F9001199FB3
:1013C000300D1124F901E055FE4F41814713F2CF52
:1013D00040814613EFCF42814111ECCF43815481CC
:1013E0004A1B5B0B483C510528F78091E5018F7043
:1013F00080618093E501F901EB54FE4F80818F708D
:101400008061808380EE91E00E947707DF91CF9129
:101410001F910C948609AF92BF92CF92DF92EF9208
:10142000FF920F931F93CF93DF93CDB7DEB76197F2
:101430000FB6F894DEBF0FBECDBF8C0185E0F8017A
:10144000DE011D9601900D928A95E1F7F801E28088
:1014500080EEC82E81E0D82E6091E3017091E40106
:101460006115710509F45AC19091E0012091E101E3
:10147000892F82238F3F09F451C140815181A3807C
:10148000B480F090E201F501E61BF70BFF2009F4B0
:10149000F6C08091E501382F307FE83CF10508F077
:1014A000AFC0311179C0FE2C251323C0941321C085
:1014B000E1101FC08F7080618093E5010E94A70931
:1014C000C6010E9477078091E501F80185838F2D81
:1014D00061960FB6F894DEBF0FBECDBFDF91CF91FE
:1014E0001F910F91FF90EF90DF90CF90BF90AF9042
:1014F0000895AB2829F0842F85238F3F09F027C159
:1015000080E0F82FF170DF2E80FF3CC08091AE01AB
:101510002091AF0136E0821315C04D875E878D851F
:101520009E850E94E008292F22952F702230F0F02E
:10153000243018F59F70F1F0F8019581907FD1F477
:10154000D12C1EC090E0389FF001399FF00D11247E
:10155000E055FE4F6181651306C06081641303C0CE
:101560006281E6120FC001968770D5CF9F7011F08F
:10157000882331F3805E883018F3C8010E94770712
:10158000FD2CA5CFEE2009F4A2CF8091E50181606A
:101590008093E501F12C9BCF251306C0941304C062
:1015A000F801EE2009F487C0C8010E94D8078823FB
:1015B00019F1EE2009F18091E501803270F020915F
:1015C000E0013091E10138872F831986BB86AA8616
:1015D0008C87CE0107960E94770786E0F801A0EE7F
:1015E000B1E001900D928A95E1F70E94B5090E9441
:1015F000A709FF24F3946BCFC8010E947707F9CFA6
:10160000311113C07A2DB98AA88A6E2D89890E945A
:10161000DF0780EE91E00E94770786E0F6011192E5
:101620008A95E9F70E94A709B5CF25130FC0941337
:101630000DC0E1100BC0F8018583C8010E94770737
:1016400086E0F60111928A95E9F741CFC8010E9420
:10165000D807882389F2EE2079F28091E501803263
:1016600008F4BBCF2091E0013091E1013A83298356
:101670001B82BD82AC828E83CE010196ACCFE83C4A
:10168000F10508F03EC0FE2CEE2009F4B5CF25137D
:101690002AC0941328C08091E50180FD1BC0982FBB
:1016A000907FC1F0F8018583903F31F0982F907FB3
:1016B000905F8F70892B8583C8010E94770786E031
:1016C000F801A0EEB1E001900D928A95E1F70E9439
:1016D000A709FDCE86E0F801A0EEB1E001900D92E1
:1016E0008A95E1F7F4CEC8010E94D807811175CF21
:1016F0008091E50181608093E501C8010E94770730
:10170000E6CE7A2DB98AA88A6E2D89890E94DF07D4
:1017100086E0F60111928A95E9F7D9CFEE2009F417
:101720006BCFC8010E94D807F82E882309F464CF34
:1017300086E0F801A0EEB1E001900D928A95E1F704
:1017400080EE91E00E9455040E94B509C0CF81E06F
:101750008E25D7CE1F93CF93DF93CDB7DEB72C97CF
:101760000FB6F894DEBF0FBECDBF4F835887698791
:101770007A878B879C87CE0107960E940B0A882365
:1017800069F08A859B85892B39F04F815885842F94
:1017900085238F3F09F071C016E05FC086E0FE012F
:1017A0003796DE01119601900D928A95E1F78A85B0
:1017B0009B85892B89F38F81988589238F3F61F3DE
:1017C0002091AF0130E0C9010196877099274091BF
:1017D000AE014817190671F40E94B5071092AF01C7
:1017E0001092AE0186E0E0EEF1E0DF011D928A95F5
:1017F000E9F7D2CF96E0929FD001939FB00D1124CC
:10180000A055BE4FFE01319601900D929A95E1F7D9
:101810008093AF010E948609BFCF819FC001112430
:1018200080559E4F0E940B0A8823E9F0E091AE019B
:101830001E9FF0011124E055FE4F408151816281CD
:101840007381848195810E94EE078091AE0190E0C2
:101850000196877099278093AE018091AE01909197
:10186000AF018913DACF2C960FB6F894DEBF0FBE06
:10187000CDBFDF91CF911F91089569857A858B85C2
:101880009C850E94EE0788CF682F8091000190917F
:1018900001010C942B1B682F809100019091010194
:1018A0000C94361B80910001909101010C94411B16
:1018B0008091E60185958595859508958091E6014D
:1018C000877008959091E601977081E009F480E0B7
:1018D00008959091630292FB222720F9281751F076
:1018E00080FB92F99093630280916202909163026F
:1018F0000C946E0D08958091630282FB882780F915
:1019000091E089270C94690C81E00C94690C80E0CB
:101910000C94690C80910A02089590910A02892B17
:1019200080930A020895809590910A0298239093DB
:101930000A02089510920A02089590910902892BD3
:1019400080930902089580959091090298239093BD
:101950000902089510920902089590910802892BB6
:10196000809308020895809590910802982390939F
:10197000080208951092080208958091E7010895E1
:1019800008950C94C00C9091630292FD08C0909150
:10199000E701981721F08093E7010C94C10C08959A
:1019A0008091E701882329F01092E70180E00C94F0
:1019B000C10C0895E0910001F091010180910A02AB
:1019C0008083E0910001F0910101808190910902F2
:1019D000892B8083E0910001F09101018081909139
:1019E0000802892B80839091E701992381F0E0918F
:1019F0000001F09101018081892B80838091000199
:101A0000909101010E94971A81110E94D00C80913F
:101A10000001909101010C94431A08950C940D0D4E
:101A20009091630292FD10C098E0899F900111246B
:101A3000622B6093E6010E942E088091E601859555
:101A4000859585950C940E0D0C942E081092E60148
:101A500080E00C940E0D9091E6018095892380938F
:101A6000E601282F277039F4282F082E000C330B9D
:101A70009217130621F49091630292FF07C0859597
:101A8000859585950E9439080C94260D08956FEF71
:101A90007FEF90E080E00C94272490E080E00E94AB
:101AA0000324893E9E4F11F40C944E1580E0089556
:101AB00082E090E00C94FB2383E090E00C94FB2305
:101AC000CF9384E090E00E94FB23C82F82E290E055
:101AD0000E94FB23982F8C2FCF910895CF93C92F6D
:101AE000682F84E090E00E9409246C2F82E290E04D
:101AF000CF910C940924AB01BC018FE090E00C94D1
:101B00001B24AB01BC0183E190E00C941B2460E03A
:101B100070E0CB010C94810D60E070E0CB010E947D
:101B20007B0D0C94870D69EE7EEF90E080E00E94C3
:101B3000272460E082E090E00E94092460E083E0D6
:101B400090E00E9409241092AD0160E084E090E0F2
:101B50000E94092460E082E290E00E94092460E093
:101B600085E090E00E94092460E086E090E00E9419
:101B700009246FEF87E090E00E94092440E050E0E4
:101B8000BA0188E090E00E941B2460E08DE090E0C4
:101B90000E94092440E050E0BA0188E190E00E94F0
:101BA0001B2460E087E190E00E94092440E050E0BF
:101BB000BA018CE190E00E941B2470E060E080E2BA
:101BC00090E00E94272440E050E0BA0188E190E0D4
:101BD0000E941B2480E00E9467150E948D150C94C2
:101BE0008C0D0C94930D682F8EE090E00C940924DA
:101BF0000E94E21B60931A0270931B0280931C02E6
:101C000090931D026093160270931702809318023E
:101C10009093190208950E94E21B60931A02709338
:101C20001B0280931C0290931D026093120270931A
:101C300013028093140290931502089585B780686B
:101C400085BF85B7806885BF0895089508950C9471
:101C5000250E08950C94290E0E941E0E8AEE90E126
:101C60000E94451C0E94260E0C94270E81E00895C8
:101C70000C94360E089508950E943A0E0C943B0E73
:101C80000E94CD1B0E949C150E94D0110E94F81446
:101C90000C942A0EAF92BF92CF92DF92EF92FF92F6
:101CA0000F931F93CF93DF93CDB7DEB72A970FB66D
:101CB000F894DEBF0FBECDBF0E94E11181110E94DA
:101CC000F80D8CE0A82E82E0B82E10E000E0C02EC7
:101CD000802F0E942411E82EF501F1905F01F81683
:101CE00009F453C080911E0281FD0E942A118F2D9C
:101CF0008E25D12CFF24F394982F9F2109F440C006
:101D00000E94380E882399F0DE82CF82EF2081E096
:101D100009F480E088870E94D61B8160782F9A871B
:101D200089874E815F8168858A850E941704F80142
:101D3000E45FFD4F8081F826F0820E940715811133
:101D40000E940B0E0E94DC130E94371A90910B0226
:101D5000891791F10E94371A80930B022A960FB6C9
:101D6000F894DEBF0FBECDBFDF91CF911F910F91D1
:101D7000FF90EF90DF90CF90BF90AF900C940F0446
:101D8000D394FF0CF4E0DF12B7CF0F5F1F4F063084
:101D9000110509F09CCF8FEF89838A831B820E94F3
:101DA000D61B8160782F9D838C8349815A816B81FA
:101DB0008D810E941704C1CF2A960FB6F894DEBF1A
:101DC0000FBECDBFDF91CF911F910F91FF90EF908C
:101DD000DF90CF90BF90AF90089590E080E008959D
:101DE0000895FC01EE0FFF1FE45EFD4F8591949175
:101DF0000895CF93DF930E941010EC01811520E528
:101E0000920708F042C0811530E4930708F0BDC086
:101E1000883E910528F5803E910508F09DC0883ADE
:101E2000910588F4853A910508F08FC081309105BD
:101E300009F492C0009709F48FC0049708F08CC091
:101E4000D0E0C0E089C08F3B910508F489C0805C78
:101E50009109C03CD105A0F30E94F10EEC017CC0B9
:101E60008115904250F4C11581E0D80708F074C084
:101E7000C03FD10528F3D0656FC0C11590E3D907E5
:101E800008F079C0CE019F70E7CF811525E5920754
:101E900058F5811534E5930708F0A6C0811542E591
:101EA000940750F4C11581E5D80708F471C0DC2F00
:101EB000CC27C16FD06A50C0982F969596959E01F9
:101EC00023703327C115D34508F07FC0C1E0D0E0AF
:101ED00002C0CC0FDD1F2A95E2F720E2929FC001DD
:101EE0001124C82BD92B6FC0C11589E5D807A8F4D8
:101EF000C11598E5D90708F07CC0C11526E5D207C1
:101F000008F09ECF8C2F0E94A710C82FD0E0DC2FA6
:101F1000CC27CC27DF71D0621FC0C1153AE5D307AB
:101F200008F46CC0CE0190568115904208F088CF1D
:101F30008D2F8F710E94A71090E0982F88278827F7
:101F40009F719C012C2BE901E6CFC55AD0E0CC58FB
:101F5000DE4FC881D0E0D064CE01DF91CF910895EB
:101F6000C85AD0E0CC0FDD1FCA5BDE4F0990D88184
:101F7000C02DD464F1CFCE019927D3FF03C0EC016B
:101F8000D86CEACFEC01D06CE7CFDF70D06AE4CF39
:101F9000CE01E4E096958795EA95E1F783702C2FC2
:101FA00026952695237090E2299F90011124382BC5
:101FB0008C2F8370C1E0D0E002C0CC0FDD1F8A956A
:101FC000E2F7C22BD32BDC68C7CFC1E0D0E002C060
:101FD000CC0FDD1F2A95E2F730E2939FC001112458
:101FE000C82BD92BDA68B8CFD82FCC27C46FD06ACA
:101FF000B3CFDC2FCC27C06FD06AAECF8C2F8F70C1
:102000000E94A71034E0D695C7953A95E1F7CF70B6
:102010009C2FEC01D069A0CF0E945C170C94F90EA4
:1020200082389105B1F1B0F48133910509F475C09E
:1020300048F48932910509F469C08A32910509F49E
:1020400073C008958533910509F459C0893391050A
:1020500001F10895833E9105A9F138F4803E910580
:10206000F9F0823E910549F10895863E9105A9F166
:10207000873E9105C9F1843E910519F520916302CF
:1020800021FF1FC08091620284FD14C087EE90E0A2
:102090000895209162022370A1F080EE90E00895EF
:1020A0002091620220FD47C03091630230FF09C0D9
:1020B00024FF44C090E080E004C02091620222FD31
:1020C000F7CF08952091620222FD3BC03091630258
:1020D00030FDE3CF24FFF5CFEDCF2091620223FF47
:1020E000F0CF24FDE7CFD2CF2091620223FD2CC098
:1020F0003091630231FFEECF84EE90E0089520919D
:10210000620225FFDECF89E290E00895209162020D
:1021100025FFD7CF85E390E008952091620226FF46
:10212000D0CF8AE290E008952091620226FFC9CFC5
:1021300081E390E0089589E390E0089583EE90E0D4
:10214000089582EE90E0089586EE90E008959091D3
:10215000620292FF06C0282F28712830F9F4877F89
:10216000846093FF06C0282F28712831F1F4877E00
:1021700084612091630220FF06C0382F3871383007
:10218000D9F4877F816021FF06C0282F287128316C
:10219000D1F4877E816194FD877E0895282F247174
:1021A0002430F9F68B7F8860DCCF282F247124310E
:1021B00001F78B7E8861DDCF382F3171313019F70F
:1021C0008E7F8860E0CF282F2171213121F78E7E0C
:1021D0008861E1CF80E008950C94470D0E94E111E1
:1021E0008FE39CE90197F1F700C000000E94E11124
:1021F00080E00E94241180FF04C00E94EC100C9427
:10220000211C08950C94EE100E944D0D811102C006
:102210000E94F10D0E94580D80931E020E94600DD5
:1022200090936302809362020E9402110E945C0DEF
:102230000E9408088091AC010C941B0808950C942E
:102240001E1108950C942111E82FF0E0E659FD4F7E
:1022500080810895089580EA8A95F1F7089500C075
:1022600008950C942B11F894E82FE295EF70F0E0AC
:1022700031A1282F2F7081E090E001C0880F2A95AE
:10228000EAF7982F9095932391A392A1892B82A38B
:1022900078940895CF93DF93CBE7D1E089918F3F76
:1022A00011F00E94331181E0C138D807B9F783E9F2
:1022B0000E94331184E90E94331186E90E94331190
:1022C00087E9DF91CF910C943311CF92DF92EF9297
:1022D000FF920F931F93CF93DF93EC01D62E062F1F
:1022E00010E0C80185589E4F7C01FC0180818F3F22
:1022F00009F44BC0F894E82FE295EF70F0E091A15B
:102300008F7021E030E001C0220F8A95EAF7892F13
:10231000822B81A382A12095282322A378940E9456
:102320002F11E7E7F1E030E020E0C12C51E04191CE
:102330004F3FA1F1A42FA295AF70B0E090968C9181
:1023400090E04F7002C0959587954A95E2F780FD21
:1023500025C0852F022E01C0880F0A94EAF7C82AEB
:102360002F5F3F4F2430310511F7F70180818F3FF8
:1023700011F00E94331161E0C11001C060E08D2DA9
:102380000E943111C00FD11FC882DF91CF911F91E0
:102390000F91FF90EF90DF90CF90089580E0DFCF16
:1023A0000E944A11E4E6F2E0AAE6B2E011921D9220
:1023B00082E0EA36F807D1F786E00E9429120C94F1
:1023C000C602FF920F931F93CF93DF9300D000D0EC
:1023D00000D0CDB7DEB78E010F5F1F4F86E0F8014A
:1023E00011928A95E9F7F12C6F2DC8010E946511B1
:1023F000F394F6E0FF12F8CF46E050E0B80184E62F
:1024000092E00E94EE23FF24F394009709F4F12C4C
:10241000892B41F086E0F801A4E6B2E001900D922C
:102420008A95E1F72F2D46E06AE672E084E692E0B5
:102430000E942A120E94CC028F2D26960FB6F89485
:10244000DEBF0FBECDBFDF91CF911F910F91FF90E7
:1024500008950895FF920F931F93CF93DF93F82E63
:10246000092F162FD72FC42F222349F081E0809304
:1024700021020E94D61B9093200280931F0280911C
:1024800021028823A1F080911F02909120020E94D6
:10249000EE1B059760F0EF2DF02FA12FBD2FCE0F73
:1024A000DF2FD11DEC17FD0741F410922102DF91BF
:1024B000CF911F910F91FF90089581918D93F2CF4D
:1024C0000E94531B0E94EB1D0E94041E0E94161EB8
:1024D0000E943C0EFBCF8091280280FF12C06091C9
:1024E000070185E0689FB001112475956795759582
:1024F000679560387105A8F561157105A1F1862F02
:10250000089581FF09C06091070185E0689FB001CF
:10251000112475956795EDCF6091070182FD0AC082
:10252000809127028823D1F09091060160910701E4
:10253000891728F085E0689FB0011124DACF869FC3
:10254000B001112485E0869F9001879F300D1124F2
:10255000692F70E0C9010E94B923CBCF65E070E01C
:10256000CECF8FE7089581E008958091280280FF03
:102570000CC06091030170E075956795759567953E
:102580006115710549F1862F089581FF06C060919C
:10259000030170E075956795F3CF6091030182FDAB
:1025A0000BC0909126029923A1F0609102018091C5
:1025B0000301961738F0682F70E06038710500F35A
:1025C0008FE70895899FC001112470E00E94B9230C
:1025D000F4CF61E070E0D7CF81E00895803F31F41F
:1025E0000E946B12819580932C020895813F19F40B
:1025F0000E946B12F8CF823F31F40E946B128195DA
:1026000080932B020895833F19F40E946B12F8CF38
:10261000893F29F40E94B51280932D0208958A3FC4
:1026200021F40E94B5128195F7CF8B3F31F40E94BF
:10263000B512819580932E0208958C3F19F40E9463
:10264000B512F8CF9CE0980F953070F4845F990B29
:1026500021E030E001C0220F8A95EAF780912A023A
:10266000822B80932A0208958D3F31F480912802B5
:1026700081608093280208958E3F21F48091280282
:102680008260F7CF8F3FB9F7809128028460F1CF45
:1026900040912B02803F59F480912C0287FF0DC09E
:1026A00010922C0241110BC01092270208C0813FEA
:1026B00081F480912C0218169CF3442381F08091C0
:1026C0002D0290912E02892B09F05AC010922602F9
:1026D0000895823F49F447FFF0CF10922B0280917A
:1026E0002C028111ECCFE0CF833F19F41416ACF328
:1026F000E4CF90912D02893F29F41916F4F6109237
:102700002D02DBCF8A3F19F497FFD7CFF8CF9091F6
:102710002E028B3F29F497FFD0CF10922E02CDCFFF
:102720008C3F19F41916CCF3C8CF9CE0980F953064
:1027300090F4845F990B21E030E0B90102C0660F8C
:10274000771F8A95E2F7CB01809590912A02892321
:1027500080932A02B2CF8D3F31F4809128028E7F80
:1027600080932802AACF8E3F21F4809128028D7F8A
:10277000F7CF8F3F09F0A1CF809128028B7FF0CF58
:1027800008950E94D61B9C0190912B0280912C02EF
:10279000982B21F0309325022093240290912D0252
:1027A00080912E02982B21F0309323022093220255
:1027B00089E292E00C945D1AEF92FF920F931F93BF
:1027C000CF93DF9300D000D000D0CDB7DEB786E046
:1027D000E9E2F2E0DE01119601900D928A95E1F7AF
:1027E000E0902B02F0902C0200912D0210912E020D
:1027F00010922B0210922C0210922D0210922E0297
:102800008E2D8F2991F080912402909125020E94B3
:10281000EE1BAC0190912702992309F43FC08091EF
:1028200008018417150608F447C0802F812B91F00A
:1028300080912202909123020E94EE1BAC019091A4
:102840002602992309F477C08091040184171506A4
:1028500008F47FC080912B0290912C02892B9091DB
:102860002D02892B90912E02892B11F00E94C11309
:1028700086E0FE013196A9E2B2E001900D928A95C0
:10288000E1F726960FB6F894DEBF0FBECDBFDF91FD
:10289000CF911F910F91FF90EF9008952091090122
:1028A0008AE0289F900111242417350708F0BDCF36
:1028B0009F5F9093270202C09F3FD1F7EE2059F00F
:1028C0000E946B129FEF1E140CF491E0899F802DE3
:1028D000112480932B02FF2059F00E946B129FEF6E
:1028E0001F140CF491E0899F802D112480932C02F9
:1028F00030912B02332309F498CF20912C0222230C
:1029000009F493CF45EB3403C0011124992359F006
:1029100090932B0245EB240390011124332339F0CB
:1029200030932C0282CF81E080932B02F3CF81E0A1
:1029300080932C027ACF209105018AE0289F900194
:1029400011242417350708F085CF9F5F9093260246
:1029500002C09F3FD1F7002359F00E94B5129FEFAC
:1029600010160CF491E0899F802D112480932D0284
:10297000112359F00E94B5129FEF11160CF491E04B
:10298000899F802D112480932E0230912D023323B4
:1029900009F460CF20912E02222309F45BCF45EB8E
:1029A0003403C0011124992359F090932D0245EB73
:1029B000240390011124332339F030932E024ACF9F
:1029C00081E080932D02F3CF81E080932E0242CFED
:1029D00086E0E9E2F2E0DF011D928A95E9F71092C4
:1029E0002702109226021092280208950C944402A5
:1029F0008098889A8198899A8FB18170799905C059
:102A000090E0892B80933102089592E0FACFE09113
:102A10003102EE0FEE0FE09331024FB1842F81703F
:102A20004FB141FB222720F941FF02C022E030E0F4
:102A3000822BE82BE0933102EF70F0E0EF57FE4F6E
:102A4000808190913002890F8093300220E08430A1
:102A500054F080912F028F5F80932F0260E080E01E
:102A60000E94F61421E0809130028D3F54F4809151
:102A70002F02815080932F0261E080E00E94F614C3
:102A800021E080913002082E000C990B64E070E088
:102A90000E94B92380933002822F089583E290E050
:102AA0000E94FB23813289F484E290E00E94FB23A0
:102AB000893059F485E290E00E94FB2391E089314E
:102AC00009F090E0892F8170089580E0FCCFCF93CA
:102AD000C82F6FEF811161E283E290E00E94092428
:102AE0006FEFC11169E084E290E00E9409246FEF6A
:102AF000C11169E185E290E0CF910C940924089519
:102B000086E290E00E94FB23682F70E090E080E076
:102B1000089586E290E00C94092480E00E946715F5
:102B200060E070E0CB010E9489150E94D6160E94D9
:102B3000C01781E00C9467150E947F150E944E1506
:102B4000811102C00C948D150895CF93FB01C281B1
:102B5000CC2309F19C0122513F452031310520F55C
:102B600082510E94D017C0E08C2FCF91089581E050
:102B70000E942E0843E062E081E00E94BD02F3CF94
:102B800081E00E94390843E062E081E00E94BD02DA
:102B9000EBCF82E0F6CF8031FFE59F0789F38131EB
:102BA0009F45B9F3C1E0E0CF8031EFE59E07F9F230
:102BB00081319F45C9F682E0DBCF2FEFFC012083F6
:102BC0000895EF92FF920F931F93CF93DF93EC0141
:102BD000062FE881E150E33108F05EC0F0E0E35AEF
:102BE000FB4D0C94CD23198289E08A83602FCE019E
:102BF000DF91CF911F910F91FF90EF900C94E01C0B
:102C00008981823069F0833071F08130D9F40E947B
:102C1000E21B0E94D3236A837B838C839D83E6CF50
:102C20000E948015F6CF7E0182E0E80EF11C10E0D4
:102C3000812F0E942411F70181937F011F5F1630BD
:102C4000B9F7D4CF602FCE010E94DD15CFCF898197
:102C50008230C1F76A817B818C819D810E94D32360
:102C60000E948915C3CF4B816A8189810E94A81671
:102C70009827892798279D838C83B8CF2C813D8105
:102C80003227232732274B816A8189810E94C1160E
:102C9000ADCF0E94D616AACF8FEF8883A7CF0E9410
:102CA00069178983A3CF0E946B17982789279827D4
:102CB0009A8389839BCF6B8170E089819A81AE0171
:102CC0004C5F5F4F9827892798270E946E178ECFF9
:102CD0006B8170E089819A81AE014C5F5F4F9827CC
:102CE000892798270E94951781CF0E94C0177ECF11
:102CF0000E949516D6CF6B8170E089819A81AE01D2
:102D00004C5F5F4F9827892798270E940E176ECF38
:102D10006B8170E089819A81AE014C5F5F4F98278B
:102D2000892798270E94331761CF84E0089598E09F
:102D3000699FB001112450E0440F551F640F751FA7
:102D400090E3899F600D711D1124CB018796089532
:102D50000F931F93CF93DF930E9497168C010E94CD
:102D6000FB23C82FD0E0DC2FCC27C80101960E949E
:102D7000FB239E01282BC901DF91CF911F910F9159
:102D800008950F931F93CF93DF93122F032F0E9469
:102D90009716EC01602F0E940924612FCE01019645
:102DA000DF91CF911F910F910C940924AF92BF92A4
:102DB000CF92DF92EF92FF921F93CF93DF938CEA33
:102DC000C82E80E0D82ED0E07601C0E014C0F50116
:102DD00025913491412F6C2F8D2F0E94C11682E0D6
:102DE000A80EB11C1F5F143091F788E0E80EF11CAB
:102DF000CF5FC63019F0570110E0E9CFDF5F80E305
:102E0000C80ED11CD43001F7DF91CF911F91FF90F4
:102E1000EF90DF90CF90BF90AF900895EF92FF9228
:102E20000F931F93CF93DF93EC018A017C01E60E91
:102E3000F71ECE018796CE15DF0539F4DF91CF91CD
:102E40001F910F91FF90EF900895C03CD10540F481
:102E50000E94FB23F80180830F5F1F4F2196E9CF6B
:102E6000F8011082F9CFCF92DF92EF92FF920F9389
:102E70001F93CF93DF937C016A018C01060F171F0C
:102E8000EC01CE018796C017D10749F4DF91CF91AD
:102E90001F910F91FF90EF90DF90CF900895C03C6D
:102EA000D10540F4FE01EE19FF09EC0DFD1D608116
:102EB0000E9409242196E5CF462F843038F47630DD
:102EC00028F4643018F4672F0C94A81690E080E082
:102ED000089580E1089589E193E00895EF92FF92CB
:102EE0000F931F93CF93DF93EC018A017C01E60ED1
:102EF000F71ECE0189519F4FCE15DF0539F4DF91C2
:102F0000CF911F910F91FF90EF900895C93123E069
:102F1000D20740F40E94FB23F80180830F5F1F4F0C
:102F20002196E7CFF8011082F9CFCF92DF92EF928E
:102F3000FF920F931F93CF93DF937C016A018C0163
:102F4000060F171FEC01CE0189519F4FC017D10703
:102F500049F4DF91CF911F910F91FF90EF90DF9097
:102F6000CF900895C93123E0D20740F4FE01EE1955
:102F7000FF09EC0DFD1D60810E9409242196E3CF1D
:102F8000CF93DF93C7EED0E060E0CE010E9409242A
:102F90002196C11584E0D807B9F7DF91CF91089544
:102FA000DF92EF92FF920F931F93CF93DF9300D0A6
:102FB00000D0CDB7DEB7F82E8FE08F1540F08FEF41
:102FC00093E00E94FB2307EE10E08823C1F00F90EE
:102FD0000F900F900F90DF91CF911F910F91FF9065
:102FE000EF90DF900895011584E0180781F3C80180
:102FF0000E94FB23811101C0FA940F5F1F4FF11053
:10300000F2CF19821A821B821C82DD24D3947801AC
:103010008FEFE81AF80AC8010E94FB2389831A82FD
:103020008823A9F29FEF980F933078F48A83D9828E
:103030000E5F1F4FC7010E94FB238B83882339F249
:10304000CE0101960E940404E2CF8701F9CF0F93CD
:103050001F93CF93DF93C42FD22FFC01828188234B
:10306000C9F0409334020E94D61B909333028093A0
:10307000320280E28C0F883008F050C0C77081E0C7
:1030800001C0880FCA95EAF7DF91CF911F910F9188
:103090000C94610510913402141335C080913202F2
:1030A000909133020E94EE1B883C910560F5C0E2CE
:1030B000CD0F1D17B9F080E2810F883040F41770F2
:1030C00081E001C0880F1A95EAF70E946805C830B0
:1030D00048F481E09D2F977001C0880F9A95EAF718
:1030E0000E946105802F0E945905C830B8F4D7703E
:1030F00081E001C0880FDA95EAF7DF91CF911F9147
:103100000F910C94680580E28C0F883038F4C770FA
:1031100081E001C0880FCA95EAF7EFCFDF91CF9128
:103120001F910F9108950F939C01CB01233F4CE514
:10313000340759F1A8F4283DFCE53F0701F1293D8A
:103140004CE53407D1F1273D3C4591F406E221EEF0
:1031500041EE67ED7CE50E94271880E00F9108950D
:10316000253FFCE53F07E9F0B0F0263F3C45F9F08C
:10317000FC018281882339F110923402EFCF07E2FB
:1031800025EE45EE68ED7CE5E6CF06E221EE40EE69
:1031900063EF7CE5E0CF07E225EE44EE64EF7CE5EB
:1031A000DACF06E221EE42EE65EF7CE5D4CF07E20E
:1031B00025EE46EE66EF7CE5CECF08E221E045EE57
:1031C00069ED7CE5C8CF81E0C9CFCF93DF93EC01F7
:1031D000FB018281882309F419C1C230FCE5DF07B5
:1031E000C0F1C6319CE5D90730F09E012A5F3C450D
:1031F0002930310570F50E94600D90936302809331
:103200006202C031ECE5DE0709F4CFC008F05BC014
:10321000C8308CE5D80709F4B6C088F5C430ECE5B1
:10322000DE0709F4A8C0C0F4C2308CE5D80709F461
:103230009CC0809162028260C330DC4509F498C072
:1032400080916202909163020E946E0D0E94B50708
:1032500080E0DF91CF910895809162028061C63055
:10326000ECE5DE0709F484C0809162028860C73013
:10327000DC4508F47DC080916202806279C0CC3068
:103280008CE5D80709F489C070F4809162028C60E3
:10329000CA30ECE5DE0709F46BC008F478C0809111
:1032A00062028E7F65C0CE308CE5D80709F479C004
:1032B000809162028B7FCF30DC4508F459C0809149
:1032C00062028F7E55C0CB3FECE5DE0709F457C0A4
:1032D00030F5C3318CE5D80709F46FC078F4C131FB
:1032E000ECE5DE0709F465C0C231DC4509F0A8CF82
:1032F0000E94B507809162028F773AC0C5318CE594
:10330000D80709F462C008F476C080916302816036
:10331000CA3FDC4509F094CF8093630291CFCF3F41
:10332000FCE5DF0709F44DC088F4809163028D7FCE
:10333000CD3F9CE5D90781F3809163028E7FCE3F1C
:10334000DC4550F3809163028360E6CFC130FDE538
:10335000DF0709F459C008F444C080E0C230DD45FD
:1033600009F06ECF0E94F30D6BCF809162028160F5
:103370008093620265CF809162028460F9CF809170
:1033800063028260C9CF809162028064F1CF0E94A3
:10339000B507809162028068EBCF809162028D7FD9
:1033A000E7CF80916202877FE3CF809162028F7DB9
:1033B000DFCF809162028F7BDBCF80916202837FBF
:1033C000D7CF809163028C7FA7CF8091620282FB6E
:1033D000992790F921E0922790FB82F990FB83F9DD
:1033E000C7CF80916302982F909591708E7F892B23
:1033F00090FB81F991CF0E94B50790916202892FCD
:1034000097FB87F98058B4CF81E0ACCF81E021CF22
:10341000CF93DF93EB0186319C4511F50E948A0C16
:103420009A81992399F08A7A91E009F490E0909337
:103430003502811109C089E20E94440C0E94DA0C15
:1034400080E0DF91CF91089585E3F6CF809135023A
:10345000811104C089E20E944B0CF0CF85E3FBCFC1
:1034600081E0EFCF90933B0280933A020895E09180
:103470003A02F0913B02309721F00190F081E02D6B
:10348000099480E00895E0913A02F0913B02309770
:1034900099F020911401222359F02091620227FF14
:1034A00007C0DC012C9111962C93119725E02C93E9
:1034B0000280F381E02D09940895E0913A02F091A1
:1034C0003B02309739F022E0DC012C930480F58137
:1034D000E02D09940895209138023091390228177F
:1034E000390771F09093390280933802E0913A02E3
:1034F000F0913B02309721F00680F781E02D09948E
:10350000089520913602309137022817390771F05B
:103510009093370280933602E0913A02F0913B0299
:10352000309721F00084F185E02D09940895FC0185
:10353000329680911401882321F0809162029EE1ED
:1035400087FF96E080E0915008F4089521912223AE
:10355000D1F38F5FF8CF662301F12091140122236C
:10356000F1F02091620227FF1AC0462F469546953A
:1035700046954E3190F4677021E030E002C0220F92
:10358000331F6A95E2F7840F911DFC01828190E060
:103590002823392381E0232B69F480E00895FC017E
:1035A000329608962191261721F0E817F907D1F7EE
:1035B000F4CF81E008959C01FC0132969FEF80E0FA
:1035C0004191461751F09F3F19F4411101C0982FC6
:1035D0008F5F8630A9F79F3F09F40895290F311DA9
:1035E00097FD3A95F90162830895FC013296089699
:1035F0002191261303C0DF0111971C92E817F907E8
:10360000B9F70895E62FE695E695E695EE3168F46C
:10361000E80FF92FF11D677021E030E001C0220FA3
:103620006A95EAF78281822B82830895E62FE695D8
:10363000E695E695EE3170F4E80FF92FF11D67700D
:1036400021E030E001C0220F6A95EAF720958281DF
:1036500028232283089520911401222329F0209108
:10366000620227FD0C94021B0C94DB1A20911401BA
:10367000222329F02091620227FD0C94161B0C9442
:10368000F51AFC01329680911401882351F0809143
:10369000620287FF06C08EE1DF011D928A95E9F77D
:1036A000089586E0F9CF0895089508950C94551B68
:1036B00080917802843049F10E94561B80E00E947C
:1036C0000F0410923C0288E190E020E40FB6F894D9
:1036D000A895809360000FBE2093600083B7817F20
:1036E000846083BF83B7816083BF7894889583B7F4
:1036F0008E7F83BF0FB6F894A89580916000886193
:1037000080936000109260000FBE08950895CF93DB
:103710000E94541B0E94E1110E94861BC0E08C2F66
:103720000E942411811105C0CF5FC630C1F7CF912F
:10373000089581E0FCCF08950C949B1B0E94B5076F
:103740000E94371A0E940F040C949C1B1F921FB6F4
:103750001F9211248F939F93AF93BF9380913C024C
:10376000811113C08091700290917102A091720238
:10377000B09173024196A11DB11D80937002909388
:103780007102A0937202B0937302BF91AF919F91A7
:103790008F911F901FBE1F90189582E084BD93E00B
:1037A00095BD9AEF97BD80936E0008952FB7F8945A
:1037B0008091700290917102A0917202B091730297
:1037C0002FBF08952FB7F894609170027091710225
:1037D00080917202909173022FBF08959C014FB7A0
:1037E000F8948091700290917102A0917202B09150
:1037F00073024FBF821B930B089578941F921FB6DC
:103800001F9211248F939F93AF93BF938091700267
:1038100090917102A0917202B09173020196A11D64
:10382000B11D8093700290937102A0937202B093C5
:103830007302BF91AF919F918F911F901FBE1F90F8
:10384000189581E08093E00080E28093D800109288
:10385000C9008FE19EE40197F1F700C0000087E006
:1038600090EBDC018093810290938202A09383020B
:10387000B093840288E19CE00FB6F894A8958093F9
:1038800060000FBE90936000FFCF9093A1018093E2
:10389000A00108958091600208959091780294307B
:1038A00029F580933D0270933F0260933E0290930E
:1038B000E9008FEF9091E800815095FD06C095EDED
:1038C0009A95F1F700008111F5CF8091E80085FF0E
:1038D0000DC050E040E063E070E08DE392E00E94B4
:1038E000D91E8091E8008E778093E8000895BC018E
:1038F00084E00C944D1CBC0183E00C944D1C9C0195
:1039000084E08093E9009FEF8091E800915085FD6D
:1039100006C085ED8A95F1F700009111F5CF8091F1
:10392000E80085FF0CC050E040E066E070E0C901AF
:103930000E94D91E8091E8008E778093E800089558
:10394000CF93DF93EC01809114018823B1F1809132
:10395000620287FF32C060E284E08093E9008FEF6B
:103960009091E800815095FD06C095ED9A95F1F78C
:1039700000008111F5CF8091E80085FF1BC0809188
:10398000140170E050E040E0811104C050E040E0DC
:1039900068E070E0CE010E94D91E8091E8008E7729
:1039A0008093E80080E2FE01A0E4B2E001900D9275
:1039B0008A95E1F7DF91CF91089568E081E0CDCF5E
:1039C000CF93FC01603221F580917802843001F5BB
:1039D000C091E900CF702091EC00922F917020FDF2
:1039E00090E8C92B82E08093E9008091E80080FF95
:1039F0000CC050E040E060E270E0CF010E94D91EB0
:103A00008091E8008E778093E800CF70C093E90042
:103A1000CF91089580917702811109C00E94B8204A
:103A20000E9415218091E20084608093E200089555
:103A300010927702089508950895089542E061EC88
:103A400081E00E94342042E261EC84E00E94342054
:103A500042E261EC82E00E94342042E260EC83E0CA
:103A60000C94342080917A02833009F461C030F4E0
:103A70008130D1F1823009F49DC008958A3009F473
:103A800089C08B3009F46FC0893009F050C0809133
:103A90007902813209F04BC080917D0290917E02C3
:103AA000009719F0029709F042C08091E800877FE3
:103AB0008093E8008091E80082FF35C09091F30088
:103AC0008091F200029729F48091F1008B7F813080
:103AD00021F48091F100809360028091E8008B775F
:103AE0008093E8000C94682080917902813AF9F47F
:103AF0008091E800877F8093E80080917D0290911B
:103B00007E02892B61F460E280E492E070E00E9422
:103B1000771F8091E8008B778093E800089560E03C
:103B200090E080E0F3CF809178028111C3CF0895B7
:103B300080917902813AD9F780917D0290917E023D
:103B4000892BA9F78091E800877F8093E800809116
:103B5000E80080FFFCCF809114018093F1008091F8
:103B6000E8008E77BDCF80917902813201F7809194
:103B70007D0290917E02892BD1F68091E800877FAB
:103B80008093E8000E94682080917B02809314015A
:103B90000C94B50780917902813249F68091E80052
:103BA000877F8093E8000E94682080917C02809348
:103BB0006102089580917902813A09F0B8CF80912D
:103BC000E800877F8093E8008091E80080FFFCCFC9
:103BD00080916102C2CF84B7877F84BF0FB6F8940B
:103BE000A8958091600088618093600010926000C9
:103BF0000FBE80E890E00FB6F89480936100909338
:103C000061000FBE0C942C0E0E94B8200E9415215A
:103C1000E2EEF0E080818460808378940E949E23AD
:103C20000E94400E8AE091E00C94321ACF93DF9309
:103C3000CDB7DEB7A0970FB6F894DEBF0FBECDBFED
:103C400080917802853031F480917802853091F14D
:103C50000E949E1B0E944A0E80917802843009F5D2
:103C600083E08093E9008091E80082FF1AC0809190
:103C7000E80090E085FF09C050E040E060E270E0BD
:103C8000CE0101960E94281F91E08091E8008B7779
:103C90008093E800992329F060E2CE0101960E940A
:103CA000E115A0960FB6F894DEBF0FBECDBFDF9131
:103CB000CF9108950E94581B80917602882321F2AB
:103CC0000E94871B882309F4BFCF0E94C31E0E9455
:103CD000B507BACF0C946C1E292F3327233031053A
:103CE00021F168F42130310509F443C02230310557
:103CF00009F444C090E080E030E020E026C02132AA
:103D0000310551F122323105A9F76330710590F781
:103D1000FB01EE0FFF1FEC56FE4F208131816F56E5
:103D20007E4FFB01808190E010C099278130910582
:103D300081F0009729F00297E9F6ECE1F2E002C089
:103D4000ECE6F2E0849190E09F01FA013183208358
:103D50000895E0E4F2E0F6CF6330710558F6660F9F
:103D6000771FFB01E656FE4F2081318189E090E00C
:103D7000ECCF82E190E02BEC32E0E7CF8BE590E0F6
:103D800020E732E0E2CF80E189BD82E189BD09B45C
:103D900000FEFDCF8091D8008F7D8093D800809168
:103DA000E00082608093E0008091E00081FDFCCF24
:103DB0000895AF92BF92CF92DF92FF920F931F931D
:103DC000CF93DF936C01EB018A010E948720F82ECC
:103DD000811123C00115110539F0F801808191810D
:103DE000C81BD90BC80ED91EB12CA12C2097A9F045
:103DF0008091E80085FD22C08091E8008E77809355
:103E0000E80001151105A1F0F80180819181A80E4B
:103E1000B91EB182A08285E0F82E8F2DDF91CF915F
:103E20001F910F91FF90DF90CF90BF90AF900895BA
:103E30000E9487208823D1F2F82EEFCFF6018191DE
:103E40006F018093F1002197FFEFAF1ABF0ACECF29
:103E5000AF92BF92CF92DF92FF920F931F93CF93B7
:103E6000DF936C01EB018A010E948720F82E8111FB
:103E700023C00115110539F0F80180819181C81B1B
:103E8000D90BC80ED91EB12CA12C2097A9F0809176
:103E9000E80085FD22C08091E8008B778093E800E0
:103EA00001151105A1F0F80180819181A80EB91EBC
:103EB000B182A08285E0F82E8F2DDF91CF911F91E6
:103EC0000F91FF90DF90CF90BF90AF9008950E9428
:103ED00087208823D1F2F82EEFCF8091F100F601F0
:103EE00081936F012197FFEFAF1ABF0ACECFFC017C
:103EF00080917F029091800286179707A0F061154C
:103F0000710529F49091E8009E779093E80090E085
:103F10006115710551F4911108C08091E80082FF8C
:103F200034C080E00895BC01F2CF809178028823EC
:103F3000C1F18530C1F18091E80083FD30C08091EE
:103F4000E80082FDEACF8091E80080FFE1CF809118
:103F5000F3002091F200382F6115710519F0283017
:103F6000310558F091E02830310509F090E02091BA
:103F7000E8002E772093E800CBCF81918093F10069
:103F8000615071092F5F3F4FE7CF809178028823FE
:103F900041F0853041F08091E80083FFBECF81E0A1
:103FA000089582E0089583E00895FC0180917F02E6
:103FB0009091800286179707A0F06115710529F48A
:103FC0008091E8008E778093E80090E0611571059C
:103FD00051F4911108C08091E80082FF35C080E063
:103FE0000895BC01F2CF809178028823C9F1853011
:103FF000C9F18091E80083FD31C08091E80082FD25
:10400000EACF8091E80080FFE1CF8091F30020911A
:10401000F200382F6115710519F02830310558F07C
:1040200091E02830310509F090E08091E8008E772A
:104030008093E800CBCF84918093F100319661505A
:1040400071092F5F3F4FE6CF80917802882341F0BE
:10405000853041F08091E80083FFBDCF81E0089575
:1040600082E0089583E00895982F973028F08F70AC
:104070008093E90081E008959093E900242F762F42
:1040800050E0981731F07091EC002091ED005091C4
:10409000F00021FD02C09F5FE8CF3091EB003E7F32
:1040A0003093EB003091ED003D7F3093ED00309187
:1040B000EB0031603093EB007093EC002093ED0047
:1040C0005093F0002091EE0027FDE5CF80E00895A9
:1040D0008091790287FF13C08091E80082FF06C0BB
:1040E0008091E8008B778093E80004C0809178028B
:1040F0008111F2CF0895809178028823D9F38091BD
:10410000E80080FFF8CF8091E8008E77ECCF209117
:10411000E4003091E50095E6A9012091EC00822FA2
:10412000817020FF06C08091E80080FF06C080E01B
:1041300008952091E80022FD1AC08091780288231A
:1041400089F0853089F08091EB0085FD0FC02091CA
:10415000E4003091E50042175307F9F29150E1F67F
:1041600084E0089582E0089583E0089581E0089551
:104170000E9426210E942E21E0EEF0E080818160E5
:104180008083E8EDF0E080818F77808319BCA7ED14
:10419000B0E08C918E7F8C9380818F7E8083109293
:1041A000770208950F931F93CF93DF930E942621E8
:1041B0000E942E21C8EDD0E088818F778883888186
:1041C0008068888388818F7D888319BC10927802EB
:1041D00010927402109276021092750200EE10E0B6
:1041E000F80180818B7F808388818160888342E0B1
:1041F00060E080E00E943420E1EEF0E080818E7F7C
:104200008083E2EEF0E0808181608083808188603D
:104210008083F80180818E7F80838881806188839C
:10422000DF91CF911F910F910895E8EDF0E080812B
:104230008F7E8083E7EDF0E080818160808384E081
:1042400082BF81E0809377020C94D220E8EDF0E009
:1042500080818E7F80831092E20008951092DA00B0
:104260001092E10008951F920F920FB60F92112441
:104270002F933F934F935F936F937F938F939F936E
:10428000AF93BF93EF93FF938091E10082FF0BC048
:104290008091E20082FF07C08091E1008B7F8093D4
:1042A000E1000E949D238091DA0080FF19C0809177
:1042B000D80080FF15C08091DA008E7F8093DA00ED
:1042C0008091D90080FF96C080E189BD82E189BDDF
:1042D00009B400FEFDCF81E0809378020E940A1DA0
:1042E0008091E10080FF19C08091E20080FF15C03D
:1042F0008091E2008E7F8093E2008091E2008061F5
:104300008093E2008091D80080628093D80019BC2D
:1043100085E0809378020E941C1D8091E10084FF5B
:104320002BC08091E20084FF27C080E189BD82E13B
:1043300089BD89B5982F917080FFFBCF8091D800FF
:104340008F7D8093D8008091E1008F7E8093E10083
:104350008091E2008F7E8093E2008091E200816094
:104360008093E20080917402882309F449C084E0BC
:10437000809378020E941D1D8091E10083FF29C077
:104380008091E20083FF25C08091E100877F8093C8
:10439000E10082E080937802109274028091E10043
:1043A0008E7F8093E1008091E2008E7F8093E20017
:1043B0008091E20080618093E20042E060E080E072
:1043C0000E9434208091F00088608093F0000E9469
:1043D0001B1DFF91EF91BF91AF919F918F917F91A5
:1043E0006F915F914F913F912F910F900FBE0F9062
:1043F0001F90189519BC109278020E94181D70CF5A
:104400008091E30087FD93E090937802B3CF1F92F1
:104410000F920FB60F9211242F933F934F935F93F8
:104420006F937F938F939F93AF93BF93CF93DF93BC
:10443000EF93FF93D091E900DF708091EC00C82FDB
:10444000C17080FDC0E81092E9008091F000877F84
:104450008093F00078940E944B221092E9008091A2
:10446000F00088608093F000CD2BCF70C093E900FE
:10447000FF91EF91DF91CF91BF91AF919F918F917C
:104480007F916F915F914F913F912F910F900FBE50
:104490000F901F9018951F93CF93DF93CDB7DEB782
:1044A000AA970FB6F894DEBF0FBECDBF89E792E0A2
:1044B0002091F100FC012193CF01F2E081389F07A8
:1044C000B9F70E94321D8091E80083FF1EC18091E0
:1044D000790290917A029A3008F017C1E92FF0E042
:1044E000E059FB4D0C94CD23803899F0823809F0C7
:1044F0000CC180917D028F70873008F006C18093D7
:10450000E9008091EB0085FB882780F91092E90093
:1045100006C080917502909176029111826090910F
:10452000E800977F9093E8008093F1001092F100EB
:104530008091E8008E77E5C0882309F4D3C08230EB
:1045400009F0E3C080917B028111D6C080917D0289
:104550008F702FEF280F263008F0D7C08093E90026
:104560002091EB0020FFC8C0933031F48091EB0024
:1045700080628093EB00C0C09091EB0090619093BB
:10458000EB0021E030E001C0220F8A95EAF720938A
:10459000EA001092EA008091EB008860EACF811176
:1045A000B4C010917B021F778091E3008078812B4B
:1045B0008093E3008091E800877F8093E8000E9469
:1045C00068208091E80080FFFCCF8091E300806844
:1045D0008093E30082E0111183E08093780295C01C
:1045E0008058823008F091C080917B0290917C02CB
:1045F0008C3D23E09207A1F583E08A838AE28983D8
:104600004FB7F894DE01139620E03EE051E2E32F2D
:10461000F0E050935700E49120FF03C0E295EF7063
:104620003F5FEF708E2F90E0EA30C0F0C7968D9319
:104630009D932F5F243159F74FBF8091E800877F0A
:104640008093E8006AE270E0CE0101960E94771F35
:104650008091E8008B778093E80057C0C096E7CF41
:1046600060917D0270917E02AE014F5F5F4F0E94AC
:104670006A1EBC01892B09F448C09091E800977F1D
:104680009093E80089819A810E94D51FE1CF8038FC
:10469000E1F58091E800877F8093E80080917402C3
:1046A0008093F10045CF811130C090917B02923010
:1046B00060F58091E800877F8093E8009093740212
:1046C0000E94682080917402882311F084E005C064
:1046D0008091E30087FDFACF81E0809378020E9409
:1046E0001E1D13C080917B02813079F481E09330EC
:1046F00009F080E0809376021092E9008091E80052
:10470000877F8093E8000E9468208091E80083FF03
:104710000AC08091E800877F8093E8008091EB00D9
:1047200080628093EB00AA960FB6F894DEBF0FBEAE
:10473000CDBFDF91CF911F9108950895CF938091C0
:1047400078028823A1F0C091E900CF709091EC002D
:10475000892F817090FD80E8C82B1092E90080912C
:10476000E80083FD0E944B22CF70C093E900CF91F7
:10477000089597FB072E16F4009407D077FD09D013
:104780000E94DA2307FC05D03EF4909581959F4F57
:104790000895709561957F4F0895EE0FFF1F059066
:1047A000F491E02D099469279627692778278727B0
:1047B00078270895AA1BBB1B51E107C0AA1FBB1F86
:1047C000A617B70710F0A61BB70B881F991F5A959D
:1047D000A9F780959095BC01CD010895FB01DC01FE
:1047E00004C08D910190801921F441505040C8F7C8
:1047F000881B990B0895F999FECF92BD81BDF89A57
:10480000992780B50895A8E1B0E042E050E00C940B
:104810002F24262FF999FECF92BD81BDF89A0197DA
:1048200000B4021639F01FBA20BD0FB6F894FA9AF8
:10483000F99A0FBE08950396272F0E940A240E941A
:104840000924252F0E940A24242F0C940A2401965F
:10485000272F0E940A240C940924DC01CB01FC01BF
:10486000F999FECF06C0F2BDE1BDF89A319600B4C9
:104870000D9241505040B8F70895F894FFCFA3052A
:10488000A305FB05FB054D066906D005D00574069A
:10489000DB06EA06EA064607D005D0054F07C4073F
:1048A000C407CD07CD07CF07CD07CD07CD07C40778
:1048B000C407D407CD07CD07D407F3150016271674
:1048C00033163E1649164C164C164C164C164C1602
:1048D0004F1653165B166816751678167B168816D3
:1048E00074229C2285239C228523CF22F0228523BB
:0448F00047235323E4
:1048F400E8012808641E140A321E4A1CA01C7F1CEE
:104904007B1C771C01E200E900EA00B500B600B7A1
:1049140000CD008301CC008A01920194012102237D
:104924000224022502260227022A02B300B4006FE1
:10493400007000818283E200E900EA00B500B6005D
:10494400B700CD008301CC008A01920194012102B9
:10495400230224022502260227022A02B300B400FD
:104964006F00700081828393949697C637909192DA
:104974003300FF0100010000FFFF0000010001FF00
:10498400004022B6B503DD02FF0282029B02BB0295
:00000001FF
